{
  "address": "0x5FbDB2315678afecb367f032d93F642f64180aa3",
  "abi": [
    {
      "anonymous": false,
      "inputs": [
        {
          "indexed": false,
          "internalType": "uint256",
          "name": "_contractId",
          "type": "uint256"
        },
        {
          "indexed": false,
          "internalType": "address",
          "name": "_contract",
          "type": "address"
        },
        {
          "indexed": false,
          "internalType": "address",
          "name": "_owner",
          "type": "address"
        }
      ],
      "name": "NewNFTContract",
      "type": "event"
    },
    {
      "anonymous": false,
      "inputs": [
        {
          "indexed": true,
          "internalType": "address",
          "name": "previousOwner",
          "type": "address"
        },
        {
          "indexed": true,
          "internalType": "address",
          "name": "newOwner",
          "type": "address"
        }
      ],
      "name": "OwnershipTransferred",
      "type": "event"
    },
    {
      "inputs": [
        {
          "internalType": "address",
          "name": "_owner",
          "type": "address"
        },
        {
          "internalType": "string",
          "name": "_name",
          "type": "string"
        },
        {
          "internalType": "string",
          "name": "_symbol",
          "type": "string"
        }
      ],
      "name": "deployMinter",
      "outputs": [],
      "stateMutability": "nonpayable",
      "type": "function"
    },
    {
      "inputs": [],
      "name": "owner",
      "outputs": [
        {
          "internalType": "address",
          "name": "",
          "type": "address"
        }
      ],
      "stateMutability": "view",
      "type": "function"
    },
    {
      "inputs": [],
      "name": "renounceOwnership",
      "outputs": [],
      "stateMutability": "nonpayable",
      "type": "function"
    },
    {
      "inputs": [
        {
          "internalType": "address",
          "name": "newOwner",
          "type": "address"
        }
      ],
      "name": "transferOwnership",
      "outputs": [],
      "stateMutability": "nonpayable",
      "type": "function"
    }
  ],
  "transactionHash": "0x7b64670759ba0f06c150c3e5a577cf271e5d551fe8271b644cacaf5afd5a70b8",
  "args": [],
  "solcInputHash": "bbde1a165ad28e2a1dccf3a43724b9ae",
  "bytecode": "0x608060405234801561001057600080fd5b50600061001b61006a565b600080546001600160a01b0319166001600160a01b0383169081178255604051929350917f8be0079c531659141344cd1fd0a4f28419497f9722a3daafe3b4186f6b6457e0908290a35061006e565b3390565b61263f8061007d6000396000f3fe60806040523480156200001157600080fd5b5060043610620000525760003560e01c806358e1dc1c1462000057578063715018a614620000705780638da5cb5b146200007a578063f2fde38b146200009c575b600080fd5b6200006e6200006836600462000596565b620000b3565b005b6200006e6200021d565b62000084620002c3565b6040516200009391906200065e565b60405180910390f35b6200006e620000ad36600462000572565b620002d2565b60008282604051620000c590620004c3565b620000d292919062000672565b604051809103906000f080158015620000ef573d6000803e3d6000fd5b5090506000620001006001620003a9565b60008181526002602090815260408083206001600160a01b038a81168552925291829020805473ffffffffffffffffffffffffffffffffffffffff1916918616918217905590517ff2fde38b0000000000000000000000000000000000000000000000000000000081529192509063f2fde38b90620001849033906004016200065e565b600060405180830381600087803b1580156200019f57600080fd5b505af1158015620001b4573d6000803e3d6000fd5b505050507fb8664d4fea78b514e4a9e5be39c03157b4bfa8bf9e10ce86e255425e2dece370818387604051620001ed939291906200073f565b60405180910390a16200020081620003b1565b6200020b8562000429565b620002168262000429565b5050505050565b620002276200049e565b6001600160a01b03166200023a620002c3565b6001600160a01b0316146200026c5760405162461bcd60e51b8152600401620002639062000701565b60405180910390fd5b600080546040516001600160a01b03909116907f8be0079c531659141344cd1fd0a4f28419497f9722a3daafe3b4186f6b6457e0908390a36000805473ffffffffffffffffffffffffffffffffffffffff19169055565b6000546001600160a01b031690565b620002dc6200049e565b6001600160a01b0316620002ef620002c3565b6001600160a01b031614620003185760405162461bcd60e51b8152600401620002639062000701565b6001600160a01b038116620003415760405162461bcd60e51b81526004016200026390620006a4565b600080546040516001600160a01b03808516939216917f8be0079c531659141344cd1fd0a4f28419497f9722a3daafe3b4186f6b6457e091a36000805473ffffffffffffffffffffffffffffffffffffffff19166001600160a01b0392909216919091179055565b80545b919050565b6200042681604051602401620003c8919062000736565b60408051601f198184030181529190526020810180517bffffffffffffffffffffffffffffffffffffffffffffffffffffffff167ff5b1bba900000000000000000000000000000000000000000000000000000000179052620004a2565b50565b62000426816040516024016200044091906200065e565b60408051601f198184030181529190526020810180517bffffffffffffffffffffffffffffffffffffffffffffffffffffffff167f2c2ecbc200000000000000000000000000000000000000000000000000000000179052620004a2565b3390565b80516a636f6e736f6c652e6c6f67602083016000808483855afa5050505050565b611e7c806200078e83390190565b80356001600160a01b0381168114620003ac57600080fd5b600082601f830112620004fa578081fd5b813567ffffffffffffffff808211156200051857620005186200075e565b604051601f8301601f1916810160200182811182821017156200053f576200053f6200075e565b60405282815284830160200186101562000557578384fd5b82602086016020830137918201602001929092529392505050565b60006020828403121562000584578081fd5b6200058f82620004d1565b9392505050565b600080600060608486031215620005ab578182fd5b620005b684620004d1565b9250602084013567ffffffffffffffff80821115620005d3578384fd5b620005e187838801620004e9565b93506040860135915080821115620005f7578283fd5b506200060686828701620004e9565b9150509250925092565b60008151808452815b81811015620006375760208185018101518683018201520162000619565b81811115620006495782602083870101525b50601f01601f19169290920160200192915050565b6001600160a01b0391909116815260200190565b60006040825262000687604083018562000610565b82810360208401526200069b818562000610565b95945050505050565b60208082526026908201527f4f776e61626c653a206e6577206f776e657220697320746865207a65726f206160408201527f6464726573730000000000000000000000000000000000000000000000000000606082015260800190565b6020808252818101527f4f776e61626c653a2063616c6c6572206973206e6f7420746865206f776e6572604082015260600190565b90815260200190565b9283526001600160a01b03918216602084015216604082015260600190565b7f4e487b7100000000000000000000000000000000000000000000000000000000600052604160045260246000fdfe60806040523480156200001157600080fd5b5060405162001e7c38038062001e7c833981016040819052620000349162000223565b8151829082906200004d906000906020850190620000d2565b50805162000063906001906020840190620000d2565b505050600062000078620000ce60201b60201c565b600780546001600160a01b0319166001600160a01b038316908117909155604051919250906000907f8be0079c531659141344cd1fd0a4f28419497f9722a3daafe3b4186f6b6457e0908290a3505050620002dd565b3390565b828054620000e0906200028a565b90600052602060002090601f0160209004810192826200010457600085556200014f565b82601f106200011f57805160ff19168380011785556200014f565b828001600101855582156200014f579182015b828111156200014f57825182559160200191906001019062000132565b506200015d92915062000161565b5090565b5b808211156200015d576000815560010162000162565b600082601f83011262000189578081fd5b81516001600160401b0380821115620001a657620001a6620002c7565b6040516020601f8401601f1916820181018381118382101715620001ce57620001ce620002c7565b6040528382528584018101871015620001e5578485fd5b8492505b83831015620002085785830181015182840182015291820191620001e9565b838311156200021957848185840101525b5095945050505050565b6000806040838503121562000236578182fd5b82516001600160401b03808211156200024d578384fd5b6200025b8683870162000178565b9350602085015191508082111562000271578283fd5b50620002808582860162000178565b9150509250929050565b6002810460018216806200029f57607f821691505b60208210811415620002c157634e487b7160e01b600052602260045260246000fd5b50919050565b634e487b7160e01b600052604160045260246000fd5b611b8f80620002ed6000396000f3fe608060405234801561001057600080fd5b506004361061011b5760003560e01c806370a08231116100b2578063a22cb46511610081578063c87b56dd11610066578063c87b56dd1461023d578063e985e9c514610250578063f2fde38b146102635761011b565b8063a22cb46514610217578063b88d4fde1461022a5761011b565b806370a08231146101ec578063715018a6146101ff5780638da5cb5b1461020757806395d89b411461020f5761011b565b806323b872dd116100ee57806323b872dd146101935780633d02d0c9146101a657806342842e0e146101c65780636352211e146101d95761011b565b806301ffc9a71461012057806306fdde0314610149578063081812fc1461015e578063095ea7b31461017e575b600080fd5b61013361012e366004611337565b610276565b6040516101409190611432565b60405180910390f35b6101516102f0565b604051610140919061143d565b61017161016c36600461136f565b610382565b60405161014091906113e2565b61019161018c36600461130e565b6103ce565b005b6101916101a13660046111c1565b610466565b6101b96101b43660046112af565b61049e565b6040516101409190611a1c565b6101916101d43660046111c1565b610512565b6101716101e736600461136f565b61052d565b6101b96101fa366004611175565b610562565b6101916105a6565b61017161062f565b61015161063e565b610191610225366004611275565b61064d565b6101916102383660046111fc565b61071b565b61015161024b36600461136f565b61075a565b61013361025e36600461118f565b61087b565b610191610271366004611175565b6108a9565b60006001600160e01b031982167f80ac58cd0000000000000000000000000000000000000000000000000000000014806102d957506001600160e01b031982167f5b5e139f00000000000000000000000000000000000000000000000000000000145b806102e857506102e88261096a565b90505b919050565b6060600080546102ff90611a94565b80601f016020809104026020016040519081016040528092919081815260200182805461032b90611a94565b80156103785780601f1061034d57610100808354040283529160200191610378565b820191906000526020600020905b81548152906001019060200180831161035b57829003601f168201915b5050505050905090565b600061038d8261099c565b6103b25760405162461bcd60e51b81526004016103a990611827565b60405180910390fd5b506000908152600460205260409020546001600160a01b031690565b60006103d98261052d565b9050806001600160a01b0316836001600160a01b0316141561040d5760405162461bcd60e51b81526004016103a990611962565b806001600160a01b031661041f6109b9565b6001600160a01b0316148061043b575061043b8161025e6109b9565b6104575760405162461bcd60e51b81526004016103a990611621565b61046183836109bd565b505050565b6104776104716109b9565b82610a2b565b6104935760405162461bcd60e51b81526004016103a9906119bf565b610461838383610aa8565b60006104a86109b9565b6001600160a01b03166104b961062f565b6001600160a01b0316146104df5760405162461bcd60e51b81526004016103a990611873565b6104e96008610bd5565b60006104f56008610bde565b90506105018482610be2565b61050b8184610cc1565b9392505050565b6104618383836040518060200160405280600081525061071b565b6000818152600260205260408120546001600160a01b0316806102e85760405162461bcd60e51b81526004016103a9906116db565b60006001600160a01b03821661058a5760405162461bcd60e51b81526004016103a99061167e565b506001600160a01b031660009081526003602052604090205490565b6105ae6109b9565b6001600160a01b03166105bf61062f565b6001600160a01b0316146105e55760405162461bcd60e51b81526004016103a990611873565b6007546040516000916001600160a01b0316907f8be0079c531659141344cd1fd0a4f28419497f9722a3daafe3b4186f6b6457e0908390a3600780546001600160a01b0319169055565b6007546001600160a01b031690565b6060600180546102ff90611a94565b6106556109b9565b6001600160a01b0316826001600160a01b031614156106865760405162461bcd60e51b81526004016103a99061159e565b80600560006106936109b9565b6001600160a01b03908116825260208083019390935260409182016000908120918716808252919093529120805460ff1916921515929092179091556106d76109b9565b6001600160a01b03167f17307eab39ab6107e8899845ad3d59bd9653f200f220920489ca2b5937696c318360405161070f9190611432565b60405180910390a35050565b61072c6107266109b9565b83610a2b565b6107485760405162461bcd60e51b81526004016103a9906119bf565b61075484848484610d05565b50505050565b60606107658261099c565b6107815760405162461bcd60e51b81526004016103a9906117ca565b6000828152600660205260408120805461079a90611a94565b80601f01602080910402602001604051908101604052809291908181526020018280546107c690611a94565b80156108135780601f106107e857610100808354040283529160200191610813565b820191906000526020600020905b8154815290600101906020018083116107f657829003601f168201915b505050505090506000610824610d38565b9050805160001415610838575090506102eb565b81511561086a5780826040516020016108529291906113b3565b604051602081830303815290604052925050506102eb565b61087384610d4a565b949350505050565b6001600160a01b03918216600090815260056020908152604080832093909416825291909152205460ff1690565b6108b16109b9565b6001600160a01b03166108c261062f565b6001600160a01b0316146108e85760405162461bcd60e51b81526004016103a990611873565b6001600160a01b03811661090e5760405162461bcd60e51b81526004016103a9906114ad565b6007546040516001600160a01b038084169216907f8be0079c531659141344cd1fd0a4f28419497f9722a3daafe3b4186f6b6457e090600090a3600780546001600160a01b0319166001600160a01b0392909216919091179055565b6001600160e01b031981167f01ffc9a70000000000000000000000000000000000000000000000000000000014919050565b6000908152600260205260409020546001600160a01b0316151590565b3390565b600081815260046020526040902080546001600160a01b0319166001600160a01b03841690811790915581906109f28261052d565b6001600160a01b03167f8c5be1e5ebec7d5bd14f71427d1e84f3dd0314c0f7b2291e5b200ac8c7c3b92560405160405180910390a45050565b6000610a368261099c565b610a525760405162461bcd60e51b81526004016103a9906115d5565b6000610a5d8361052d565b9050806001600160a01b0316846001600160a01b03161480610a985750836001600160a01b0316610a8d84610382565b6001600160a01b0316145b806108735750610873818561087b565b826001600160a01b0316610abb8261052d565b6001600160a01b031614610ae15760405162461bcd60e51b81526004016103a9906118a8565b6001600160a01b038216610b075760405162461bcd60e51b81526004016103a990611541565b610b12838383610461565b610b1d6000826109bd565b6001600160a01b0383166000908152600360205260408120805460019290610b46908490611a51565b90915550506001600160a01b0382166000908152600360205260408120805460019290610b74908490611a25565b909155505060008181526002602052604080822080546001600160a01b0319166001600160a01b0386811691821790925591518493918716917fddf252ad1be2c89b69c2b068fc378daa952ba7f163c4a11628f55a4df523b3ef91a4505050565b80546001019055565b5490565b6001600160a01b038216610c085760405162461bcd60e51b81526004016103a990611795565b610c118161099c565b15610c2e5760405162461bcd60e51b81526004016103a99061150a565b610c3a60008383610461565b6001600160a01b0382166000908152600360205260408120805460019290610c63908490611a25565b909155505060008181526002602052604080822080546001600160a01b0319166001600160a01b03861690811790915590518392907fddf252ad1be2c89b69c2b068fc378daa952ba7f163c4a11628f55a4df523b3ef908290a45050565b610cca8261099c565b610ce65760405162461bcd60e51b81526004016103a990611738565b6000828152600660209081526040909120825161046192840190611055565b610d10848484610aa8565b610d1c84848484610dcc565b6107545760405162461bcd60e51b81526004016103a990611450565b60408051602081019091526000815290565b6060610d558261099c565b610d715760405162461bcd60e51b81526004016103a990611905565b6000610d7b610d38565b90506000815111610d9b576040518060200160405280600081525061050b565b80610da584610f00565b604051602001610db69291906113b3565b6040516020818303038152906040529392505050565b6000610de0846001600160a01b031661104f565b15610ef557836001600160a01b031663150b7a02610dfc6109b9565b8786866040518563ffffffff1660e01b8152600401610e1e94939291906113f6565b602060405180830381600087803b158015610e3857600080fd5b505af1925050508015610e68575060408051601f3d908101601f19168201909252610e6591810190611353565b60015b610ec2573d808015610e96576040519150601f19603f3d011682016040523d82523d6000602084013e610e9b565b606091505b508051610eba5760405162461bcd60e51b81526004016103a990611450565b805181602001fd5b6001600160e01b0319167f150b7a0200000000000000000000000000000000000000000000000000000000149050610873565b506001949350505050565b606081610f41575060408051808201909152600181527f300000000000000000000000000000000000000000000000000000000000000060208201526102eb565b8160005b8115610f6b5780610f5581611acf565b9150610f649050600a83611a3d565b9150610f45565b60008167ffffffffffffffff811115610f9457634e487b7160e01b600052604160045260246000fd5b6040519080825280601f01601f191660200182016040528015610fbe576020820181803683370190505b5090505b841561087357610fd3600183611a51565b9150610fe0600a86611aea565b610feb906030611a25565b60f81b81838151811061100e57634e487b7160e01b600052603260045260246000fd5b60200101907effffffffffffffffffffffffffffffffffffffffffffffffffffffffffffff1916908160001a905350611048600a86611a3d565b9450610fc2565b3b151590565b82805461106190611a94565b90600052602060002090601f01602090048101928261108357600085556110c9565b82601f1061109c57805160ff19168380011785556110c9565b828001600101855582156110c9579182015b828111156110c95782518255916020019190600101906110ae565b506110d59291506110d9565b5090565b5b808211156110d557600081556001016110da565b600067ffffffffffffffff8084111561110957611109611b2a565b604051601f8501601f19168101602001828111828210171561112d5761112d611b2a565b60405284815291508183850186101561114557600080fd5b8484602083013760006020868301015250509392505050565b80356001600160a01b03811681146102eb57600080fd5b600060208284031215611186578081fd5b61050b8261115e565b600080604083850312156111a1578081fd5b6111aa8361115e565b91506111b86020840161115e565b90509250929050565b6000806000606084860312156111d5578081fd5b6111de8461115e565b92506111ec6020850161115e565b9150604084013590509250925092565b60008060008060808587031215611211578081fd5b61121a8561115e565b93506112286020860161115e565b925060408501359150606085013567ffffffffffffffff81111561124a578182fd5b8501601f8101871361125a578182fd5b611269878235602084016110ee565b91505092959194509250565b60008060408385031215611287578182fd5b6112908361115e565b9150602083013580151581146112a4578182fd5b809150509250929050565b600080604083850312156112c1578182fd5b6112ca8361115e565b9150602083013567ffffffffffffffff8111156112e5578182fd5b8301601f810185136112f5578182fd5b611304858235602084016110ee565b9150509250929050565b60008060408385031215611320578182fd5b6113298361115e565b946020939093013593505050565b600060208284031215611348578081fd5b813561050b81611b40565b600060208284031215611364578081fd5b815161050b81611b40565b600060208284031215611380578081fd5b5035919050565b6000815180845261139f816020860160208601611a68565b601f01601f19169290920160200192915050565b600083516113c5818460208801611a68565b8351908301906113d9818360208801611a68565b01949350505050565b6001600160a01b0391909116815260200190565b60006001600160a01b038087168352808616602084015250836040830152608060608301526114286080830184611387565b9695505050505050565b901515815260200190565b60006020825261050b6020830184611387565b60208082526032908201527f4552433732313a207472616e7366657220746f206e6f6e20455243373231526560408201527f63656976657220696d706c656d656e7465720000000000000000000000000000606082015260800190565b60208082526026908201527f4f776e61626c653a206e6577206f776e657220697320746865207a65726f206160408201527f6464726573730000000000000000000000000000000000000000000000000000606082015260800190565b6020808252601c908201527f4552433732313a20746f6b656e20616c7265616479206d696e74656400000000604082015260600190565b60208082526024908201527f4552433732313a207472616e7366657220746f20746865207a65726f2061646460408201527f7265737300000000000000000000000000000000000000000000000000000000606082015260800190565b60208082526019908201527f4552433732313a20617070726f766520746f2063616c6c657200000000000000604082015260600190565b6020808252602c908201527f4552433732313a206f70657261746f7220717565727920666f72206e6f6e657860408201526b34b9ba32b73a103a37b5b2b760a11b606082015260800190565b60208082526038908201527f4552433732313a20617070726f76652063616c6c6572206973206e6f74206f7760408201527f6e6572206e6f7220617070726f76656420666f7220616c6c0000000000000000606082015260800190565b6020808252602a908201527f4552433732313a2062616c616e636520717565727920666f7220746865207a6560408201527f726f206164647265737300000000000000000000000000000000000000000000606082015260800190565b60208082526029908201527f4552433732313a206f776e657220717565727920666f72206e6f6e657869737460408201527f656e7420746f6b656e0000000000000000000000000000000000000000000000606082015260800190565b6020808252602e908201527f45524337323155524953746f726167653a2055524920736574206f66206e6f6e60408201527f6578697374656e7420746f6b656e000000000000000000000000000000000000606082015260800190565b6020808252818101527f4552433732313a206d696e7420746f20746865207a65726f2061646472657373604082015260600190565b60208082526031908201527f45524337323155524953746f726167653a2055524920717565727920666f722060408201527f6e6f6e6578697374656e7420746f6b656e000000000000000000000000000000606082015260800190565b6020808252602c908201527f4552433732313a20617070726f76656420717565727920666f72206e6f6e657860408201526b34b9ba32b73a103a37b5b2b760a11b606082015260800190565b6020808252818101527f4f776e61626c653a2063616c6c6572206973206e6f7420746865206f776e6572604082015260600190565b60208082526029908201527f4552433732313a207472616e73666572206f6620746f6b656e2074686174206960408201527f73206e6f74206f776e0000000000000000000000000000000000000000000000606082015260800190565b6020808252602f908201527f4552433732314d657461646174613a2055524920717565727920666f72206e6f60408201527f6e6578697374656e7420746f6b656e0000000000000000000000000000000000606082015260800190565b60208082526021908201527f4552433732313a20617070726f76616c20746f2063757272656e74206f776e6560408201527f7200000000000000000000000000000000000000000000000000000000000000606082015260800190565b60208082526031908201527f4552433732313a207472616e736665722063616c6c6572206973206e6f74206f60408201527f776e6572206e6f7220617070726f766564000000000000000000000000000000606082015260800190565b90815260200190565b60008219821115611a3857611a38611afe565b500190565b600082611a4c57611a4c611b14565b500490565b600082821015611a6357611a63611afe565b500390565b60005b83811015611a83578181015183820152602001611a6b565b838111156107545750506000910152565b600281046001821680611aa857607f821691505b60208210811415611ac957634e487b7160e01b600052602260045260246000fd5b50919050565b6000600019821415611ae357611ae3611afe565b5060010190565b600082611af957611af9611b14565b500690565b634e487b7160e01b600052601160045260246000fd5b634e487b7160e01b600052601260045260246000fd5b634e487b7160e01b600052604160045260246000fd5b6001600160e01b031981168114611b5657600080fd5b5056fea2646970667358221220ce6db93a3064b0a2c99f5178de2cabea105bcfa93b85d1853c06880b45fe8aa264736f6c63430008000033a2646970667358221220ccebf6fbe373463828d4bffc207d4cddef9e22fa024a4c622b7246b912ac622964736f6c63430008000033",
  "devdoc": {
    "kind": "dev",
    "methods": {
      "owner()": {
        "details": "Returns the address of the current owner."
      },
      "renounceOwnership()": {
        "details": "Leaves the contract without owner. It will not be possible to call `onlyOwner` functions anymore. Can only be called by the current owner. NOTE: Renouncing ownership will leave the contract without an owner, thereby removing any functionality that is only available to the owner."
      },
      "transferOwnership(address)": {
        "details": "Transfers ownership of the contract to a new account (`newOwner`). Can only be called by the current owner."
      }
    },
    "version": 1
  },
  "userdoc": {
    "kind": "user",
    "methods": {},
    "version": 1
  },
  "storageLayout": {
    "storage": [
      {
        "astId": 7,
        "contract": "contracts/NFTMinterFactory.sol:NFTMinterFactory",
        "label": "_owner",
        "offset": 0,
        "slot": "0",
        "type": "t_address"
      },
      {
        "astId": 1885,
        "contract": "contracts/NFTMinterFactory.sol:NFTMinterFactory",
        "label": "_contractIds",
        "offset": 0,
        "slot": "1",
        "type": "t_struct(Counter)1575_storage"
      },
      {
        "astId": 1891,
        "contract": "contracts/NFTMinterFactory.sol:NFTMinterFactory",
        "label": "contractIdOwner",
        "offset": 0,
        "slot": "2",
        "type": "t_mapping(t_uint256,t_mapping(t_address,t_address))"
      }
    ],
    "types": {
      "t_address": {
        "encoding": "inplace",
        "label": "address",
        "numberOfBytes": "20"
      },
      "t_mapping(t_address,t_address)": {
        "encoding": "mapping",
        "key": "t_address",
        "label": "mapping(address => address)",
        "numberOfBytes": "32",
        "value": "t_address"
      },
      "t_mapping(t_uint256,t_mapping(t_address,t_address))": {
        "encoding": "mapping",
        "key": "t_uint256",
        "label": "mapping(uint256 => mapping(address => address))",
        "numberOfBytes": "32",
        "value": "t_mapping(t_address,t_address)"
      },
      "t_struct(Counter)1575_storage": {
        "encoding": "inplace",
        "label": "struct Counters.Counter",
        "members": [
          {
            "astId": 1574,
            "contract": "contracts/NFTMinterFactory.sol:NFTMinterFactory",
            "label": "_value",
            "offset": 0,
            "slot": "0",
            "type": "t_uint256"
          }
        ],
        "numberOfBytes": "32"
      },
      "t_uint256": {
        "encoding": "inplace",
        "label": "uint256",
        "numberOfBytes": "32"
      }
    }
  }
}