{
  "address": "0x80A4B50f549a8271e10A6C8e79172cb56f35fD57",
  "abi": [
    {
      "inputs": [
        {
          "internalType": "contract IEAS",
          "name": "eas",
          "type": "address"
        }
      ],
      "stateMutability": "nonpayable",
      "type": "constructor"
    },
    {
      "inputs": [],
      "name": "AccessDenied",
      "type": "error"
    },
    {
      "inputs": [],
      "name": "InsufficientValue",
      "type": "error"
    },
    {
      "inputs": [],
      "name": "InvalidEAS",
      "type": "error"
    },
    {
      "inputs": [],
      "name": "NotPayable",
      "type": "error"
    },
    {
      "inputs": [
        {
          "components": [
            {
              "internalType": "bytes32",
              "name": "uid",
              "type": "bytes32"
            },
            {
              "internalType": "bytes32",
              "name": "schema",
              "type": "bytes32"
            },
            {
              "internalType": "uint64",
              "name": "time",
              "type": "uint64"
            },
            {
              "internalType": "uint64",
              "name": "expirationTime",
              "type": "uint64"
            },
            {
              "internalType": "uint64",
              "name": "revocationTime",
              "type": "uint64"
            },
            {
              "internalType": "bytes32",
              "name": "refUID",
              "type": "bytes32"
            },
            {
              "internalType": "address",
              "name": "recipient",
              "type": "address"
            },
            {
              "internalType": "address",
              "name": "attester",
              "type": "address"
            },
            {
              "internalType": "bool",
              "name": "revocable",
              "type": "bool"
            },
            {
              "internalType": "bytes",
              "name": "data",
              "type": "bytes"
            }
          ],
          "internalType": "struct Attestation",
          "name": "attestation",
          "type": "tuple"
        }
      ],
      "name": "attest",
      "outputs": [
        {
          "internalType": "bool",
          "name": "",
          "type": "bool"
        }
      ],
      "stateMutability": "payable",
      "type": "function"
    },
    {
      "inputs": [
        {
          "internalType": "address",
          "name": "attester",
          "type": "address"
        },
        {
          "internalType": "address",
          "name": "tokenAddress",
          "type": "address"
        },
        {
          "internalType": "uint24",
          "name": "tokenChainId",
          "type": "uint24"
        }
      ],
      "name": "canAttest",
      "outputs": [
        {
          "internalType": "bool",
          "name": "",
          "type": "bool"
        }
      ],
      "stateMutability": "view",
      "type": "function"
    },
    {
      "inputs": [
        {
          "internalType": "bytes",
          "name": "data",
          "type": "bytes"
        }
      ],
      "name": "decode",
      "outputs": [
        {
          "internalType": "address",
          "name": "tokenAddress",
          "type": "address"
        },
        {
          "internalType": "uint24",
          "name": "tokenChainId",
          "type": "uint24"
        }
      ],
      "stateMutability": "pure",
      "type": "function"
    },
    {
      "inputs": [
        {
          "internalType": "address",
          "name": "addr",
          "type": "address"
        },
        {
          "internalType": "address",
          "name": "tokenAddress",
          "type": "address"
        },
        {
          "internalType": "uint24",
          "name": "tokenChainId",
          "type": "uint24"
        }
      ],
      "name": "delist",
      "outputs": [],
      "stateMutability": "nonpayable",
      "type": "function"
    },
    {
      "inputs": [
        {
          "internalType": "address",
          "name": "addr",
          "type": "address"
        },
        {
          "internalType": "address",
          "name": "tokenAddress",
          "type": "address"
        },
        {
          "internalType": "uint24",
          "name": "tokenChainId",
          "type": "uint24"
        }
      ],
      "name": "enlist",
      "outputs": [],
      "stateMutability": "nonpayable",
      "type": "function"
    },
    {
      "inputs": [],
      "name": "isPayable",
      "outputs": [
        {
          "internalType": "bool",
          "name": "",
          "type": "bool"
        }
      ],
      "stateMutability": "pure",
      "type": "function"
    },
    {
      "inputs": [
        {
          "components": [
            {
              "internalType": "bytes32",
              "name": "uid",
              "type": "bytes32"
            },
            {
              "internalType": "bytes32",
              "name": "schema",
              "type": "bytes32"
            },
            {
              "internalType": "uint64",
              "name": "time",
              "type": "uint64"
            },
            {
              "internalType": "uint64",
              "name": "expirationTime",
              "type": "uint64"
            },
            {
              "internalType": "uint64",
              "name": "revocationTime",
              "type": "uint64"
            },
            {
              "internalType": "bytes32",
              "name": "refUID",
              "type": "bytes32"
            },
            {
              "internalType": "address",
              "name": "recipient",
              "type": "address"
            },
            {
              "internalType": "address",
              "name": "attester",
              "type": "address"
            },
            {
              "internalType": "bool",
              "name": "revocable",
              "type": "bool"
            },
            {
              "internalType": "bytes",
              "name": "data",
              "type": "bytes"
            }
          ],
          "internalType": "struct Attestation[]",
          "name": "attestations",
          "type": "tuple[]"
        },
        {
          "internalType": "uint256[]",
          "name": "values",
          "type": "uint256[]"
        }
      ],
      "name": "multiAttest",
      "outputs": [
        {
          "internalType": "bool",
          "name": "",
          "type": "bool"
        }
      ],
      "stateMutability": "payable",
      "type": "function"
    },
    {
      "inputs": [
        {
          "components": [
            {
              "internalType": "bytes32",
              "name": "uid",
              "type": "bytes32"
            },
            {
              "internalType": "bytes32",
              "name": "schema",
              "type": "bytes32"
            },
            {
              "internalType": "uint64",
              "name": "time",
              "type": "uint64"
            },
            {
              "internalType": "uint64",
              "name": "expirationTime",
              "type": "uint64"
            },
            {
              "internalType": "uint64",
              "name": "revocationTime",
              "type": "uint64"
            },
            {
              "internalType": "bytes32",
              "name": "refUID",
              "type": "bytes32"
            },
            {
              "internalType": "address",
              "name": "recipient",
              "type": "address"
            },
            {
              "internalType": "address",
              "name": "attester",
              "type": "address"
            },
            {
              "internalType": "bool",
              "name": "revocable",
              "type": "bool"
            },
            {
              "internalType": "bytes",
              "name": "data",
              "type": "bytes"
            }
          ],
          "internalType": "struct Attestation[]",
          "name": "attestations",
          "type": "tuple[]"
        },
        {
          "internalType": "uint256[]",
          "name": "values",
          "type": "uint256[]"
        }
      ],
      "name": "multiRevoke",
      "outputs": [
        {
          "internalType": "bool",
          "name": "",
          "type": "bool"
        }
      ],
      "stateMutability": "payable",
      "type": "function"
    },
    {
      "inputs": [
        {
          "components": [
            {
              "internalType": "bytes32",
              "name": "uid",
              "type": "bytes32"
            },
            {
              "internalType": "bytes32",
              "name": "schema",
              "type": "bytes32"
            },
            {
              "internalType": "uint64",
              "name": "time",
              "type": "uint64"
            },
            {
              "internalType": "uint64",
              "name": "expirationTime",
              "type": "uint64"
            },
            {
              "internalType": "uint64",
              "name": "revocationTime",
              "type": "uint64"
            },
            {
              "internalType": "bytes32",
              "name": "refUID",
              "type": "bytes32"
            },
            {
              "internalType": "address",
              "name": "recipient",
              "type": "address"
            },
            {
              "internalType": "address",
              "name": "attester",
              "type": "address"
            },
            {
              "internalType": "bool",
              "name": "revocable",
              "type": "bool"
            },
            {
              "internalType": "bytes",
              "name": "data",
              "type": "bytes"
            }
          ],
          "internalType": "struct Attestation",
          "name": "attestation",
          "type": "tuple"
        }
      ],
      "name": "revoke",
      "outputs": [
        {
          "internalType": "bool",
          "name": "",
          "type": "bool"
        }
      ],
      "stateMutability": "payable",
      "type": "function"
    },
    {
      "inputs": [],
      "name": "version",
      "outputs": [
        {
          "internalType": "string",
          "name": "",
          "type": "string"
        }
      ],
      "stateMutability": "view",
      "type": "function"
    },
    {
      "stateMutability": "payable",
      "type": "receive"
    }
  ],
  "transactionHash": "0x599229c09b1af2510a7bd361bfde5600c640ff0b8f72cf764f8201819824198d",
  "args": [
    "0xC2679fBD37d54388Ce493F1DB75320D236e1815e"
  ],
  "solcInputHash": "7424cf1d574d830d27aca981d0d90494",
  "bytecode": "0x61010060405234801561001157600080fd5b50604051610de4380380610de48339810160408190526100309161008b565b6001608052600060a081905260c052806001600160a01b038116610067576040516341bc07ff60e11b815260040160405180910390fd5b6001600160a01b031660e05250600180546001600160a01b031916331790556100bb565b60006020828403121561009d57600080fd5b81516001600160a01b03811681146100b457600080fd5b9392505050565b60805160a05160c05160e051610cf06100f460003960006106d8015260006102fe015260006102d5015260006102ac0152610cf06000f3fe6080604052600436106100b55760003560e01c8063ce46e04611610069578063e5c5e9a31161004e578063e5c5e9a3146101bb578063e60c3505146101a8578063f90982b7146101fe57600080fd5b8063ce46e04614610194578063e49617e1146101a857600080fd5b806388e5b2d91161009a57806388e5b2d91461013e5780638d854ef21461016157806391db0b7e1461018157600080fd5b806307a44da3146100f357806354fd4d501461011357600080fd5b366100ee576040517f1574f9f300000000000000000000000000000000000000000000000000000000815260040160405180910390fd5b005b600080fd5b3480156100ff57600080fd5b506100ec61010e3660046107d2565b61021e565b34801561011f57600080fd5b506101286102a5565b6040516101359190610841565b60405180910390f35b61015161014c3660046108c0565b610348565b6040519015158152602001610135565b34801561016d57600080fd5b506100ec61017c3660046107d2565b6103f7565b61015161018f3660046108c0565b61047c565b3480156101a057600080fd5b506000610151565b6101516101b636600461092c565b610503565b3480156101c757600080fd5b506101db6101d63660046109de565b61051d565b604080516001600160a01b03909316835262ffffff909116602083015201610135565b34801561020a57600080fd5b506101516102193660046107d2565b610540565b610229338383610540565b6102665760405162461bcd60e51b81526020600482015260096024820152682737ba1030b236b4b760b91b60448201526064015b60405180910390fd5b6001600160a01b0391821660009081526020818152604080832062ffffff9094168352928152828220949093168152929091529020805460ff19169055565b60606102d07f0000000000000000000000000000000000000000000000000000000000000000610598565b6102f97f0000000000000000000000000000000000000000000000000000000000000000610598565b6103227f0000000000000000000000000000000000000000000000000000000000000000610598565b60405160200161033493929190610a5e565b604051602081830303815290604052905090565b60006103526106cd565b833460005b828110156103e757600086868381811061037357610373610ad4565b9050602002013590508281111561039d5760405163044044a560e21b815260040160405180910390fd5b6103ca8989848181106103b2576103b2610ad4565b90506020028101906103c49190610aea565b82610731565b6103db5760009450505050506103ef565b90910390600101610357565b506001925050505b949350505050565b610402338383610540565b61043a5760405162461bcd60e51b81526020600482015260096024820152682737ba1030b236b4b760b91b604482015260640161025d565b6001600160a01b0391821660009081526020818152604080832062ffffff9094168352928152828220949093168152929091529020805460ff19166001179055565b60006104866106cd565b833460005b828110156103e75760008686838181106104a7576104a7610ad4565b905060200201359050828111156104d15760405163044044a560e21b815260040160405180910390fd5b6104e68989848181106103b2576103b2610ad4565b6104f75760009450505050506103ef565b9091039060010161048b565b600061050d6106cd565b6105178234610731565b92915050565b600080828060200190518101906105349190610b0b565b50919590945092505050565b6001600160a01b0380831660009081526020818152604080832062ffffff86168452825280832093871683529290529081205460ff16600114806103ef57506001546001600160a01b03858116911614949350505050565b6060816000036105db57505060408051808201909152600181527f3000000000000000000000000000000000000000000000000000000000000000602082015290565b8160005b811561060557806105ef81610bd9565b91506105fe9050600a83610c08565b91506105df565b60008167ffffffffffffffff8111156106205761062061096f565b6040519080825280601f01601f19166020018201604052801561064a576020820181803683370190505b5090505b84156103ef5761065f600183610c1c565b915061066c600a86610c2f565b610677906030610c43565b60f81b81838151811061068c5761068c610ad4565b60200101907effffffffffffffffffffffffffffffffffffffffffffffffffffffffffffff1916908160001a9053506106c6600a86610c08565b945061064e565b336001600160a01b037f0000000000000000000000000000000000000000000000000000000000000000161461072f576040517f4ca8886700000000000000000000000000000000000000000000000000000000815260040160405180910390fd5b565b60008080610780610746610120870187610c56565b8080601f01602080910402602001604051908101604052809392919081815260200183838082843760009201919091525061051d92505050565b90925090506107a0610799610100870160e08801610c9d565b8383610540565b95945050505050565b6001600160a01b03811681146107be57600080fd5b50565b62ffffff811681146107be57600080fd5b6000806000606084860312156107e757600080fd5b83356107f2816107a9565b92506020840135610802816107a9565b91506040840135610812816107c1565b809150509250925092565b60005b83811015610838578181015183820152602001610820565b50506000910152565b602081526000825180602084015261086081604085016020870161081d565b601f01601f19169190910160400192915050565b60008083601f84011261088657600080fd5b50813567ffffffffffffffff81111561089e57600080fd5b6020830191508360208260051b85010111156108b957600080fd5b9250929050565b600080600080604085870312156108d657600080fd5b843567ffffffffffffffff808211156108ee57600080fd5b6108fa88838901610874565b9096509450602087013591508082111561091357600080fd5b5061092087828801610874565b95989497509550505050565b60006020828403121561093e57600080fd5b813567ffffffffffffffff81111561095557600080fd5b8201610140818503121561096857600080fd5b9392505050565b634e487b7160e01b600052604160045260246000fd5b604051601f8201601f1916810167ffffffffffffffff811182821017156109ae576109ae61096f565b604052919050565b600067ffffffffffffffff8211156109d0576109d061096f565b50601f01601f191660200190565b6000602082840312156109f057600080fd5b813567ffffffffffffffff811115610a0757600080fd5b8201601f81018413610a1857600080fd5b8035610a2b610a26826109b6565b610985565b818152856020838501011115610a4057600080fd5b81602084016020830137600091810160200191909152949350505050565b60008451610a7081846020890161081d565b80830190507f2e000000000000000000000000000000000000000000000000000000000000008082528551610aac816001850160208a0161081d565b60019201918201528351610ac781600284016020880161081d565b0160020195945050505050565b634e487b7160e01b600052603260045260246000fd5b6000823561013e19833603018112610b0157600080fd5b9190910192915050565b60008060008060808587031215610b2157600080fd5b8451610b2c816107a9565b6020860151909450610b3d816107c1565b604086015190935067ffffffffffffffff811115610b5a57600080fd5b8501601f81018713610b6b57600080fd5b8051610b79610a26826109b6565b818152886020838501011115610b8e57600080fd5b610b9f82602083016020860161081d565b80945050505060608501518015158114610bb857600080fd5b939692955090935050565b634e487b7160e01b600052601160045260246000fd5b600060018201610beb57610beb610bc3565b5060010190565b634e487b7160e01b600052601260045260246000fd5b600082610c1757610c17610bf2565b500490565b8181038181111561051757610517610bc3565b600082610c3e57610c3e610bf2565b500690565b8082018082111561051757610517610bc3565b6000808335601e19843603018112610c6d57600080fd5b83018035915067ffffffffffffffff821115610c8857600080fd5b6020019150368190038213156108b957600080fd5b600060208284031215610caf57600080fd5b8135610968816107a956fea26469706673582212200f5ec3f21d2f176c1dfb2ad6e4feb903f88a99d350e5bf28b2ede639aca733dc64736f6c63430008130033",
  "devdoc": {
    "kind": "dev",
    "methods": {
      "attest((bytes32,bytes32,uint64,uint64,uint64,bytes32,address,address,bool,bytes))": {
        "details": "Processes an attestation and verifies whether it's valid.",
        "params": {
          "attestation": "The new attestation."
        },
        "returns": {
          "_0": "Whether the attestation is valid."
        }
      },
      "isPayable()": {
        "details": "Returns whether the resolver supports ETH transfers."
      },
      "multiAttest((bytes32,bytes32,uint64,uint64,uint64,bytes32,address,address,bool,bytes)[],uint256[])": {
        "details": "Processes multiple attestations and verifies whether they are valid.",
        "params": {
          "attestations": "The new attestations.",
          "values": "Explicit ETH amounts which were sent with each attestation."
        },
        "returns": {
          "_0": "Whether all the attestations are valid."
        }
      },
      "multiRevoke((bytes32,bytes32,uint64,uint64,uint64,bytes32,address,address,bool,bytes)[],uint256[])": {
        "details": "Processes revocation of multiple attestation and verifies they can be revoked.",
        "params": {
          "attestations": "The existing attestations to be revoked.",
          "values": "Explicit ETH amounts which were sent with each revocation."
        },
        "returns": {
          "_0": "Whether the attestations can be revoked."
        }
      },
      "revoke((bytes32,bytes32,uint64,uint64,uint64,bytes32,address,address,bool,bytes))": {
        "details": "Processes an attestation revocation and verifies if it can be revoked.",
        "params": {
          "attestation": "The existing attestation to be revoked."
        },
        "returns": {
          "_0": "Whether the attestation can be revoked."
        }
      },
      "version()": {
        "returns": {
          "_0": "Semver contract version as a string."
        }
      }
    },
    "version": 1
  },
  "userdoc": {
    "kind": "user",
    "methods": {
      "decode(bytes)": {
        "notice": "Decodes the schema"
      },
      "version()": {
        "notice": "Returns the full semver contract version."
      }
    },
    "version": 1
  },
  "storageLayout": {
    "storage": [
      {
        "astId": 3067,
        "contract": "contracts/EASResolver/ProposalGatingResolver.sol:ProposalGatingResolver",
        "label": "daoAdmins",
        "offset": 0,
        "slot": "0",
        "type": "t_mapping(t_address,t_mapping(t_uint24,t_mapping(t_address,t_uint8)))"
      },
      {
        "astId": 3069,
        "contract": "contracts/EASResolver/ProposalGatingResolver.sol:ProposalGatingResolver",
        "label": "_owner",
        "offset": 0,
        "slot": "1",
        "type": "t_address"
      }
    ],
    "types": {
      "t_address": {
        "encoding": "inplace",
        "label": "address",
        "numberOfBytes": "20"
      },
      "t_mapping(t_address,t_mapping(t_uint24,t_mapping(t_address,t_uint8)))": {
        "encoding": "mapping",
        "key": "t_address",
        "label": "mapping(address => mapping(uint24 => mapping(address => uint8)))",
        "numberOfBytes": "32",
        "value": "t_mapping(t_uint24,t_mapping(t_address,t_uint8))"
      },
      "t_mapping(t_address,t_uint8)": {
        "encoding": "mapping",
        "key": "t_address",
        "label": "mapping(address => uint8)",
        "numberOfBytes": "32",
        "value": "t_uint8"
      },
      "t_mapping(t_uint24,t_mapping(t_address,t_uint8))": {
        "encoding": "mapping",
        "key": "t_uint24",
        "label": "mapping(uint24 => mapping(address => uint8))",
        "numberOfBytes": "32",
        "value": "t_mapping(t_address,t_uint8)"
      },
      "t_uint24": {
        "encoding": "inplace",
        "label": "uint24",
        "numberOfBytes": "3"
      },
      "t_uint8": {
        "encoding": "inplace",
        "label": "uint8",
        "numberOfBytes": "1"
      }
    }
  }
}