{
  "address": "0xB360207b3FdB04f931ABE4490bb0D62A2438d3DE",
  "abi": [
    {
      "inputs": [
        {
          "internalType": "address payable",
          "name": "_schemaResolver",
          "type": "address"
        },
        {
          "internalType": "address payable",
          "name": "_githubResolver",
          "type": "address"
        }
      ],
      "stateMutability": "nonpayable",
      "type": "constructor"
    },
    {
      "inputs": [],
      "name": "_owner",
      "outputs": [
        {
          "internalType": "address",
          "name": "",
          "type": "address"
        }
      ],
      "stateMutability": "view",
      "type": "function"
    },
    {
      "inputs": [
        {
          "internalType": "address",
          "name": "tokenOwner",
          "type": "address"
        },
        {
          "internalType": "string",
          "name": "nftName",
          "type": "string"
        },
        {
          "internalType": "string",
          "name": "repository",
          "type": "string"
        },
        {
          "internalType": "uint256",
          "name": "tokenId",
          "type": "uint256"
        }
      ],
      "name": "formatTokenURI",
      "outputs": [
        {
          "internalType": "string",
          "name": "",
          "type": "string"
        }
      ],
      "stateMutability": "view",
      "type": "function"
    },
    {
      "inputs": [
        {
          "internalType": "uint256",
          "name": "prCount",
          "type": "uint256"
        }
      ],
      "name": "generateAvatar",
      "outputs": [
        {
          "internalType": "string",
          "name": "svg",
          "type": "string"
        }
      ],
      "stateMutability": "pure",
      "type": "function"
    },
    {
      "inputs": [
        {
          "internalType": "uint256",
          "name": "prCount",
          "type": "uint256"
        }
      ],
      "name": "generateAvatarChain",
      "outputs": [
        {
          "internalType": "string",
          "name": "svg",
          "type": "string"
        }
      ],
      "stateMutability": "pure",
      "type": "function"
    },
    {
      "inputs": [
        {
          "internalType": "uint256",
          "name": "prCount",
          "type": "uint256"
        }
      ],
      "name": "generateBackground",
      "outputs": [
        {
          "internalType": "string",
          "name": "svg",
          "type": "string"
        }
      ],
      "stateMutability": "pure",
      "type": "function"
    },
    {
      "inputs": [
        {
          "internalType": "string",
          "name": "username",
          "type": "string"
        },
        {
          "internalType": "uint256",
          "name": "prCount",
          "type": "uint256"
        },
        {
          "internalType": "string",
          "name": "repository",
          "type": "string"
        }
      ],
      "name": "generateCard",
      "outputs": [
        {
          "internalType": "string",
          "name": "svg",
          "type": "string"
        }
      ],
      "stateMutability": "pure",
      "type": "function"
    },
    {
      "inputs": [],
      "name": "githubResolver",
      "outputs": [
        {
          "internalType": "contract GithubLinkResolver",
          "name": "",
          "type": "address"
        }
      ],
      "stateMutability": "view",
      "type": "function"
    },
    {
      "inputs": [
        {
          "internalType": "address",
          "name": "tokenOwner",
          "type": "address"
        },
        {
          "internalType": "string",
          "name": "repository",
          "type": "string"
        }
      ],
      "name": "imageURI",
      "outputs": [
        {
          "internalType": "string",
          "name": "",
          "type": "string"
        }
      ],
      "stateMutability": "view",
      "type": "function"
    },
    {
      "inputs": [
        {
          "internalType": "address",
          "name": "tokenOwner",
          "type": "address"
        },
        {
          "internalType": "string",
          "name": "repository",
          "type": "string"
        }
      ],
      "name": "isEligibleToMint",
      "outputs": [
        {
          "internalType": "bool",
          "name": "",
          "type": "bool"
        }
      ],
      "stateMutability": "view",
      "type": "function"
    },
    {
      "inputs": [],
      "name": "nftCounter",
      "outputs": [
        {
          "internalType": "uint256",
          "name": "",
          "type": "uint256"
        }
      ],
      "stateMutability": "view",
      "type": "function"
    },
    {
      "inputs": [],
      "name": "schemaResolver",
      "outputs": [
        {
          "internalType": "contract DevSchemaResolver",
          "name": "",
          "type": "address"
        }
      ],
      "stateMutability": "view",
      "type": "function"
    }
  ],
  "transactionHash": "0xbc737bec8910b1b2f85c0281fb96e0cad8fb12867d1f4bdc3e50dc81728f8add",
  "args": [
    "0x47Fc0eB55A0Be616Fd68E4d99cff6304457dFA69",
    "0x088D11816A414015333c338dEE0644aA69a338B4"
  ],
  "solcInputHash": "844570a6f7ff10ead53c08f59bc87001",
  "bytecode": "0x6080346200009e57601f620031d238819003918201601f19168301916001600160401b03831184841017620000a35780849260409485528339810103126200009e576200005a60206200005283620000b9565b9201620000b9565b6000805560018060a01b03908160018060a01b0319931683600154161760015516816002541617600255339060035416176003556040516131039081620000cf8239f35b600080fd5b634e487b7160e01b600052604160045260246000fd5b51906001600160a01b03821682036200009e5756fe6080604052600436101561001257600080fd5b60003560e01c80630bc1d646146100c75780633c45a45b146100c25780634b864d7c146100bd5780636cb7ed09146100b8578063701b854d146100b35780637b6d521a146100ae5780637dd75e72146100a9578063a637f87c146100a4578063b2bdfa7b1461009f578063d0efc89e1461009a5763e574609e1461009557600080fd5b6106b7565b610693565b61066c565b61064d565b610379565b61035f565b6102e2565b6102bb565b61025f565b610164565b610128565b60005b8381106100df5750506000910152565b81810151838201526020016100cf565b90602091610108815180928185528580860191016100cc565b601f01601f1916010190565b9060206101259281815201906100ef565b90565b3461015f57602036600319011261015f5761015b610147600435612bb7565b6040519182916020835260208301906100ef565b0390f35b600080fd5b3461015f57602036600319011261015f5761015b6101476004356117ab565b634e487b7160e01b600052604160045260246000fd5b6040810190811067ffffffffffffffff8211176101b557604052565b610183565b90601f8019910116810190811067ffffffffffffffff8211176101b557604052565b604051906080820182811067ffffffffffffffff8211176101b557604052565b67ffffffffffffffff81116101b557601f01601f191660200190565b81601f8201121561015f5780359061022f826101fc565b9261023d60405194856101ba565b8284526020838301011161015f57816000926020809301838601378301015290565b3461015f57606036600319011261015f5767ffffffffffffffff60043581811161015f57610291903690600401610218565b9060443590811161015f5761015b916102b1610147923690600401610218565b906024359061145e565b3461015f57600036600319011261015f5760206001600160a01b0360015416604051908152f35b3461015f57600036600319011261015f5760206001600160a01b0360025416604051908152f35b600435906001600160a01b038216820361015f57565b90604060031983011261015f576004356001600160a01b038116810361015f57916024359067ffffffffffffffff821161015f5761012591600401610218565b3461015f5761015b6101476103733661031f565b90610dbd565b3461015f57608036600319011261015f57610392610309565b67ffffffffffffffff9060243582811161015f576103b4903690600401610218565b9160443590811161015f576103cd903690600401610218565b91816103da848094610c2b565b50506103e581610afc565b926103ef91610dbd565b6103fa6064356106eb565b610403906107b4565b916040519283916020830161041791610747565b7f2023000000000000000000000000000000000000000000000000000000000000815260020161044691610747565b0393601f1994858101845261045b90846101ba565b6040517f68747470733a2f2f6769746875622e636f6d2f0000000000000000000000000060208201529384916033830161049491610747565b7f3a20436f6e747269627574696f6e73206f66200000000000000000000000000081526013016104c391610747565b7f202d20706f7765726564206279204b61726d6120287777772e6b61726d61687181527f2e78797a29000000000000000000000000000000000000000000000000000000602082015260250103848101845261051f90846101ba565b6040517f7b226e616d65223a22000000000000000000000000000000000000000000000060208201529283926029840161055891610747565b7f222c20226465736372697074696f6e223a220000000000000000000000000000815260120161058791610747565b7f222c202261747472696275746573223a2222202c2022696d616765223a2200008152601e016105b691610747565b7f227d00000000000000000000000000000000000000000000000000000000000081526002010382810182526105ec90826101ba565b6105f590610990565b6040517f646174613a6170706c69636174696f6e2f6a736f6e3b6261736536342c000000602082015291908290603d820161062f91610747565b03908101825261063f90826101ba565b60405161015b819282610114565b3461015f57602036600319011261015f5761015b610147600435610f39565b3461015f57600036600319011261015f5760206001600160a01b0360035416604051908152f35b3461015f5760206106ac6106a63661031f565b90610c2b565b506040519015158152f35b3461015f57600036600319011261015f576020600054604051908152f35b634e487b7160e01b600052601160045260246000fd5b90811560018380041417156106fc57565b6106d5565b908160021b917f3fffffffffffffffffffffffffffffffffffffffffffffffffffffffffffffff8116036106fc57565b906032820291808304603214901517156106fc57565b9061075a602092828151948592016100cc565b0190565b604051906020820182811067ffffffffffffffff8211176101b55760405260008252565b9061078c826101fc565b61079960405191826101ba565b82815280926107aa601f19916101fc565b0190602036910137565b806000917a184f03e93ff9f4daa797ed6e38ed64bf6a1f010000000000000000808210156108f6575b506d04ee2d6d415b85acef8100000000808310156108e7575b50662386f26fc10000808310156108d8575b506305f5e100808310156108c9575b50612710808310156108ba575b5060648210156108aa575b600a809210156108a0575b60019081602161084b828701610782565b95860101905b61085d575b5050505090565b600019019083907f30313233343536373839616263646566000000000000000000000000000000008282061a83530491821561089b57919082610851565b610856565b916001019161083a565b919060646002910491019161082f565b60049193920491019138610824565b60089193920491019138610817565b60109193920491019138610808565b602091939204910191386107f6565b6040935081049150386107dd565b604051906060820182811067ffffffffffffffff8211176101b557604052604082527f6768696a6b6c6d6e6f707172737475767778797a303132333435363738392b2f6040837f4142434445464748494a4b4c4d4e4f505152535455565758595a61626364656660208201520152565b90600282018092116106fc57565b90602082018092116106fc57565b805115610aa55761099f610904565b6109bb6109b66109af8451610974565b6003900490565b610701565b916109cd6109c884610982565b610782565b92835280815182019060208501935b828210610a5357505050600390510680600114610a28576002146109fe575090565b7f3d0000000000000000000000000000000000000000000000000000000000000090600019015290565b507f3d3d00000000000000000000000000000000000000000000000000000000000090600119015290565b9091936004906003809401938451600190603f9082828260121c16880101518553828282600c1c16880101518386015382828260061c16880101516002860153168501015190820153019391906109dc565b5061012561075e565b81601f8201121561015f578051610ac4816101fc565b92610ad260405194856101ba565b8184526020828401011161015f5761012591602080850191016100cc565b6040513d6000823e3d90fd5b6001600160a01b039081600254166040519283927f67e31b5500000000000000000000000000000000000000000000000000000000845216600483015281602460009384935afa918215610b9b578192610b5557505090565b909291503d8084833e610b6881836101ba565b810190602081830312610b975780519067ffffffffffffffff8211610b935761012593945001610aae565b8480fd5b8380fd5b610af0565b15610ba757565b60846040517f08c379a000000000000000000000000000000000000000000000000000000000815260206004820152602360248201527f5573657220646f65736e2774206861766520616e7920636f6e7472696275746960448201527f6f6e7300000000000000000000000000000000000000000000000000000000006064820152fd5b90610c84610c3c610c9e9493610afc565b916001600160a01b036001541660409182519384917f051450da00000000000000000000000000000000000000000000000000000000835284600484015260448301906100ef565b9160031982840301602483015281806000998a95896100ef565b03915afa948515610b9b578095610cc5575b505050610cbf90511515610ba0565b81519190565b90919294503d8082853e610cd981856101ba565b8301906020928385840312610db557845167ffffffffffffffff95868211610b9757019280601f85011215610db9578351958087116101b5578660051b93835197610d268887018a6101ba565b8852868089019587010195838711610db557878101955b878710610d5a57505050505050505050610cbf9092903880610cb0565b8651848111610b9757820186601f198288030112610b9757865190610d7e82610199565b8a81015182528781015190868211610db15791610da2888d80969481960101610aae565b83820152815201960195610d3d565b8580fd5b5080fd5b8280fd5b9061012590610f2b610f02610ddb83610dd587610afc565b96610c2b565b50610efc610e05610deb83610f39565b95610df5846117ab565b93610dff81612bb7565b9961145e565b9660bf6040519889977f646174613a696d6167652f7376672b786d6c3b757466382c203c73766720776960208a01527f6474683d223130303022206865696768743d2231303030222076696577426f7860408a01527f3d22302030203130303020313030302220786d6c6e733d22687474703a2f2f7760608a01527f77772e77332e6f72672f323030302f7376672220786d6c6e733a786c696e6b3d60808a01527f22687474703a2f2f7777772e77332e6f72672f313939392f786c696e6b223e0060a08a0152610edf815180926020868d0191016100cc565b8801610ef482518093602086850191016100cc565b010190610747565b90610747565b7f3c2f7376673e0000000000000000000000000000000000000000000000000000815260060190565b03601f1981018352826101ba565b6004811015610ff55750610f8460005b604051610f5581610199565b600581527f677265656e0000000000000000000000000000000000000000000000000000006020820152611162565b610125604b60405180937f3c726563742077696474683d223130303022206865696768743d223130303022602083015266103334b6361e9160c91b6040830152610fd88151809260206047860191016100cc565b8101631110179f60e11b604782015203602b8101845201826101ba565b600481118061103f575b1561100f5750610f846001610f49565b600881119081611034575b501561102a57610f846002610f49565b610f846003610f49565b60079150103861101a565b5060088110610fff565b60ff039060ff82116106fc57565b6040519061106482610199565b600d82527f3235302c203233372c20323337000000000000000000000000000000000000006020830152565b6040519061109d82610199565b600d82527f3234322c203233372c20323530000000000000000000000000000000000000006020830152565b604051906110d682610199565b600d82527f3233372c203235302c20323430000000000000000000000000000000000000006020830152565b6040519061110f82610199565b600d82527f3235302c203233372c20323433000000000000000000000000000000000000006020830152565b90600481101561114c5760051b0190565b634e487b7160e01b600052603260045260246000fd5b61012590610f2b611245610efc94606090845160208096012090600181106000146113b657506001905b6111a56111a061119b84610731565b611049565b6107b4565b907ff99e8d094ee97e7be9a3d7269f09f9996041160cc5c134b6a863be5b0ce9b5bd810361126e57505061121191506111dc6101dc565b6111e4611057565b81526111ee611090565b868201526111fa6110c9565b6040820152611207611102565b606082015261113b565b515b60405195869485016004907f726762280000000000000000000000000000000000000000000000000000000081520190565b7f2900000000000000000000000000000000000000000000000000000000000000815260010190565b9091507f27617207effe6bfd81a3e2b21d8a20c4e622b23e5422d607771b4f8b8ba006fa81036112dd5750610f2b91506112d890604051928391610efc8884016008907f3234312c3235352c00000000000000000000000000000000000000000000000081520190565b611213565b7f9556cb7cbc30102cf4b9d59a768a00c66490eb985d62a29a2cf323bd26e1edf281036113445750610f2b91506112d890604051928391610efc8884016008907f3235352c3235352c00000000000000000000000000000000000000000000000081520190565b7ffa187c1e7b6b42ab8b2d9415ab7e6b1e71b551fcdc8151ebafe46e40a10d90ad14611371575b50611213565b610f2b91506113b090604051928391610efc8884016004907f302c302c0000000000000000000000000000000000000000000000000000000081520190565b3861136b565b9061118c565b60038110156113cb5750600090565b6003811180611406575b156113e05750600190565b6006811190816113fb575b50156113f657600290565b600390565b6006915010386113eb565b50600681106113d5565b600281101561141f5750600090565b6002811180611454575b156114345750600190565b6004811190816114495750156113f657600290565b6005915010386113eb565b5060048110611429565b818004600114821517156106fc57610f2b6117106115fd610efc95610efc61169b6115fd60b697610efc6116266115fd61149a6101259d6107b4565b936040519e8f9d8e7f3c7265637420783d2234322220793d22373238222077696474683d223933322260208201527f206865696768743d22323436222072783d223234222066696c6c3d227267622860408201527f33382c32362c353929222f3e000000000000000000000000000000000000000060608201527f3c746578742066696c6c3d2277686974652220666f6e742d66616d696c793d22606c8201527f4669726120436f64652220666f6e742d73697a653d2233322220783d22323533608c8201527f2220793d22373736223e0000000000000000000000000000000000000000000060ac820152016052907f3c747370616e2064783d223630222064793d223135223e436f6e74726962757481527f6f723a3c2f747370616e3e3c747370616e2064783d223230222066696c6c3d2260208201527f726762283234362c3131322c31393929223e000000000000000000000000000060408201520190565b7f3c2f747370616e3e000000000000000000000000000000000000000000000000815260080190565b7f3c747370616e20783d22323535222064793d223435223e546f74616c206e6f2e81527f206f66205052733a3c2f747370616e3e203c747370616e2064783d223230222060208201527f66696c6c3d22726762283135332c3234362c32323429223e0000000000000000604082015260580190565b7f3c747370616e20783d22333235222064793d223435223e5265706f7369746f7281527f793a3c2f747370616e3e3c747370616e2064783d223230222066696c6c3d227260208201527f6762283232312c3231342c32353429223e000000000000000000000000000000604082015260510190565b7f3c2f746578743e00000000000000000000000000000000000000000000000000815260070190565b6040519061174682610199565b600582527f77686974650000000000000000000000000000000000000000000000000000006020830152565b6040519061177f82610199565b600482527f626c7565000000000000000000000000000000000000000000000000000000006020830152565b6117b4816113bc565b6117bc611739565b906117c691611162565b906117d090611410565b6117d8611772565b906117e291611162565b90604051918291602083016119259060f9907f3c7061746820643d226d3230312e3235203532342e39762d3234312e3037683181527f372e373335762d3132322e38336833312e3533762d33372e3434326836382e3360208201527f31357633312e35336833312e3532397634302e373236683230362e3932762d3160408201527f382e3339336831312e313636762d33302e323136683130392e30347633302e3260608201527f31366833342e3831347636332e3036682d33342e3831347633312e353368333460808201527f2e383134763234372e3634682d35332e3230367633322e383434682d33302e3860a08201527f37337634322e363936682d3334362e3137762d33352e343731682d33312e353360c08201527f762d33342e383134682d34392e3236357a222066696c6c3d220000000000000060e08201520190565b61192e91610747565b6211179f60e91b81526003017f3c7265637420783d223331382e38322220793d223337352e373922207769647481527f683d223233362e343722206865696768743d2236392e363238222066696c6c3d60208201527f22726762283233342c203233362c2032343529222f3e0000000000000000000060408201526056017f3c7265637420783d223335322e39382220793d223430392e393522207769647481527f683d223137302e373922206865696768743d2236392e363238222066696c6c3d60208201527f22726762283233342c203233362c2032343529222f3e0000000000000000000060408201526056017f3c7265637420783d223338372e31342220793d223434322e382220776964746881527f3d223130322e343722206865696768743d2236392e363238222066696c6c3d2260208201527f726762283233342c203233362c2032343529222f3e000000000000000000000060408201526055017f3c7265637420783d223231382e39382220793d223234302e343822207769647481527f683d2233312e34383122206865696768743d2233312e343831222066696c6c3d6020820152601160f91b6040820152604101611af09082610747565b6211179f60e91b81526003017f3c7265637420783d223231382e39382220793d223134372e322220776964746881527f3d2233312e34383122206865696768743d2233312e343831222066696c6c3d226020820152604001611b529082610747565b6211179f60e91b81526003017f3c7265637420783d223331382e38332220793d223134372e322220776964746881527f3d2233312e34383122206865696768743d2233312e343831222066696c6c3d226020820152604001611bb49082610747565b6211179f60e91b81526003017f3c7265637420783d223138372e34352220793d223137372e343222207769647481527f683d2233312e353322206865696768743d2236332e3036222066696c6c3d22006020820152603f01611c169082610747565b6211179f60e91b81526003017f3c7265637420783d223238372e332220793d223137372e34322220776964746881527f3d2233312e353322206865696768743d2236332e3036222066696c6c3d2200006020820152603e01611c789082610747565b6211179f60e91b81526003017f3c7265637420783d223235302e35312220793d223230382e393522207769647481527f683d2236382e33313522206865696768743d2233312e3533222066696c6c3d226020820152604001611cda9082610747565b6211179f60e91b81526003017f3c7265637420783d223338372e31342220793d223431312e323622207769647481527f683d2236382e33313522206865696768743d2233312e3533222066696c6c3d226020820152604001611d3c9082610747565b6211179f60e91b81526003017f3c7265637420783d223432312e332220793d223431312e32362220776964746881527f3d2236382e33313522206865696768743d2233312e3533222066696c6c3d22006020820152603f01611d9e9082610747565b6211179f60e91b81526003017f3c72656374207472616e73666f726d3d22726f74617465282d3930203331382e81527f3833203431312e3236292220783d223331382e38332220793d223431312e323660208201527f222077696474683d2236382e33313522206865696768743d2233312e353322206040820152653334b6361e9160d11b6060820152606601611e359082610747565b6211179f60e91b81526003017f3c72656374207472616e73666f726d3d22726f74617465282d3930203532332e81527f3737203431312e3236292220783d223532332e37372220793d223431312e323660208201527f222077696474683d2236382e33313522206865696768743d2233312e353322206040820152653334b6361e9160d11b6060820152606601611ecc9082610747565b6211179f60e91b81526003017f3c72656374207472616e73666f726d3d22726f74617465282d3930203432322e81527f3631203437392e3538292220783d223432322e36312220793d223437392e353860208201527f222077696474683d2236382e33313522206865696768743d2233312e353322206040820152653334b6361e9160d11b6060820152606601611f639082610747565b6211179f60e91b81526003017f3c7265637420783d223335302e33362220793d223137372e343222207769647481527f683d223231302e3222206865696768743d2233312e3533222066696c6c3d22006020820152603f01611fc59082610747565b6211179f60e91b81526003017f3c7265637420783d223238302e37332220793d223537312e353422207769647481527f683d223231342e313422206865696768743d2233312e3533222066696c6c3d2260208201526040016120279082610747565b6211179f60e91b81526003017f3c7265637420783d223235302e35312220793d223131352e363722207769647481527f683d2236382e33313522206865696768743d2233312e3533222066696c6c3d2260208201526040016120899082610747565b6211179f60e91b81526003017f3c7265637420783d223231382e39382220793d223530382e343822207769647481527f683d2233312e34383122206865696768743d2233312e343831222066696c6c3d6020820152601160f91b60408201526041016120f59082610747565b6211179f60e91b81526003017f3c7265637420783d223235302e35312220793d223534302e303122207769647481527f683d2233312e34383122206865696768743d2233312e343831222066696c6c3d6020820152601160f91b60408201526041016121619082610747565b6211179f60e91b81526003017f3c7265637420783d223138372e34352220793d223237322e303122207769647481527f683d2233312e353322206865696768743d22323638222066696c6c3d220000006020820152603d016121c39082610747565b6211179f60e91b81526003016000805160206130ae83398151915281527f203639302e3631203234302e343829222077696474683d2233312e343831222060208201527f6865696768743d2233312e343831222066696c6c3d220000000000000000000060408201526056016122399082610747565b6211179f60e91b81526003016000805160206130ae83398151915281527f203639302e3631203134372e3229222077696474683d2233312e34383122206860208201527f65696768743d2233312e343831222066696c6c3d22000000000000000000000060408201526055016122af9082610747565b6211179f60e91b81526003016000805160206130ae83398151915281527f203539302e3737203134372e3229222077696474683d2233312e34383122206860208201527f65696768743d2233312e343831222066696c6c3d22000000000000000000000060408201526055016123259082610747565b6211179f60e91b81526003016000805160206130ae83398151915281527f203732322e3134203137372e343229222077696474683d2233312e353322206860208201527f65696768743d2236332e3036222066696c6c3d22000000000000000000000000604082015260540161239b9082610747565b6211179f60e91b81526003016000805160206130ae83398151915281527f203632322e33203137372e343229222077696474683d2233312e35332220686560208201527f696768743d2236332e3036222066696c6c3d220000000000000000000000000060408201526053016124119082610747565b6211179f60e91b81526003016000805160206130ae83398151915281527f203635392e3038203230382e393529222077696474683d2236382e333135222060208201527f6865696768743d2233312e3533222066696c6c3d22000000000000000000000060408201526055016124879082610747565b6211179f60e91b81526003016000805160206130ae83398151915281527f203535392e3234203137372e343229222077696474683d223231302e3222206860208201527f65696768743d2233312e3533222066696c6c3d2200000000000000000000000060408201526054016124fd9082610747565b6211179f60e91b81526003016000805160206130ae83398151915281527f203632382e3837203537312e353429222077696474683d223231342e3134222060208201527f6865696768743d2233312e3533222066696c6c3d22000000000000000000000060408201526055016125739082610747565b6211179f60e91b81526003016000805160206130ae83398151915281527f203635392e3038203131352e363729222077696474683d2236382e333135222060208201527f6865696768743d2233312e3533222066696c6c3d22000000000000000000000060408201526055016125e99082610747565b6211179f60e91b81526003016000805160206130ae83398151915281527f203639302e3631203530382e343829222077696474683d2233312e343831222060208201527f6865696768743d2233312e343831222066696c6c3d2200000000000000000000604082015260560161265f9082610747565b6211179f60e91b81526003016000805160206130ae83398151915281527f203635392e3038203534302e303129222077696474683d2233312e343831222060208201527f6865696768743d2233312e343831222066696c6c3d220000000000000000000060408201526056016126d59082610747565b6211179f60e91b81526003016000805160206130ae83398151915281527f203732322e3134203237322e303129222077696474683d2233312e353322206860208201527f65696768743d22323638222066696c6c3d220000000000000000000000000000604082015260520161274a91610747565b6211179f60e91b81526003017f3c7265637420783d223235302e35312220793d223234302e343822207769647481527f683d2236382e33313522206865696768743d2233312e3533222066696c6c3d2260208201527f726762283231332c203231372c2032333529222f3e000000000000000000000060408201526055017f3c7265637420783d223235302e35312220793d223530382e343822207769647481527f683d2233312e34383122206865696768743d2233312e343831222066696c6c3d60208201527f22726762283231332c203231372c2032333529222f3e0000000000000000000060408201526056017f3c7265637420783d223231382e39382220793d223230382e393522207769647481527f683d2233312e34383122206865696768743d2233312e343831222066696c6c3d60208201527f22726762283231332c203231372c2032333529222f3e0000000000000000000060408201526056017f3c7265637420783d223238322e30342220793d223534302e303122207769647481527f683d223334352e353122206865696768743d2233312e3533222066696c6c3d2260208201527f726762283231332c203231372c2032333529222f3e000000000000000000000060408201526055017f3c72656374207472616e73666f726d3d226d6174726978283120302030202d3181527f203632372e3536203330332e353429222077696474683d2233312e353322206860208201527f65696768743d2236332e3036222066696c6c3d22726762283231332c20323137604082015268161019199a9491179f60b91b60608201526069017f3c72656374207472616e73666f726d3d226d6174726978283120302030202d3181527f203635392e3038203234302e343829222077696474683d2233312e353322206860208201527f65696768743d2236332e3036222066696c6c3d22726762283231332c20323137604082015268161019199a9491179f60b91b60608201526069017f3c72656374207472616e73666f726d3d226d6174726978283120302030202d3181527f203539302e3737203237322e303129222077696474683d2236382e333135222060208201527f6865696768743d2233312e3533222066696c6c3d22726762283231332c2032316040820152691b961019199a9491179f60b11b6060820152606a016000805160206130ae83398151915281527f203635392e3034203530382e343829222077696474683d2233312e343831222060208201527f6865696768743d2233312e343831222066696c6c3d22726762283231332c203260408201527f31372c2032333529222f3e0000000000000000000000000000000000000000006060820152606b016000805160206130ae83398151915281527f203639302e3631203237322e303129222077696474683d2233312e353322206860208201527f65696768743d223233362e3437222066696c6c3d22726762283231332c2032316040820152691b961019199a9491179f60b11b6060820152606a015b03601f198101825261012590826101ba565b612bc090611410565b60405190612bcd82610199565b600682527f79656c6c6f7700000000000000000000000000000000000000000000000000006020830152612c0091611162565b604080517f3c7061746820643d226d3530362e3939203630332e31356832312e373735763260208201527f312e373735682d32312e3737347632312e373733682d32312e373735762d3231918101919091527f2e3737346832312e373734762d32312e3737347a6d2d3130342e35322030682d60608201527f32312e3737347632312e3737356832312e373734762d32312e3737357a6d302060808201527f32312e3737346832312e3737347632312e373734682d32312e373734762d323160a08201527f2e3737347a2220636c69702d72756c653d226576656e6f6464222066696c6c3d60c0820152601160f91b60e0820152908190612d0460e1830182610747565b7f222066696c6c2d72756c653d226576656e6f6464222f3e00000000000000000081526017017f3c72656374207472616e73666f726d3d22726f74617465282d3930203432322e81527f3038203639302e3234292220783d223432322e30382220793d223639302e323460208201527f222077696474683d2236352e33323322206865696768743d2232312e37373422604082015266103334b6361e9160c91b6060820152606701612db69082610747565b631110179f60e11b81526004017f3c72656374207472616e73666f726d3d22726f74617465282d3930203436352e81527f3632203639302e3234292220783d223436352e36322220793d223639302e323460208201527f222077696474683d2236352e33323322206865696768743d2232312e37373422604082015266103334b6361e9160c91b6060820152606701612e4f9082610747565b631110179f60e11b81526004017f3c7265637420783d223432322e30382220793d223632342e393222207769647481527f683d2236352e33323322206865696768743d2232312e373734222066696c6c3d6020820152601160f91b6040820152604101612ebc9082610747565b631110179f60e11b81526004017f3c7265637420783d223432322e30382220793d223636382e343722207769647481527f683d2236352e33323322206865696768743d2232312e373734222066696c6c3d6020820152601160f91b6040820152604101612f299082610747565b631110179f60e11b81526004017f3c7265637420783d223434332e38352220793d223731322e303222207769647481527f683d2234332e35343822206865696768743d2232312e373734222066696c6c3d6020820152601160f91b6040820152604101612f969082610747565b631110179f60e11b81526004017f3c7265637420783d223434332e38352220793d223733332e373922207769647481527f683d2234332e35343822206865696768743d2232312e373734222066696c6c3d6020820152601160f91b60408201526041016130039082610747565b631110179f60e11b81526004017f3c72656374207472616e73666f726d3d22726f74617465282d3930203434332e81527f3835203735352e3537292220783d223434332e38352220793d223735352e353760208201527f222077696474683d2236352e33323322206865696768743d2232312e37373422604082015266103334b6361e9160c91b606082015260670161309b91610747565b631110179f60e11b8152600401612ba556fe3c72656374207472616e73666f726d3d226d6174726978282d31203020302031a2646970667358221220c7df085c2f383895888202b3b4c7991f665180077958dddf3204dfe2a5f9ea7464736f6c63430008130033",
  "devdoc": {
    "kind": "dev",
    "methods": {},
    "version": 1
  },
  "userdoc": {
    "kind": "user",
    "methods": {},
    "version": 1
  },
  "storageLayout": {
    "storage": [
      {
        "astId": 5924,
        "contract": "contracts/dynamic-nft/DevNFTRenderer.sol:DevNFTRenderer",
        "label": "nftCounter",
        "offset": 0,
        "slot": "0",
        "type": "t_uint256"
      },
      {
        "astId": 5927,
        "contract": "contracts/dynamic-nft/DevNFTRenderer.sol:DevNFTRenderer",
        "label": "schemaResolver",
        "offset": 0,
        "slot": "1",
        "type": "t_contract(DevSchemaResolver)6982"
      },
      {
        "astId": 5930,
        "contract": "contracts/dynamic-nft/DevNFTRenderer.sol:DevNFTRenderer",
        "label": "githubResolver",
        "offset": 0,
        "slot": "2",
        "type": "t_contract(GithubLinkResolver)7297"
      },
      {
        "astId": 5932,
        "contract": "contracts/dynamic-nft/DevNFTRenderer.sol:DevNFTRenderer",
        "label": "_owner",
        "offset": 0,
        "slot": "3",
        "type": "t_address"
      }
    ],
    "types": {
      "t_address": {
        "encoding": "inplace",
        "label": "address",
        "numberOfBytes": "20"
      },
      "t_contract(DevSchemaResolver)6982": {
        "encoding": "inplace",
        "label": "contract DevSchemaResolver",
        "numberOfBytes": "20"
      },
      "t_contract(GithubLinkResolver)7297": {
        "encoding": "inplace",
        "label": "contract GithubLinkResolver",
        "numberOfBytes": "20"
      },
      "t_uint256": {
        "encoding": "inplace",
        "label": "uint256",
        "numberOfBytes": "32"
      }
    }
  }
}