{
  "address": "0x84d2De05B84a0663680566928974eE31d9F4ab41",
  "abi": [
    {
      "inputs": [
        {
          "internalType": "address",
          "name": "attester",
          "type": "address"
        }
      ],
      "stateMutability": "nonpayable",
      "type": "constructor"
    },
    {
      "inputs": [],
      "name": "_attester",
      "outputs": [
        {
          "internalType": "address",
          "name": "",
          "type": "address"
        }
      ],
      "stateMutability": "view",
      "type": "function"
    },
    {
      "inputs": [],
      "name": "_owner",
      "outputs": [
        {
          "internalType": "address",
          "name": "",
          "type": "address"
        }
      ],
      "stateMutability": "view",
      "type": "function"
    },
    {
      "inputs": [
        {
          "internalType": "address",
          "name": "tokenOwner",
          "type": "address"
        },
        {
          "internalType": "string",
          "name": "nftName",
          "type": "string"
        },
        {
          "internalType": "string",
          "name": "repository",
          "type": "string"
        },
        {
          "internalType": "uint256",
          "name": "tokenId",
          "type": "uint256"
        }
      ],
      "name": "formatTokenURI",
      "outputs": [
        {
          "internalType": "string",
          "name": "",
          "type": "string"
        }
      ],
      "stateMutability": "view",
      "type": "function"
    },
    {
      "inputs": [
        {
          "internalType": "uint256",
          "name": "prCount",
          "type": "uint256"
        }
      ],
      "name": "generateAvatar",
      "outputs": [
        {
          "internalType": "string",
          "name": "svg",
          "type": "string"
        }
      ],
      "stateMutability": "pure",
      "type": "function"
    },
    {
      "inputs": [
        {
          "internalType": "uint256",
          "name": "prCount",
          "type": "uint256"
        }
      ],
      "name": "generateAvatarChain",
      "outputs": [
        {
          "internalType": "string",
          "name": "svg",
          "type": "string"
        }
      ],
      "stateMutability": "pure",
      "type": "function"
    },
    {
      "inputs": [
        {
          "internalType": "uint256",
          "name": "prCount",
          "type": "uint256"
        }
      ],
      "name": "generateBackground",
      "outputs": [
        {
          "internalType": "string",
          "name": "svg",
          "type": "string"
        }
      ],
      "stateMutability": "pure",
      "type": "function"
    },
    {
      "inputs": [
        {
          "internalType": "string",
          "name": "username",
          "type": "string"
        },
        {
          "internalType": "uint256",
          "name": "prCount",
          "type": "uint256"
        },
        {
          "internalType": "string",
          "name": "repository",
          "type": "string"
        }
      ],
      "name": "generateCard",
      "outputs": [
        {
          "internalType": "string",
          "name": "svg",
          "type": "string"
        }
      ],
      "stateMutability": "pure",
      "type": "function"
    },
    {
      "inputs": [],
      "name": "githubResolver",
      "outputs": [
        {
          "internalType": "contract GithubLinkResolver",
          "name": "",
          "type": "address"
        }
      ],
      "stateMutability": "view",
      "type": "function"
    },
    {
      "inputs": [
        {
          "internalType": "address",
          "name": "tokenOwner",
          "type": "address"
        },
        {
          "internalType": "string",
          "name": "repository",
          "type": "string"
        }
      ],
      "name": "imageURI",
      "outputs": [
        {
          "internalType": "string",
          "name": "",
          "type": "string"
        }
      ],
      "stateMutability": "view",
      "type": "function"
    },
    {
      "inputs": [
        {
          "internalType": "address",
          "name": "tokenOwner",
          "type": "address"
        },
        {
          "internalType": "string",
          "name": "repository",
          "type": "string"
        }
      ],
      "name": "isEligibleToMint",
      "outputs": [
        {
          "internalType": "bool",
          "name": "",
          "type": "bool"
        }
      ],
      "stateMutability": "view",
      "type": "function"
    },
    {
      "inputs": [],
      "name": "nftCounter",
      "outputs": [
        {
          "internalType": "uint256",
          "name": "",
          "type": "uint256"
        }
      ],
      "stateMutability": "view",
      "type": "function"
    },
    {
      "inputs": [],
      "name": "schemaResolver",
      "outputs": [
        {
          "internalType": "contract DevSchemaResolver",
          "name": "",
          "type": "address"
        }
      ],
      "stateMutability": "view",
      "type": "function"
    }
  ],
  "transactionHash": "0x5248c92b26b08c91c7ed2af2db23ad936460d14021adb2b8a270b8c36a2c1c47",
  "args": [
    "0x5A4830885f12438E00D8f4d98e9Fe083e707698C"
  ],
  "solcInputHash": "739bd3a9285a369764a16e98acf5a6c0",
  "bytecode": "0x6080346100bc57601f6200323438819003918201601f19168301916001600160401b038311848410176100c1578084926020946040528339810103126100bc57516001600160a01b038116908190036100bc576000805560018060a01b031973ef00e7be55ff65ad3f8305b042d44b96b05862d8816001541617600155736455e470f9ecee5755930c9979b559768bf5317081600254161760025533816003541617600355600454161760045560405161315c9081620000d88239f35b600080fd5b634e487b7160e01b600052604160045260246000fdfe6080604052600436101561001257600080fd5b60003560e01c80630bc1d646146100d75780633c45a45b146100d25780634b864d7c146100cd5780636cb7ed09146100c8578063701b854d146100c35780637b6d521a146100be5780637d0c917b146100b95780637dd75e72146100b4578063a637f87c146100af578063b2bdfa7b146100aa578063d0efc89e146100a55763e574609e146100a057600080fd5b61070f565b6106eb565b6106c4565b6106a5565b6103b0565b610389565b61036f565b6102f2565b6102cb565b61026f565b610174565b610138565b60005b8381106100ef5750506000910152565b81810151838201526020016100df565b90602091610118815180928185528580860191016100dc565b601f01601f1916010190565b9060206101359281815201906100ff565b90565b3461016f57602036600319011261016f5761016b610157600435612c10565b6040519182916020835260208301906100ff565b0390f35b600080fd5b3461016f57602036600319011261016f5761016b610157600435611804565b634e487b7160e01b600052604160045260246000fd5b6040810190811067ffffffffffffffff8211176101c557604052565b610193565b90601f8019910116810190811067ffffffffffffffff8211176101c557604052565b604051906080820182811067ffffffffffffffff8211176101c557604052565b67ffffffffffffffff81116101c557601f01601f191660200190565b81601f8201121561016f5780359061023f8261020c565b9261024d60405194856101ca565b8284526020838301011161016f57816000926020809301838601378301015290565b3461016f57606036600319011261016f5767ffffffffffffffff60043581811161016f576102a1903690600401610228565b9060443590811161016f5761016b916102c1610157923690600401610228565b90602435906114b7565b3461016f57600036600319011261016f5760206001600160a01b0360015416604051908152f35b3461016f57600036600319011261016f5760206001600160a01b0360025416604051908152f35b600435906001600160a01b038216820361016f57565b90604060031983011261016f576004356001600160a01b038116810361016f57916024359067ffffffffffffffff821161016f5761013591600401610228565b3461016f5761016b6101576103833661032f565b90610e16565b3461016f57600036600319011261016f5760206001600160a01b0360045416604051908152f35b3461016f57608036600319011261016f576103c9610319565b67ffffffffffffffff9060243582811161016f576103eb903690600401610228565b9160443590811161016f57610404903690600401610228565b9161040e82610b54565b9161041a606435610743565b6104239061080c565b91604051928391602083016104379161079f565b7f202300000000000000000000000000000000000000000000000000000000000081526002016104669161079f565b0393601f1994858101845261047b90846101ca565b6040517f68747470733a2f2f6769746875622e636f6d2f0000000000000000000000000060208201529384906104b4603383018461079f565b7f3a20436f6e747269627574696f6e73206f66200000000000000000000000000081526013016104e39161079f565b7f202d20706f7765726564206279204b61726d6120287777772e6b61726d61687181527f2e78797a29000000000000000000000000000000000000000000000000000000602082015260250103858101855261053f90856101ca565b61054891610e16565b610551906109e8565b6040517f7b226e616d65223a22000000000000000000000000000000000000000000000060208201529283926029840161058a9161079f565b7f222c20226465736372697074696f6e223a22000000000000000000000000000081526012016105b99161079f565b7f222c2022696d616765223a2022000000000000000000000000000000000000008152600d017f646174613a696d6167652f7376672b786d6c3b6261736536342c0000000000008152601a0161060e9161079f565b7f227d000000000000000000000000000000000000000000000000000000000000815260020103828101825261064490826101ca565b61064d906109e8565b6040517f646174613a6170706c69636174696f6e2f6a736f6e3b6261736536342c000000602082015291908290603d82016106879161079f565b03908101825261069790826101ca565b60405161016b819282610124565b3461016f57602036600319011261016f5761016b610157600435610f92565b3461016f57600036600319011261016f5760206001600160a01b0360035416604051908152f35b3461016f5760206107046106fe3661032f565b90610d51565b506040519015158152f35b3461016f57600036600319011261016f576020600054604051908152f35b634e487b7160e01b600052601160045260246000fd5b908115600183800414171561075457565b61072d565b908160021b917f3fffffffffffffffffffffffffffffffffffffffffffffffffffffffffffffff81160361075457565b9060328202918083046032149015171561075457565b906107b2602092828151948592016100dc565b0190565b604051906020820182811067ffffffffffffffff8211176101c55760405260008252565b906107e48261020c565b6107f160405191826101ca565b8281528092610802601f199161020c565b0190602036910137565b806000917a184f03e93ff9f4daa797ed6e38ed64bf6a1f0100000000000000008082101561094e575b506d04ee2d6d415b85acef81000000008083101561093f575b50662386f26fc1000080831015610930575b506305f5e10080831015610921575b5061271080831015610912575b506064821015610902575b600a809210156108f8575b6001908160216108a38287016107da565b95860101905b6108b5575b5050505090565b600019019083907f30313233343536373839616263646566000000000000000000000000000000008282061a8353049182156108f3579190826108a9565b6108ae565b9160010191610892565b9190606460029104910191610887565b6004919392049101913861087c565b6008919392049101913861086f565b60109193920491019138610860565b6020919392049101913861084e565b604093508104915038610835565b604051906060820182811067ffffffffffffffff8211176101c557604052604082527f6768696a6b6c6d6e6f707172737475767778797a303132333435363738392b2f6040837f4142434445464748494a4b4c4d4e4f505152535455565758595a61626364656660208201520152565b906002820180921161075457565b906020820180921161075457565b805115610afd576109f761095c565b610a13610a0e610a0784516109cc565b6003900490565b610759565b91610a25610a20846109da565b6107da565b92835280815182019060208501935b828210610aab57505050600390510680600114610a8057600214610a56575090565b7f3d0000000000000000000000000000000000000000000000000000000000000090600019015290565b507f3d3d00000000000000000000000000000000000000000000000000000000000090600119015290565b9091936004906003809401938451600190603f9082828260121c16880101518553828282600c1c16880101518386015382828260061c1688010151600286015316850101519082015301939190610a34565b506101356107b6565b81601f8201121561016f578051610b1c8161020c565b92610b2a60405194856101ca565b8184526020828401011161016f5761013591602080850191016100dc565b6040513d6000823e3d90fd5b6001600160a01b039081600254166040519283927f67e31b5500000000000000000000000000000000000000000000000000000000845216600483015281602460009384935afa918215610bf3578192610bad57505090565b909291503d8084833e610bc081836101ca565b810190602081830312610bef5780519067ffffffffffffffff8211610beb5761013593945001610b06565b8480fd5b8380fd5b610b48565b90602090818382031261016f57825167ffffffffffffffff9384821161016f57019080601f8301121561016f578151938085116101c5578460051b90604090815196610c46878501896101ca565b875285808801938601019484861161016f57868101935b868510610c6f57505050505050505090565b845183811161016f5782019084601f19838903011261016f57845190610c94826101a9565b898301518252858301519185831161016f57610cb7898c80969581960101610b06565b83820152815201940193610c5d565b15610ccd57565b60846040517f08c379a000000000000000000000000000000000000000000000000000000000815260206004820152602360248201527f5573657220646f65736e2774206861766520616e7920636f6e7472696275746960448201527f6f6e7300000000000000000000000000000000000000000000000000000000006064820152fd5b610dc79291610d61600092610b54565b610db56001600160a01b039182600154169260045416604051978895869485947fb4c02c7b0000000000000000000000000000000000000000000000000000000086526060600487015260648601906100ff565b848103600319016024860152906100ff565b90604483015203915afa918215610bf357600092610df3575b50610ded82511515610cc6565b81519190565b610e0f91923d8091833e610e0781836101ca565b810190610bf8565b9038610de0565b9061013590610f84610f5b610e3483610e2e87610b54565b96610d51565b50610f55610e5e610e4483610f92565b95610e4e84611804565b93610e5881612c10565b996114b7565b9660a66040519889977f3c7376672077696474683d223130303022206865696768743d2231303030222060208a01527f76696577426f783d22302030203130303020313030302220786d6c6e733d226860408a01527f7474703a2f2f7777772e77332e6f72672f323030302f7376672220786d6c6e7360608a01527f3a786c696e6b3d22687474703a2f2f7777772e77332e6f72672f313939392f7860808a01527f6c696e6b223e000000000000000000000000000000000000000000000000000060a08a0152610f38815180926020868d0191016100dc565b8801610f4d82518093602086850191016100dc565b01019061079f565b9061079f565b7f3c2f7376673e0000000000000000000000000000000000000000000000000000815260060190565b03601f1981018352826101ca565b600481101561104e5750610fdd60005b604051610fae816101a9565b600581527f677265656e00000000000000000000000000000000000000000000000000000060208201526111bb565b610135604b60405180937f3c726563742077696474683d223130303022206865696768743d223130303022602083015266103334b6361e9160c91b60408301526110318151809260206047860191016100dc565b8101631110179f60e11b604782015203602b8101845201826101ca565b6004811180611098575b156110685750610fdd6001610fa2565b60088111908161108d575b501561108357610fdd6002610fa2565b610fdd6003610fa2565b600791501038611073565b5060088110611058565b60ff039060ff821161075457565b604051906110bd826101a9565b600d82527f3235302c203233372c20323337000000000000000000000000000000000000006020830152565b604051906110f6826101a9565b600d82527f3234322c203233372c20323530000000000000000000000000000000000000006020830152565b6040519061112f826101a9565b600d82527f3233372c203235302c20323430000000000000000000000000000000000000006020830152565b60405190611168826101a9565b600d82527f3235302c203233372c20323433000000000000000000000000000000000000006020830152565b9060048110156111a55760051b0190565b634e487b7160e01b600052603260045260246000fd5b61013590610f8461129e610f55946060908451602080960120906001811060001461140f57506001905b6111fe6111f96111f484610789565b6110a2565b61080c565b907ff99e8d094ee97e7be9a3d7269f09f9996041160cc5c134b6a863be5b0ce9b5bd81036112c757505061126a91506112356101ec565b61123d6110b0565b81526112476110e9565b86820152611253611122565b604082015261126061115b565b6060820152611194565b515b60405195869485016004907f726762280000000000000000000000000000000000000000000000000000000081520190565b7f2900000000000000000000000000000000000000000000000000000000000000815260010190565b9091507f27617207effe6bfd81a3e2b21d8a20c4e622b23e5422d607771b4f8b8ba006fa81036113365750610f84915061133190604051928391610f558884016008907f3234312c3235352c00000000000000000000000000000000000000000000000081520190565b61126c565b7f9556cb7cbc30102cf4b9d59a768a00c66490eb985d62a29a2cf323bd26e1edf2810361139d5750610f84915061133190604051928391610f558884016008907f3235352c3235352c00000000000000000000000000000000000000000000000081520190565b7ffa187c1e7b6b42ab8b2d9415ab7e6b1e71b551fcdc8151ebafe46e40a10d90ad146113ca575b5061126c565b610f84915061140990604051928391610f558884016004907f302c302c0000000000000000000000000000000000000000000000000000000081520190565b386113c4565b906111e5565b60038110156114245750600090565b600381118061145f575b156114395750600190565b600681119081611454575b501561144f57600290565b600390565b600691501038611444565b506006811061142e565b60028110156114785750600090565b60028111806114ad575b1561148d5750600190565b6004811190816114a257501561144f57600290565b600591501038611444565b5060048110611482565b8180046001148215171561075457610f84611769611656610f5595610f556116f461165660b697610f5561167f6116566114f36101359d61080c565b936040519e8f9d8e7f3c7265637420783d2234322220793d22373238222077696474683d223933322260208201527f206865696768743d22323436222072783d223234222066696c6c3d227267622860408201527f33382c32362c353929222f3e000000000000000000000000000000000000000060608201527f3c746578742066696c6c3d2277686974652220666f6e742d66616d696c793d22606c8201527f4669726120436f64652220666f6e742d73697a653d2233322220783d22323533608c8201527f2220793d22373736223e0000000000000000000000000000000000000000000060ac820152016052907f3c747370616e2064783d223630222064793d223135223e436f6e74726962757481527f6f723a3c2f747370616e3e3c747370616e2064783d223230222066696c6c3d2260208201527f726762283234362c3131322c31393929223e000000000000000000000000000060408201520190565b7f3c2f747370616e3e000000000000000000000000000000000000000000000000815260080190565b7f3c747370616e20783d22323535222064793d223435223e546f74616c206e6f2e81527f206f66205052733a3c2f747370616e3e203c747370616e2064783d223230222060208201527f66696c6c3d22726762283135332c3234362c32323429223e0000000000000000604082015260580190565b7f3c747370616e20783d22333235222064793d223435223e5265706f7369746f7281527f793a3c2f747370616e3e3c747370616e2064783d223230222066696c6c3d227260208201527f6762283232312c3231342c32353429223e000000000000000000000000000000604082015260510190565b7f3c2f746578743e00000000000000000000000000000000000000000000000000815260070190565b6040519061179f826101a9565b600582527f77686974650000000000000000000000000000000000000000000000000000006020830152565b604051906117d8826101a9565b600482527f626c7565000000000000000000000000000000000000000000000000000000006020830152565b61180d81611415565b611815611792565b9061181f916111bb565b9061182990611469565b6118316117cb565b9061183b916111bb565b906040519182916020830161197e9060f9907f3c7061746820643d226d3230312e3235203532342e39762d3234312e3037683181527f372e373335762d3132322e38336833312e3533762d33372e3434326836382e3360208201527f31357633312e35336833312e3532397634302e373236683230362e3932762d3160408201527f382e3339336831312e313636762d33302e323136683130392e30347633302e3260608201527f31366833342e3831347636332e3036682d33342e3831347633312e353368333460808201527f2e383134763234372e3634682d35332e3230367633322e383434682d33302e3860a08201527f37337634322e363936682d3334362e3137762d33352e343731682d33312e353360c08201527f762d33342e383134682d34392e3236357a222066696c6c3d220000000000000060e08201520190565b6119879161079f565b6211179f60e91b81526003017f3c7265637420783d223331382e38322220793d223337352e373922207769647481527f683d223233362e343722206865696768743d2236392e363238222066696c6c3d60208201527f22726762283233342c203233362c2032343529222f3e0000000000000000000060408201526056017f3c7265637420783d223335322e39382220793d223430392e393522207769647481527f683d223137302e373922206865696768743d2236392e363238222066696c6c3d60208201527f22726762283233342c203233362c2032343529222f3e0000000000000000000060408201526056017f3c7265637420783d223338372e31342220793d223434322e382220776964746881527f3d223130322e343722206865696768743d2236392e363238222066696c6c3d2260208201527f726762283233342c203233362c2032343529222f3e000000000000000000000060408201526055017f3c7265637420783d223231382e39382220793d223234302e343822207769647481527f683d2233312e34383122206865696768743d2233312e343831222066696c6c3d6020820152601160f91b6040820152604101611b49908261079f565b6211179f60e91b81526003017f3c7265637420783d223231382e39382220793d223134372e322220776964746881527f3d2233312e34383122206865696768743d2233312e343831222066696c6c3d226020820152604001611bab908261079f565b6211179f60e91b81526003017f3c7265637420783d223331382e38332220793d223134372e322220776964746881527f3d2233312e34383122206865696768743d2233312e343831222066696c6c3d226020820152604001611c0d908261079f565b6211179f60e91b81526003017f3c7265637420783d223138372e34352220793d223137372e343222207769647481527f683d2233312e353322206865696768743d2236332e3036222066696c6c3d22006020820152603f01611c6f908261079f565b6211179f60e91b81526003017f3c7265637420783d223238372e332220793d223137372e34322220776964746881527f3d2233312e353322206865696768743d2236332e3036222066696c6c3d2200006020820152603e01611cd1908261079f565b6211179f60e91b81526003017f3c7265637420783d223235302e35312220793d223230382e393522207769647481527f683d2236382e33313522206865696768743d2233312e3533222066696c6c3d226020820152604001611d33908261079f565b6211179f60e91b81526003017f3c7265637420783d223338372e31342220793d223431312e323622207769647481527f683d2236382e33313522206865696768743d2233312e3533222066696c6c3d226020820152604001611d95908261079f565b6211179f60e91b81526003017f3c7265637420783d223432312e332220793d223431312e32362220776964746881527f3d2236382e33313522206865696768743d2233312e3533222066696c6c3d22006020820152603f01611df7908261079f565b6211179f60e91b81526003017f3c72656374207472616e73666f726d3d22726f74617465282d3930203331382e81527f3833203431312e3236292220783d223331382e38332220793d223431312e323660208201527f222077696474683d2236382e33313522206865696768743d2233312e353322206040820152653334b6361e9160d11b6060820152606601611e8e908261079f565b6211179f60e91b81526003017f3c72656374207472616e73666f726d3d22726f74617465282d3930203532332e81527f3737203431312e3236292220783d223532332e37372220793d223431312e323660208201527f222077696474683d2236382e33313522206865696768743d2233312e353322206040820152653334b6361e9160d11b6060820152606601611f25908261079f565b6211179f60e91b81526003017f3c72656374207472616e73666f726d3d22726f74617465282d3930203432322e81527f3631203437392e3538292220783d223432322e36312220793d223437392e353860208201527f222077696474683d2236382e33313522206865696768743d2233312e353322206040820152653334b6361e9160d11b6060820152606601611fbc908261079f565b6211179f60e91b81526003017f3c7265637420783d223335302e33362220793d223137372e343222207769647481527f683d223231302e3222206865696768743d2233312e3533222066696c6c3d22006020820152603f0161201e908261079f565b6211179f60e91b81526003017f3c7265637420783d223238302e37332220793d223537312e353422207769647481527f683d223231342e313422206865696768743d2233312e3533222066696c6c3d226020820152604001612080908261079f565b6211179f60e91b81526003017f3c7265637420783d223235302e35312220793d223131352e363722207769647481527f683d2236382e33313522206865696768743d2233312e3533222066696c6c3d2260208201526040016120e2908261079f565b6211179f60e91b81526003017f3c7265637420783d223231382e39382220793d223530382e343822207769647481527f683d2233312e34383122206865696768743d2233312e343831222066696c6c3d6020820152601160f91b604082015260410161214e908261079f565b6211179f60e91b81526003017f3c7265637420783d223235302e35312220793d223534302e303122207769647481527f683d2233312e34383122206865696768743d2233312e343831222066696c6c3d6020820152601160f91b60408201526041016121ba908261079f565b6211179f60e91b81526003017f3c7265637420783d223138372e34352220793d223237322e303122207769647481527f683d2233312e353322206865696768743d22323638222066696c6c3d220000006020820152603d0161221c908261079f565b6211179f60e91b815260030160008051602061310783398151915281527f203639302e3631203234302e343829222077696474683d2233312e343831222060208201527f6865696768743d2233312e343831222066696c6c3d22000000000000000000006040820152605601612292908261079f565b6211179f60e91b815260030160008051602061310783398151915281527f203639302e3631203134372e3229222077696474683d2233312e34383122206860208201527f65696768743d2233312e343831222066696c6c3d2200000000000000000000006040820152605501612308908261079f565b6211179f60e91b815260030160008051602061310783398151915281527f203539302e3737203134372e3229222077696474683d2233312e34383122206860208201527f65696768743d2233312e343831222066696c6c3d220000000000000000000000604082015260550161237e908261079f565b6211179f60e91b815260030160008051602061310783398151915281527f203732322e3134203137372e343229222077696474683d2233312e353322206860208201527f65696768743d2236332e3036222066696c6c3d2200000000000000000000000060408201526054016123f4908261079f565b6211179f60e91b815260030160008051602061310783398151915281527f203632322e33203137372e343229222077696474683d2233312e35332220686560208201527f696768743d2236332e3036222066696c6c3d2200000000000000000000000000604082015260530161246a908261079f565b6211179f60e91b815260030160008051602061310783398151915281527f203635392e3038203230382e393529222077696474683d2236382e333135222060208201527f6865696768743d2233312e3533222066696c6c3d22000000000000000000000060408201526055016124e0908261079f565b6211179f60e91b815260030160008051602061310783398151915281527f203535392e3234203137372e343229222077696474683d223231302e3222206860208201527f65696768743d2233312e3533222066696c6c3d220000000000000000000000006040820152605401612556908261079f565b6211179f60e91b815260030160008051602061310783398151915281527f203632382e3837203537312e353429222077696474683d223231342e3134222060208201527f6865696768743d2233312e3533222066696c6c3d22000000000000000000000060408201526055016125cc908261079f565b6211179f60e91b815260030160008051602061310783398151915281527f203635392e3038203131352e363729222077696474683d2236382e333135222060208201527f6865696768743d2233312e3533222066696c6c3d2200000000000000000000006040820152605501612642908261079f565b6211179f60e91b815260030160008051602061310783398151915281527f203639302e3631203530382e343829222077696474683d2233312e343831222060208201527f6865696768743d2233312e343831222066696c6c3d220000000000000000000060408201526056016126b8908261079f565b6211179f60e91b815260030160008051602061310783398151915281527f203635392e3038203534302e303129222077696474683d2233312e343831222060208201527f6865696768743d2233312e343831222066696c6c3d2200000000000000000000604082015260560161272e908261079f565b6211179f60e91b815260030160008051602061310783398151915281527f203732322e3134203237322e303129222077696474683d2233312e353322206860208201527f65696768743d22323638222066696c6c3d22000000000000000000000000000060408201526052016127a39161079f565b6211179f60e91b81526003017f3c7265637420783d223235302e35312220793d223234302e343822207769647481527f683d2236382e33313522206865696768743d2233312e3533222066696c6c3d2260208201527f726762283231332c203231372c2032333529222f3e000000000000000000000060408201526055017f3c7265637420783d223235302e35312220793d223530382e343822207769647481527f683d2233312e34383122206865696768743d2233312e343831222066696c6c3d60208201527f22726762283231332c203231372c2032333529222f3e0000000000000000000060408201526056017f3c7265637420783d223231382e39382220793d223230382e393522207769647481527f683d2233312e34383122206865696768743d2233312e343831222066696c6c3d60208201527f22726762283231332c203231372c2032333529222f3e0000000000000000000060408201526056017f3c7265637420783d223238322e30342220793d223534302e303122207769647481527f683d223334352e353122206865696768743d2233312e3533222066696c6c3d2260208201527f726762283231332c203231372c2032333529222f3e000000000000000000000060408201526055017f3c72656374207472616e73666f726d3d226d6174726978283120302030202d3181527f203632372e3536203330332e353429222077696474683d2233312e353322206860208201527f65696768743d2236332e3036222066696c6c3d22726762283231332c20323137604082015268161019199a9491179f60b91b60608201526069017f3c72656374207472616e73666f726d3d226d6174726978283120302030202d3181527f203635392e3038203234302e343829222077696474683d2233312e353322206860208201527f65696768743d2236332e3036222066696c6c3d22726762283231332c20323137604082015268161019199a9491179f60b91b60608201526069017f3c72656374207472616e73666f726d3d226d6174726978283120302030202d3181527f203539302e3737203237322e303129222077696474683d2236382e333135222060208201527f6865696768743d2233312e3533222066696c6c3d22726762283231332c2032316040820152691b961019199a9491179f60b11b6060820152606a0160008051602061310783398151915281527f203635392e3034203530382e343829222077696474683d2233312e343831222060208201527f6865696768743d2233312e343831222066696c6c3d22726762283231332c203260408201527f31372c2032333529222f3e0000000000000000000000000000000000000000006060820152606b0160008051602061310783398151915281527f203639302e3631203237322e303129222077696474683d2233312e353322206860208201527f65696768743d223233362e3437222066696c6c3d22726762283231332c2032316040820152691b961019199a9491179f60b11b6060820152606a015b03601f198101825261013590826101ca565b612c1990611469565b60405190612c26826101a9565b600682527f79656c6c6f7700000000000000000000000000000000000000000000000000006020830152612c59916111bb565b604080517f3c7061746820643d226d3530362e3939203630332e31356832312e373735763260208201527f312e373735682d32312e3737347632312e373733682d32312e373735762d3231918101919091527f2e3737346832312e373734762d32312e3737347a6d2d3130342e35322030682d60608201527f32312e3737347632312e3737356832312e373734762d32312e3737357a6d302060808201527f32312e3737346832312e3737347632312e373734682d32312e373734762d323160a08201527f2e3737347a2220636c69702d72756c653d226576656e6f6464222066696c6c3d60c0820152601160f91b60e0820152908190612d5d60e183018261079f565b7f222066696c6c2d72756c653d226576656e6f6464222f3e00000000000000000081526017017f3c72656374207472616e73666f726d3d22726f74617465282d3930203432322e81527f3038203639302e3234292220783d223432322e30382220793d223639302e323460208201527f222077696474683d2236352e33323322206865696768743d2232312e37373422604082015266103334b6361e9160c91b6060820152606701612e0f908261079f565b631110179f60e11b81526004017f3c72656374207472616e73666f726d3d22726f74617465282d3930203436352e81527f3632203639302e3234292220783d223436352e36322220793d223639302e323460208201527f222077696474683d2236352e33323322206865696768743d2232312e37373422604082015266103334b6361e9160c91b6060820152606701612ea8908261079f565b631110179f60e11b81526004017f3c7265637420783d223432322e30382220793d223632342e393222207769647481527f683d2236352e33323322206865696768743d2232312e373734222066696c6c3d6020820152601160f91b6040820152604101612f15908261079f565b631110179f60e11b81526004017f3c7265637420783d223432322e30382220793d223636382e343722207769647481527f683d2236352e33323322206865696768743d2232312e373734222066696c6c3d6020820152601160f91b6040820152604101612f82908261079f565b631110179f60e11b81526004017f3c7265637420783d223434332e38352220793d223731322e303222207769647481527f683d2234332e35343822206865696768743d2232312e373734222066696c6c3d6020820152601160f91b6040820152604101612fef908261079f565b631110179f60e11b81526004017f3c7265637420783d223434332e38352220793d223733332e373922207769647481527f683d2234332e35343822206865696768743d2232312e373734222066696c6c3d6020820152601160f91b604082015260410161305c908261079f565b631110179f60e11b81526004017f3c72656374207472616e73666f726d3d22726f74617465282d3930203434332e81527f3835203735352e3537292220783d223434332e38352220793d223735352e353760208201527f222077696474683d2236352e33323322206865696768743d2232312e37373422604082015266103334b6361e9160c91b60608201526067016130f49161079f565b631110179f60e11b8152600401612bfe56fe3c72656374207472616e73666f726d3d226d6174726978282d31203020302031a264697066735822122000fc7909ce7096073cba3d67e2b127fa2c49688ea01271fa8931651c52416ad164736f6c63430008130033",
  "devdoc": {
    "kind": "dev",
    "methods": {},
    "version": 1
  },
  "userdoc": {
    "kind": "user",
    "methods": {},
    "version": 1
  },
  "storageLayout": {
    "storage": [
      {
        "astId": 3741,
        "contract": "contracts/dynamic-nft/DevNFTRenderer.sol:DevNFTRenderer",
        "label": "nftCounter",
        "offset": 0,
        "slot": "0",
        "type": "t_uint256"
      },
      {
        "astId": 3744,
        "contract": "contracts/dynamic-nft/DevNFTRenderer.sol:DevNFTRenderer",
        "label": "schemaResolver",
        "offset": 0,
        "slot": "1",
        "type": "t_contract(DevSchemaResolver)4806"
      },
      {
        "astId": 3747,
        "contract": "contracts/dynamic-nft/DevNFTRenderer.sol:DevNFTRenderer",
        "label": "githubResolver",
        "offset": 0,
        "slot": "2",
        "type": "t_contract(GithubLinkResolver)5109"
      },
      {
        "astId": 3749,
        "contract": "contracts/dynamic-nft/DevNFTRenderer.sol:DevNFTRenderer",
        "label": "_owner",
        "offset": 0,
        "slot": "3",
        "type": "t_address"
      },
      {
        "astId": 3751,
        "contract": "contracts/dynamic-nft/DevNFTRenderer.sol:DevNFTRenderer",
        "label": "_attester",
        "offset": 0,
        "slot": "4",
        "type": "t_address"
      }
    ],
    "types": {
      "t_address": {
        "encoding": "inplace",
        "label": "address",
        "numberOfBytes": "20"
      },
      "t_contract(DevSchemaResolver)4806": {
        "encoding": "inplace",
        "label": "contract DevSchemaResolver",
        "numberOfBytes": "20"
      },
      "t_contract(GithubLinkResolver)5109": {
        "encoding": "inplace",
        "label": "contract GithubLinkResolver",
        "numberOfBytes": "20"
      },
      "t_uint256": {
        "encoding": "inplace",
        "label": "uint256",
        "numberOfBytes": "32"
      }
    }
  }
}