{
  "address": "0x8f16aD3e4F871c820FD3AB9C919bf93A30DA6d17",
  "abi": [
    {
      "inputs": [
        {
          "internalType": "contract IEAS",
          "name": "eas",
          "type": "address"
        }
      ],
      "stateMutability": "nonpayable",
      "type": "constructor"
    },
    {
      "inputs": [],
      "name": "AccessDenied",
      "type": "error"
    },
    {
      "inputs": [],
      "name": "InsufficientValue",
      "type": "error"
    },
    {
      "inputs": [],
      "name": "InvalidEAS",
      "type": "error"
    },
    {
      "inputs": [],
      "name": "NotPayable",
      "type": "error"
    },
    {
      "inputs": [],
      "name": "_owner",
      "outputs": [
        {
          "internalType": "address",
          "name": "",
          "type": "address"
        }
      ],
      "stateMutability": "view",
      "type": "function"
    },
    {
      "inputs": [
        {
          "components": [
            {
              "internalType": "bytes32",
              "name": "uid",
              "type": "bytes32"
            },
            {
              "internalType": "bytes32",
              "name": "schema",
              "type": "bytes32"
            },
            {
              "internalType": "uint64",
              "name": "time",
              "type": "uint64"
            },
            {
              "internalType": "uint64",
              "name": "expirationTime",
              "type": "uint64"
            },
            {
              "internalType": "uint64",
              "name": "revocationTime",
              "type": "uint64"
            },
            {
              "internalType": "bytes32",
              "name": "refUID",
              "type": "bytes32"
            },
            {
              "internalType": "address",
              "name": "recipient",
              "type": "address"
            },
            {
              "internalType": "address",
              "name": "attester",
              "type": "address"
            },
            {
              "internalType": "bool",
              "name": "revocable",
              "type": "bool"
            },
            {
              "internalType": "bytes",
              "name": "data",
              "type": "bytes"
            }
          ],
          "internalType": "struct Attestation",
          "name": "attestation",
          "type": "tuple"
        }
      ],
      "name": "attest",
      "outputs": [
        {
          "internalType": "bool",
          "name": "",
          "type": "bool"
        }
      ],
      "stateMutability": "payable",
      "type": "function"
    },
    {
      "inputs": [
        {
          "internalType": "bytes",
          "name": "data",
          "type": "bytes"
        }
      ],
      "name": "decode",
      "outputs": [
        {
          "internalType": "string",
          "name": "username",
          "type": "string"
        },
        {
          "internalType": "string",
          "name": "repository",
          "type": "string"
        },
        {
          "internalType": "string",
          "name": "pullrequestUrl",
          "type": "string"
        },
        {
          "internalType": "uint256",
          "name": "pullRequestCount",
          "type": "uint256"
        }
      ],
      "stateMutability": "pure",
      "type": "function"
    },
    {
      "inputs": [
        {
          "internalType": "string",
          "name": "",
          "type": "string"
        },
        {
          "internalType": "string",
          "name": "",
          "type": "string"
        },
        {
          "internalType": "uint256",
          "name": "",
          "type": "uint256"
        }
      ],
      "name": "devAttestations",
      "outputs": [
        {
          "internalType": "bytes32",
          "name": "uid",
          "type": "bytes32"
        },
        {
          "internalType": "string",
          "name": "prUrl",
          "type": "string"
        }
      ],
      "stateMutability": "view",
      "type": "function"
    },
    {
      "inputs": [
        {
          "internalType": "string",
          "name": "repoName",
          "type": "string"
        },
        {
          "internalType": "string",
          "name": "username",
          "type": "string"
        }
      ],
      "name": "getUserAttestation",
      "outputs": [
        {
          "components": [
            {
              "internalType": "bytes32",
              "name": "uid",
              "type": "bytes32"
            },
            {
              "internalType": "string",
              "name": "prUrl",
              "type": "string"
            }
          ],
          "internalType": "struct DevSchemaResolver.AttestationData[]",
          "name": "",
          "type": "tuple[]"
        }
      ],
      "stateMutability": "view",
      "type": "function"
    },
    {
      "inputs": [],
      "name": "isPayable",
      "outputs": [
        {
          "internalType": "bool",
          "name": "",
          "type": "bool"
        }
      ],
      "stateMutability": "pure",
      "type": "function"
    },
    {
      "inputs": [
        {
          "components": [
            {
              "internalType": "bytes32",
              "name": "uid",
              "type": "bytes32"
            },
            {
              "internalType": "bytes32",
              "name": "schema",
              "type": "bytes32"
            },
            {
              "internalType": "uint64",
              "name": "time",
              "type": "uint64"
            },
            {
              "internalType": "uint64",
              "name": "expirationTime",
              "type": "uint64"
            },
            {
              "internalType": "uint64",
              "name": "revocationTime",
              "type": "uint64"
            },
            {
              "internalType": "bytes32",
              "name": "refUID",
              "type": "bytes32"
            },
            {
              "internalType": "address",
              "name": "recipient",
              "type": "address"
            },
            {
              "internalType": "address",
              "name": "attester",
              "type": "address"
            },
            {
              "internalType": "bool",
              "name": "revocable",
              "type": "bool"
            },
            {
              "internalType": "bytes",
              "name": "data",
              "type": "bytes"
            }
          ],
          "internalType": "struct Attestation[]",
          "name": "attestations",
          "type": "tuple[]"
        },
        {
          "internalType": "uint256[]",
          "name": "values",
          "type": "uint256[]"
        }
      ],
      "name": "multiAttest",
      "outputs": [
        {
          "internalType": "bool",
          "name": "",
          "type": "bool"
        }
      ],
      "stateMutability": "payable",
      "type": "function"
    },
    {
      "inputs": [
        {
          "components": [
            {
              "internalType": "bytes32",
              "name": "uid",
              "type": "bytes32"
            },
            {
              "internalType": "bytes32",
              "name": "schema",
              "type": "bytes32"
            },
            {
              "internalType": "uint64",
              "name": "time",
              "type": "uint64"
            },
            {
              "internalType": "uint64",
              "name": "expirationTime",
              "type": "uint64"
            },
            {
              "internalType": "uint64",
              "name": "revocationTime",
              "type": "uint64"
            },
            {
              "internalType": "bytes32",
              "name": "refUID",
              "type": "bytes32"
            },
            {
              "internalType": "address",
              "name": "recipient",
              "type": "address"
            },
            {
              "internalType": "address",
              "name": "attester",
              "type": "address"
            },
            {
              "internalType": "bool",
              "name": "revocable",
              "type": "bool"
            },
            {
              "internalType": "bytes",
              "name": "data",
              "type": "bytes"
            }
          ],
          "internalType": "struct Attestation[]",
          "name": "attestations",
          "type": "tuple[]"
        },
        {
          "internalType": "uint256[]",
          "name": "values",
          "type": "uint256[]"
        }
      ],
      "name": "multiRevoke",
      "outputs": [
        {
          "internalType": "bool",
          "name": "",
          "type": "bool"
        }
      ],
      "stateMutability": "payable",
      "type": "function"
    },
    {
      "inputs": [
        {
          "components": [
            {
              "internalType": "bytes32",
              "name": "uid",
              "type": "bytes32"
            },
            {
              "internalType": "bytes32",
              "name": "schema",
              "type": "bytes32"
            },
            {
              "internalType": "uint64",
              "name": "time",
              "type": "uint64"
            },
            {
              "internalType": "uint64",
              "name": "expirationTime",
              "type": "uint64"
            },
            {
              "internalType": "uint64",
              "name": "revocationTime",
              "type": "uint64"
            },
            {
              "internalType": "bytes32",
              "name": "refUID",
              "type": "bytes32"
            },
            {
              "internalType": "address",
              "name": "recipient",
              "type": "address"
            },
            {
              "internalType": "address",
              "name": "attester",
              "type": "address"
            },
            {
              "internalType": "bool",
              "name": "revocable",
              "type": "bool"
            },
            {
              "internalType": "bytes",
              "name": "data",
              "type": "bytes"
            }
          ],
          "internalType": "struct Attestation",
          "name": "attestation",
          "type": "tuple"
        }
      ],
      "name": "revoke",
      "outputs": [
        {
          "internalType": "bool",
          "name": "",
          "type": "bool"
        }
      ],
      "stateMutability": "payable",
      "type": "function"
    },
    {
      "inputs": [],
      "name": "version",
      "outputs": [
        {
          "internalType": "string",
          "name": "",
          "type": "string"
        }
      ],
      "stateMutability": "view",
      "type": "function"
    },
    {
      "stateMutability": "payable",
      "type": "receive"
    }
  ],
  "transactionHash": "0x8de19b474187de6164812cdaf6b23c61d887206761799f160d6c925964b4758c",
  "args": [
    "0x4200000000000000000000000000000000000021"
  ],
  "solcInputHash": "844570a6f7ff10ead53c08f59bc87001",
  "bytecode": "0x610100346100bf57601f61138538819003918201601f19168301916001600160401b038311848410176100c4578084926020946040528339810103126100bf57516001600160a01b0381168082036100bf576001608052600060a052600060c052156100ad5760e052600180546001600160a01b031916331790556040516112aa90816100db8239608051816102f9015260a05181610325015260c05181610354015260e051816109840152f35b6040516341bc07ff60e11b8152600490fd5b600080fd5b634e487b7160e01b600052604160045260246000fdfe60406080815260049081361015610042575b361561001c57600080fd5b517f1574f9f3000000000000000000000000000000000000000000000000000000008152fd5b6000803560e01c908163051450da1461040657816354fd4d50146102e15781636e5155061461021f57816388e5b2d9146101ff57816391db0b7e146101df578163b2bdfa7b146101ab578163ce46e0461461018d578163e49617e114610171578163e5c5e9a3146100dd575063e60c350503610011576020906100d46100c73661082e565b6100cf61096d565b610ccc565b90519015158152f35b8391503461016e57602036600319011261016e5781359067ffffffffffffffff821161016e573660238301121561016e576101496101578561016461013161012c36888a013560248a016105d8565b610b8d565b94929590918351978897608089526080890190610655565b908782036020890152610655565b9185830390860152610655565b9060608301520390f35b80fd5b6020836100d46101803661082e565b61018861096d565b611092565b82346101a757816003193601126101a75751908152602090f35b5080fd5b82346101a757816003193601126101a75760209073ffffffffffffffffffffffffffffffffffffffff600154169051908152f35b6020836100d46101ee366107e3565b926101fa92919261096d565b610894565b6020836100d461020e366107e3565b9261021a92919261096d565b61091b565b8284346102dd5760603660031901126102dd5767ffffffffffffffff9080358281116102d9576102529036908301610614565b916024359081116102d9576102979161026d91369101610614565b61028860206044359481875193828580945193849201610632565b8101888152030190209061067a565b80548210156102d557906102aa916106a0565b506102d16102bc60018354930161070c565b83519384938452806020850152830190610655565b0390f35b8380fd5b8480fd5b8280fd5b90503461016e578060031936011261016e575061031d7f00000000000000000000000000000000000000000000000000000000000000006109d6565b6102d16103497f00000000000000000000000000000000000000000000000000000000000000006109d6565b926103f760226103787f00000000000000000000000000000000000000000000000000000000000000006109d6565b95835196879187516103928160209a8b8088019101610632565b8301907f2e0000000000000000000000000000000000000000000000000000000000000091828a8201526103cf825180938c602185019101610632565b019060218201526103e8825180938a8785019101610632565b0103600281018752018561059a565b51928284938452830190610655565b905082346101a757826003193601126101a75767ffffffffffffffff81358181116102d5576104389036908401610614565b6024358281116102d9576104526104799136908601610614565b918651838180955161046a8160209889809601610632565b8101898152030190209061067a565b92835492831161055557509290845190610498858260051b018361059a565b8082528482018094845285842084915b83831061051b57505050508451938085019181865251809252858501868360051b8701019493965b8388106104dd5786860387f35b9091929394838061050a600193603f198b820301875285838b518051845201519181858201520190610655565b9701930197019690939291936104d0565b6002886001928b9a97989a5161053081610568565b8554815261053f85870161070c565b83820152815201920192019190969493966104a8565b846041602492634e487b7160e01b835252fd5b6040810190811067ffffffffffffffff82111761058457604052565b634e487b7160e01b600052604160045260246000fd5b90601f8019910116810190811067ffffffffffffffff82111761058457604052565b67ffffffffffffffff811161058457601f01601f191660200190565b9291926105e4826105bc565b916105f2604051938461059a565b82948184528183011161060f578281602093846000960137010152565b600080fd5b9080601f8301121561060f5781602061062f933591016105d8565b90565b60005b8381106106455750506000910152565b8181015183820152602001610635565b9060209161066e81518092818552858086019101610632565b601f01601f1916010190565b602090610694928260405194838680955193849201610632565b82019081520301902090565b80548210156106bc5760005260206000209060011b0190600090565b634e487b7160e01b600052603260045260246000fd5b90600182811c92168015610702575b60208310146106ec57565b634e487b7160e01b600052602260045260246000fd5b91607f16916106e1565b9060405191826000825492610720846106d2565b90818452600194858116908160001461078f575060011461074c575b505061074a9250038361059a565b565b9093915060005260209081600020936000915b81831061077757505061074a9350820101388061073c565b8554888401850152948501948794509183019161075f565b91505061074a94506020925060ff191682840152151560051b820101388061073c565b9181601f8401121561060f5782359167ffffffffffffffff831161060f576020808501948460051b01011161060f57565b604060031982011261060f5767ffffffffffffffff9160043583811161060f5782610810916004016107b2565b9390939260243591821161060f5761082a916004016107b2565b9091565b6003199060208183011261060f576004359167ffffffffffffffff831161060f57826101409203011261060f5760040190565b91908110156106bc5760051b0190565b91908110156106bc5760051b8101359061013e198136030182121561060f570190565b909192349160009182935b8585106108b25750505050505050600190565b6108bd858389610861565b35908082116108f1576108d46100cf878987610871565b156108e657906001910394019361089f565b505050509250505090565b60046040517f11011294000000000000000000000000000000000000000000000000000000008152fd5b909192349160009182935b8585106109395750505050505050600190565b610944858389610861565b35908082116108f15761095b610188878987610871565b156108e6579060019103940193610926565b73ffffffffffffffffffffffffffffffffffffffff7f00000000000000000000000000000000000000000000000000000000000000001633036109ac57565b60046040517f4ca88867000000000000000000000000000000000000000000000000000000008152fd5b806000917a184f03e93ff9f4daa797ed6e38ed64bf6a1f01000000000000000080821015610b3d575b506d04ee2d6d415b85acef810000000080831015610b2e575b50662386f26fc1000080831015610b1f575b506305f5e10080831015610b10575b5061271080831015610b01575b506064821015610af1575b600a80921015610ae7575b60019081602181860195610a6f876105bc565b96610a7d604051988961059a565b808852610a8c601f19916105bc565b01366020890137860101905b610aa4575b5050505090565b600019019083907f30313233343536373839616263646566000000000000000000000000000000008282061a835304918215610ae257919082610a98565b610a9d565b9160010191610a5c565b9190606460029104910191610a51565b60049193920491019138610a46565b60089193920491019138610a39565b60109193920491019138610a2a565b60209193920491019138610a18565b6040935081049150386109ff565b81601f8201121561060f578051610b61816105bc565b92610b6f604051948561059a565b8184526020828401011161060f5761062f9160208085019101610632565b805181019160209060c08383860195031261060f57818301519167ffffffffffffffff9283811161060f578582610bc692870101610b4b565b92604085015181811161060f578683610be192880101610b4b565b95606086015182811161060f578184610bfc92890101610b4b565b50608086015182811161060f578184610c1792890101610b4b565b5060a086015191821161060f5760c092610c3392870101610b4b565b9301519193929190565b903590601e198136030182121561060f570180359067ffffffffffffffff821161060f5760200191813603831361060f57565b818110610c7b575050565b60008155600101610c70565b9190601f8111610c9657505050565b61074a926000526020600020906020601f840160051c83019310610cc2575b601f0160051c0190610c70565b9091508190610cb5565b90610ce861012c610ce1610120850185610c3d565b36916105d8565b5090939160405192610cf984610568565b358352610d3160209586850193845286610d1c6040519485815193849201610632565b8301928781600095868152030190209061067a565b92835468010000000000000000811015610e5057610d569060019586820181556106a0565b919091610e3d579084915181550191519081519167ffffffffffffffff8311610e2957610d8d83610d8786546106d2565b86610c87565b8691601f8411600114610dc75783949596975092610dbc575b5050600019600383901b1c191690831b17905590565b015190503880610da6565b9190601f1984169785845280842093905b898210610e125750508386979896959610610df9575b505050811b01905590565b015160001960f88460031b161c19169055388080610dee565b808885968294968601518155019501930190610dd8565b602482634e487b7160e01b81526041600452fd5b602483634e487b7160e01b815280600452fd5b602483634e487b7160e01b81526041600452fd5b90808214610f3957610e7681546106d2565b9067ffffffffffffffff8211610584578190610e9682610d8786546106d2565b600090601f8311600114610ecd57600092610ec2575b50508160011b916000199060031b1c1916179055565b015490503880610eac565b81526020808220858352818320935090601f1985169083905b828210610f20575050908460019594939210610f07575b505050811b019055565b015460001960f88460031b161c19169055388080610efd565b8495819295850154815560018091019601940190610ee6565b5050565b818103610f48575050565b6001808361074a94548455019101610e64565b818114610f3957815491680100000000000000008311610584578154838355808410610fc3575b506000526020600020906000526020600020906000905b838210610fa65750505050565b80610fb360019285610f3d565b6002809101930191019091610f99565b7f7fffffffffffffffffffffffffffffffffffffffffffffffffffffffffffffff808216820361107c578416840361107c576000838152602080822092600190811b84019387821b015b84811061101d5750505050610f82565b8084600292558483820161103181546106d2565b80611040575b5050500161100d565b82601f80831160011461105a57505050555b843880611037565b838252888220939192611075910160051c8401888501610c70565b5555611052565b634e487b7160e01b600052601160045260246000fd5b906110a761012c610ce1610120850185610c3d565b505091906040519281516020906110db828501916110c6818985610632565b87019683816000998a8152030190208461067a565b93865b85548082101561125c576110f282886106a0565b50548a35146111215750600019811461110d576001016110de565b602488634e487b7160e01b81526011600452fd5b919293949596979850600019918281019081116112485761114561114d91896106a0565b5091886106a0565b611235579061115b91610f3d565b85548015611221570161116e81876106a0565b61120e57976111c39594926111b49492828b816111c89c9d55600180910161119681546106d2565b806111cd575b5050505088555b604051948593849251928391610632565b8201908152030190209061067a565b610f5b565b600190565b83601f938483116001146111eb575050509050555b8238808061119c565b839294829461120793528b8520950160051c8501908501610c70565b55556111e2565b602489634e487b7160e01b815280600452fd5b602489634e487b7160e01b81526031600452fd5b60248a634e487b7160e01b815280600452fd5b60248a634e487b7160e01b81526011600452fd5b50506111c394959750906111c8966111b493926111a356fea26469706673582212202acafce8c6fbe5cd221a84d2e739bae30eaff499c8a4feb72d86813477a4347764736f6c63430008130033",
  "devdoc": {
    "kind": "dev",
    "methods": {
      "attest((bytes32,bytes32,uint64,uint64,uint64,bytes32,address,address,bool,bytes))": {
        "details": "Processes an attestation and verifies whether it's valid.",
        "params": {
          "attestation": "The new attestation."
        },
        "returns": {
          "_0": "Whether the attestation is valid."
        }
      },
      "isPayable()": {
        "details": "Returns whether the resolver supports ETH transfers."
      },
      "multiAttest((bytes32,bytes32,uint64,uint64,uint64,bytes32,address,address,bool,bytes)[],uint256[])": {
        "details": "Processes multiple attestations and verifies whether they are valid.",
        "params": {
          "attestations": "The new attestations.",
          "values": "Explicit ETH amounts which were sent with each attestation."
        },
        "returns": {
          "_0": "Whether all the attestations are valid."
        }
      },
      "multiRevoke((bytes32,bytes32,uint64,uint64,uint64,bytes32,address,address,bool,bytes)[],uint256[])": {
        "details": "Processes revocation of multiple attestation and verifies they can be revoked.",
        "params": {
          "attestations": "The existing attestations to be revoked.",
          "values": "Explicit ETH amounts which were sent with each revocation."
        },
        "returns": {
          "_0": "Whether the attestations can be revoked."
        }
      },
      "revoke((bytes32,bytes32,uint64,uint64,uint64,bytes32,address,address,bool,bytes))": {
        "details": "Processes an attestation revocation and verifies if it can be revoked.",
        "params": {
          "attestation": "The existing attestation to be revoked."
        },
        "returns": {
          "_0": "Whether the attestation can be revoked."
        }
      },
      "version()": {
        "returns": {
          "_0": "Semver contract version as a string."
        }
      }
    },
    "version": 1
  },
  "userdoc": {
    "kind": "user",
    "methods": {
      "decode(bytes)": {
        "notice": "Decodes the schema"
      },
      "version()": {
        "notice": "Returns the full semver contract version."
      }
    },
    "version": 1
  },
  "storageLayout": {
    "storage": [
      {
        "astId": 6775,
        "contract": "contracts/dynamic-nft/DevSchemaResolver.sol:DevSchemaResolver",
        "label": "devAttestations",
        "offset": 0,
        "slot": "0",
        "type": "t_mapping(t_string_memory_ptr,t_mapping(t_string_memory_ptr,t_array(t_struct(AttestationData)6767_storage)dyn_storage))"
      },
      {
        "astId": 6777,
        "contract": "contracts/dynamic-nft/DevSchemaResolver.sol:DevSchemaResolver",
        "label": "_owner",
        "offset": 0,
        "slot": "1",
        "type": "t_address"
      }
    ],
    "types": {
      "t_address": {
        "encoding": "inplace",
        "label": "address",
        "numberOfBytes": "20"
      },
      "t_array(t_struct(AttestationData)6767_storage)dyn_storage": {
        "base": "t_struct(AttestationData)6767_storage",
        "encoding": "dynamic_array",
        "label": "struct DevSchemaResolver.AttestationData[]",
        "numberOfBytes": "32"
      },
      "t_bytes32": {
        "encoding": "inplace",
        "label": "bytes32",
        "numberOfBytes": "32"
      },
      "t_mapping(t_string_memory_ptr,t_array(t_struct(AttestationData)6767_storage)dyn_storage)": {
        "encoding": "mapping",
        "key": "t_string_memory_ptr",
        "label": "mapping(string => struct DevSchemaResolver.AttestationData[])",
        "numberOfBytes": "32",
        "value": "t_array(t_struct(AttestationData)6767_storage)dyn_storage"
      },
      "t_mapping(t_string_memory_ptr,t_mapping(t_string_memory_ptr,t_array(t_struct(AttestationData)6767_storage)dyn_storage))": {
        "encoding": "mapping",
        "key": "t_string_memory_ptr",
        "label": "mapping(string => mapping(string => struct DevSchemaResolver.AttestationData[]))",
        "numberOfBytes": "32",
        "value": "t_mapping(t_string_memory_ptr,t_array(t_struct(AttestationData)6767_storage)dyn_storage)"
      },
      "t_string_memory_ptr": {
        "encoding": "bytes",
        "label": "string",
        "numberOfBytes": "32"
      },
      "t_string_storage": {
        "encoding": "bytes",
        "label": "string",
        "numberOfBytes": "32"
      },
      "t_struct(AttestationData)6767_storage": {
        "encoding": "inplace",
        "label": "struct DevSchemaResolver.AttestationData",
        "members": [
          {
            "astId": 6764,
            "contract": "contracts/dynamic-nft/DevSchemaResolver.sol:DevSchemaResolver",
            "label": "uid",
            "offset": 0,
            "slot": "0",
            "type": "t_bytes32"
          },
          {
            "astId": 6766,
            "contract": "contracts/dynamic-nft/DevSchemaResolver.sol:DevSchemaResolver",
            "label": "prUrl",
            "offset": 0,
            "slot": "1",
            "type": "t_string_storage"
          }
        ],
        "numberOfBytes": "64"
      }
    }
  }
}