{
  "address": "0x0AD5c80B8217F4d8aC843730fc2D6b9572BDCf6f",
  "abi": [
    {
      "inputs": [
        {
          "internalType": "string",
          "name": "_name",
          "type": "string"
        },
        {
          "internalType": "string",
          "name": "_symbol",
          "type": "string"
        },
        {
          "internalType": "address",
          "name": "_nftRenderer",
          "type": "address"
        }
      ],
      "stateMutability": "nonpayable",
      "type": "constructor"
    },
    {
      "anonymous": false,
      "inputs": [
        {
          "indexed": true,
          "internalType": "address",
          "name": "owner",
          "type": "address"
        },
        {
          "indexed": true,
          "internalType": "address",
          "name": "approved",
          "type": "address"
        },
        {
          "indexed": true,
          "internalType": "uint256",
          "name": "tokenId",
          "type": "uint256"
        }
      ],
      "name": "Approval",
      "type": "event"
    },
    {
      "anonymous": false,
      "inputs": [
        {
          "indexed": true,
          "internalType": "address",
          "name": "owner",
          "type": "address"
        },
        {
          "indexed": true,
          "internalType": "address",
          "name": "operator",
          "type": "address"
        },
        {
          "indexed": false,
          "internalType": "bool",
          "name": "approved",
          "type": "bool"
        }
      ],
      "name": "ApprovalForAll",
      "type": "event"
    },
    {
      "anonymous": false,
      "inputs": [
        {
          "indexed": true,
          "internalType": "address",
          "name": "previousOwner",
          "type": "address"
        },
        {
          "indexed": true,
          "internalType": "address",
          "name": "newOwner",
          "type": "address"
        }
      ],
      "name": "OwnershipTransferred",
      "type": "event"
    },
    {
      "anonymous": false,
      "inputs": [
        {
          "indexed": true,
          "internalType": "address",
          "name": "from",
          "type": "address"
        },
        {
          "indexed": true,
          "internalType": "address",
          "name": "to",
          "type": "address"
        },
        {
          "indexed": true,
          "internalType": "uint256",
          "name": "tokenId",
          "type": "uint256"
        }
      ],
      "name": "Transfer",
      "type": "event"
    },
    {
      "inputs": [],
      "name": "_owner",
      "outputs": [
        {
          "internalType": "address",
          "name": "",
          "type": "address"
        }
      ],
      "stateMutability": "view",
      "type": "function"
    },
    {
      "inputs": [
        {
          "internalType": "address",
          "name": "to",
          "type": "address"
        },
        {
          "internalType": "uint256",
          "name": "tokenId",
          "type": "uint256"
        }
      ],
      "name": "approve",
      "outputs": [],
      "stateMutability": "nonpayable",
      "type": "function"
    },
    {
      "inputs": [
        {
          "internalType": "address",
          "name": "owner",
          "type": "address"
        }
      ],
      "name": "balanceOf",
      "outputs": [
        {
          "internalType": "uint256",
          "name": "",
          "type": "uint256"
        }
      ],
      "stateMutability": "view",
      "type": "function"
    },
    {
      "inputs": [
        {
          "internalType": "uint256",
          "name": "tokenId",
          "type": "uint256"
        }
      ],
      "name": "getApproved",
      "outputs": [
        {
          "internalType": "address",
          "name": "",
          "type": "address"
        }
      ],
      "stateMutability": "view",
      "type": "function"
    },
    {
      "inputs": [
        {
          "internalType": "address",
          "name": "owner",
          "type": "address"
        },
        {
          "internalType": "string",
          "name": "metadata",
          "type": "string"
        }
      ],
      "name": "getTokenIdByAddressAndMetadata",
      "outputs": [
        {
          "internalType": "uint256",
          "name": "",
          "type": "uint256"
        }
      ],
      "stateMutability": "view",
      "type": "function"
    },
    {
      "inputs": [
        {
          "internalType": "address",
          "name": "owner",
          "type": "address"
        },
        {
          "internalType": "address",
          "name": "operator",
          "type": "address"
        }
      ],
      "name": "isApprovedForAll",
      "outputs": [
        {
          "internalType": "bool",
          "name": "",
          "type": "bool"
        }
      ],
      "stateMutability": "view",
      "type": "function"
    },
    {
      "inputs": [
        {
          "internalType": "address",
          "name": "receiver",
          "type": "address"
        },
        {
          "internalType": "string",
          "name": "metadata",
          "type": "string"
        }
      ],
      "name": "mintToken",
      "outputs": [],
      "stateMutability": "nonpayable",
      "type": "function"
    },
    {
      "inputs": [],
      "name": "name",
      "outputs": [
        {
          "internalType": "string",
          "name": "",
          "type": "string"
        }
      ],
      "stateMutability": "view",
      "type": "function"
    },
    {
      "inputs": [
        {
          "internalType": "uint256",
          "name": "",
          "type": "uint256"
        }
      ],
      "name": "nftMetadata",
      "outputs": [
        {
          "internalType": "string",
          "name": "",
          "type": "string"
        }
      ],
      "stateMutability": "view",
      "type": "function"
    },
    {
      "inputs": [],
      "name": "nftRenderer",
      "outputs": [
        {
          "internalType": "contract NFTRenderer",
          "name": "",
          "type": "address"
        }
      ],
      "stateMutability": "view",
      "type": "function"
    },
    {
      "inputs": [
        {
          "internalType": "address",
          "name": "",
          "type": "address"
        },
        {
          "internalType": "string",
          "name": "",
          "type": "string"
        }
      ],
      "name": "nftToOwner",
      "outputs": [
        {
          "internalType": "uint256",
          "name": "",
          "type": "uint256"
        }
      ],
      "stateMutability": "view",
      "type": "function"
    },
    {
      "inputs": [],
      "name": "owner",
      "outputs": [
        {
          "internalType": "address",
          "name": "",
          "type": "address"
        }
      ],
      "stateMutability": "view",
      "type": "function"
    },
    {
      "inputs": [
        {
          "internalType": "uint256",
          "name": "tokenId",
          "type": "uint256"
        }
      ],
      "name": "ownerOf",
      "outputs": [
        {
          "internalType": "address",
          "name": "",
          "type": "address"
        }
      ],
      "stateMutability": "view",
      "type": "function"
    },
    {
      "inputs": [],
      "name": "renounceOwnership",
      "outputs": [],
      "stateMutability": "nonpayable",
      "type": "function"
    },
    {
      "inputs": [
        {
          "internalType": "address",
          "name": "from",
          "type": "address"
        },
        {
          "internalType": "address",
          "name": "to",
          "type": "address"
        },
        {
          "internalType": "uint256",
          "name": "tokenId",
          "type": "uint256"
        }
      ],
      "name": "safeTransferFrom",
      "outputs": [],
      "stateMutability": "nonpayable",
      "type": "function"
    },
    {
      "inputs": [
        {
          "internalType": "address",
          "name": "from",
          "type": "address"
        },
        {
          "internalType": "address",
          "name": "to",
          "type": "address"
        },
        {
          "internalType": "uint256",
          "name": "tokenId",
          "type": "uint256"
        },
        {
          "internalType": "bytes",
          "name": "data",
          "type": "bytes"
        }
      ],
      "name": "safeTransferFrom",
      "outputs": [],
      "stateMutability": "nonpayable",
      "type": "function"
    },
    {
      "inputs": [
        {
          "internalType": "address",
          "name": "operator",
          "type": "address"
        },
        {
          "internalType": "bool",
          "name": "approved",
          "type": "bool"
        }
      ],
      "name": "setApprovalForAll",
      "outputs": [],
      "stateMutability": "nonpayable",
      "type": "function"
    },
    {
      "inputs": [
        {
          "internalType": "address",
          "name": "_nftRenderer",
          "type": "address"
        }
      ],
      "name": "setNFTRenderer",
      "outputs": [],
      "stateMutability": "nonpayable",
      "type": "function"
    },
    {
      "inputs": [
        {
          "internalType": "bytes4",
          "name": "interfaceId",
          "type": "bytes4"
        }
      ],
      "name": "supportsInterface",
      "outputs": [
        {
          "internalType": "bool",
          "name": "",
          "type": "bool"
        }
      ],
      "stateMutability": "view",
      "type": "function"
    },
    {
      "inputs": [],
      "name": "symbol",
      "outputs": [
        {
          "internalType": "string",
          "name": "",
          "type": "string"
        }
      ],
      "stateMutability": "view",
      "type": "function"
    },
    {
      "inputs": [],
      "name": "tokenId",
      "outputs": [
        {
          "internalType": "uint256",
          "name": "",
          "type": "uint256"
        }
      ],
      "stateMutability": "view",
      "type": "function"
    },
    {
      "inputs": [
        {
          "internalType": "uint256",
          "name": "id",
          "type": "uint256"
        }
      ],
      "name": "tokenURI",
      "outputs": [
        {
          "internalType": "string",
          "name": "",
          "type": "string"
        }
      ],
      "stateMutability": "view",
      "type": "function"
    },
    {
      "inputs": [
        {
          "internalType": "address",
          "name": "from",
          "type": "address"
        },
        {
          "internalType": "address",
          "name": "to",
          "type": "address"
        },
        {
          "internalType": "uint256",
          "name": "tokenId",
          "type": "uint256"
        }
      ],
      "name": "transferFrom",
      "outputs": [],
      "stateMutability": "nonpayable",
      "type": "function"
    },
    {
      "inputs": [
        {
          "internalType": "address",
          "name": "newOwner",
          "type": "address"
        }
      ],
      "name": "transferOwnership",
      "outputs": [],
      "stateMutability": "nonpayable",
      "type": "function"
    }
  ],
  "transactionHash": "0x2aa0be8325e88b909a8622f7f289196d84d0c88741a4846e47048e890e146263",
  "args": [
    "KARMADEV",
    "Karma Dev Reputation",
    "0x84d2De05B84a0663680566928974eE31d9F4ab41"
  ],
  "solcInputHash": "739bd3a9285a369764a16e98acf5a6c0",
  "bytecode": "0x608060405234620003a15762001c7f803803806200001d81620003a6565b9283398101606082820312620003a15781516001600160401b0390818111620003a157826200004e918501620003cc565b60209283850151838111620003a1576040916200006d918701620003cc565b9401516001600160a01b03948582169391849003620003a1578251908282116200038b576000958654926001958685811c9516801562000380575b838610146200036c578190601f9586811162000319575b508390868311600114620002b5578a92620002a9575b5050600019600383901b1c191690861b1787555b8151938411620002955784548581811c911680156200028a575b82821014620002765790818486959493116200021f575b5080928411600114620001b757508692620001ab575b5050600019600383901b1c191690821b1790555b600780546001600160a01b0319808216339081179093556040519590949291167f8be0079c531659141344cd1fd0a4f28419497f9722a3daafe3b4186f6b6457e08380a36008558160095416176009553390600c541617600c5561184090816200043f8239f35b01519050388062000130565b9190859450601f1984168589528389209389905b828210620002055750508411620001eb575b505050811b01905562000144565b015160001960f88460031b161c19169055388080620001dd565b8484015186558897909501949384019390810190620001cb565b90919293508588528188208480870160051c8201928488106200026c575b9187968992969594930160051c01915b8281106200025d5750506200011a565b8a81558796508891016200024d565b925081926200023d565b634e487b7160e01b88526022600452602488fd5b90607f169062000103565b634e487b7160e01b87526041600452602487fd5b015190503880620000d5565b8a8052848b208994509190601f1984168c5b87828210620003025750508411620002e8575b505050811b018755620000e9565b015160001960f88460031b161c19169055388080620002da565b8385015186558c97909501949384019301620002c7565b909150898052838a208680850160051c82019286861062000362575b918a91869594930160051c01915b82811062000353575050620000bf565b8c81558594508a910162000343565b9250819262000335565b634e487b7160e01b89526022600452602489fd5b94607f1694620000a8565b634e487b7160e01b600052604160045260246000fd5b600080fd5b6040519190601f01601f191682016001600160401b038111838210176200038b57604052565b919080601f84011215620003a15782516001600160401b0381116200038b5760209062000402601f8201601f19168301620003a6565b92818452828287010111620003a15760005b8181106200042a57508260009394955001015290565b85810183015184820184015282016200041456fe6080604081815260048036101561001557600080fd5b600092833560e01c90816301ffc9a714610e1d5750806306fdde0314610df8578063081812fc14610dd0578063095ea7b314610c495780630a5301c314610c0a57806317d70f7c14610beb57806323b872dd14610bc15780633d02d0c91461085c57806342842e0e1461080d57806349541015146107d35780636352211e146107a3578063643197ec1461065257806370a08231146106f9578063715018a61461069e5780637dd4cf82146106525780638da5cb5b1461062a57806395d89b4114610547578063a22cb4651461047c578063a88432c514610454578063b2bdfa7b1461042c578063b88d4fde146103c4578063c87b56dd1461025b578063e985e9c5146102095763f2fde38b1461012b57600080fd5b3461020557602036600319011261020557610144610f35565b9061014d6111ee565b6001600160a01b0380921692831561019c575050600754826001600160a01b0319821617600755167f8be0079c531659141344cd1fd0a4f28419497f9722a3daafe3b4186f6b6457e08380a380f35b906020608492519162461bcd60e51b8352820152602660248201527f4f776e61626c653a206e6577206f776e657220697320746865207a65726f206160448201527f64647265737300000000000000000000000000000000000000000000000000006064820152fd5b8280fd5b50503461025757806003193601126102575760ff81602093610229610f35565b610231610f50565b6001600160a01b0391821683526005875283832091168252855220549151911615158152f35b5080fd5b509034610205576020918360031991848336011261025757803561027e81611291565b6001600160a01b03908160095416926103058851976102a7896102a0816110b4565b038a610f9b565b828852600a8b528988206102f68b519a8b998a9889987f7dd75e72000000000000000000000000000000000000000000000000000000008a521690880152608060248801526084870190610f10565b91858303016044860152611158565b90606483015203915afa9384156103b9578094610336575b50506103329051928284938452830190610f10565b0390f35b909193503d8082843e6103498184610f9b565b82019183818403126102575780519067ffffffffffffffff8211610205570182601f820112156102575780519161037f83610fd3565b9361038c87519586610f9b565b8385528584840101116103b6575082916103ae91858061033296019101610eed565b92903861031d565b80fd5b8251903d90823e3d90fd5b838234610257576080366003190112610257576103df610f35565b6103e7610f50565b9060643567ffffffffffffffff81116104285736602382011215610428576104259381602461041b93369301359101610fef565b9160443591611366565b80f35b8480fd5b5050346102575781600319360112610257576020906001600160a01b03600c54169051908152f35b5050346102575781600319360112610257576020906001600160a01b03600954169051908152f35b509034610205578060031936011261020557610496610f35565b9060243591821515809303610428576001600160a01b0316928333146105055750338452600560205280842083855260205280842060ff1981541660ff8416179055519081527f17307eab39ab6107e8899845ad3d59bd9653f200f220920489ca2b5937696c3160203392a380f35b6020606492519162461bcd60e51b8352820152601960248201527f4552433732313a20617070726f766520746f2063616c6c6572000000000000006044820152fd5b50503461025757816003193601126102575780519082600180549161056b8361107a565b8086529282811690811561060257506001146105a6575b50505061059482610332940383610f9b565b51918291602083526020830190610f10565b94508085527fb10e2d527612073b26eecdfd717e6a320cf44b4afac2b0732d9fcbe2b7fa0cf65b8286106105ea575050506105948260206103329582010194610582565b805460208787018101919091529095019481016105cd565b61033297508693506020925061059494915060ff191682840152151560051b82010194610582565b5050346102575781600319360112610257576020906001600160a01b03600754169051908152f35b5050346102575761068d60206001600160a01b0383829561067236611026565b93168152600b84522082855194838680955193849201610eed565b820190815203019020549051908152f35b83346103b657806003193601126103b6576106b76111ee565b806001600160a01b036007546001600160a01b03198116600755167f8be0079c531659141344cd1fd0a4f28419497f9722a3daafe3b4186f6b6457e08280a380f35b50829034610257576020366003190112610257576001600160a01b0361071d610f35565b1690811561073a5760208480858581526003845220549051908152f35b608490602085519162461bcd60e51b8352820152602960248201527f4552433732313a2061646472657373207a65726f206973206e6f74206120766160448201527f6c6964206f776e657200000000000000000000000000000000000000000000006064820152fd5b5091346103b65760203660031901126103b657506001600160a01b036107cb60209335611291565b915191168152f35b50346102055760203660031901126102055790610594816103329461080694358152600a60205220825193848092611158565b0383610f9b565b509190346102575761081e36610f66565b91835193602085019085821067ffffffffffffffff8311176108495761042596975052858452611366565b60248760418a634e487b7160e01b835252fd5b509190346102575761086d36611026565b60095483517fd0efc89e0000000000000000000000000000000000000000000000000000000081526001600160a01b0393841687820181905260248201869052946020949092859183911681806108c76044820189610f10565b03915afa908115610bb7578691610b7d575b5015610b3b5760085495600196878101809111610b2857806008558515610ae75761092361091d8260005260026020526001600160a01b0360406000205416151590565b156117bf565b61094661091d8260005260026020526001600160a01b0360406000205416151590565b8587526003855282872088815401905580875260028552828720866001600160a01b031982541617905585877fddf252ad1be2c89b69c2b068fc378daa952ba7f163c4a11628f55a4df523b3ef8180a46008548652600a84528186209083519067ffffffffffffffff8211610ad457506109c0825461107a565b601f8111610a8e575b508497601f8211600114610a2f57818091899a610a17999a93610a24575b501b916000199060031b1c19161790555b600854948652600b835282818720915194838680955193849201610eed565b8201908152030190205580f35b8701519250386109e7565b90601f1981169883895286892090895b8b8110610a79575082610a17999a9b10610a60575b5050811b0190556109f8565b86015160001960f88460031b161c191690553880610a54565b87820151835591840191908801908801610a3f565b828852858820601f830160051c810191878410610aca575b601f0160051c019089905b828110610abf5750506109c9565b898155018990610ab1565b9091508190610aa6565b876041602492634e487b7160e01b835252fd5b508380606493519262461bcd60e51b845283015260248201527f4552433732313a206d696e7420746f20746865207a65726f20616464726573736044820152fd5b602487601184634e487b7160e01b835252fd5b8583606492519162461bcd60e51b8352820152601460248201527f4e6f7420656c696769626c6520746f206d696e740000000000000000000000006044820152fd5b90508381813d8311610bb0575b610b948183610f9b565b81010312610bac57518015158103610bac57386108d9565b8580fd5b503d610b8a565b82513d88823e3d90fd5b83346103b657610425610bd336610f66565b91610be6610be184336113fc565b6112f5565b6114db565b5050346102575781600319360112610257576020906008549051908152f35b83346103b65760203660031901126103b6576001600160a01b03610c2c610f35565b610c346111ee565b166001600160a01b0319600954161760095580f35b5034610205578160031936011261020557610c62610f35565b90602435926001600160a01b03918280610c7b87611291565b16941693808514610d6757803314908115610d48575b5015610ce0578486526020528420826001600160a01b0319825416179055610cb883611291565b167f8c5be1e5ebec7d5bd14f71427d1e84f3dd0314c0f7b2291e5b200ac8c7c3b9258480a480f35b6020608492519162461bcd60e51b8352820152603d60248201527f4552433732313a20617070726f76652063616c6c6572206973206e6f7420746f60448201527f6b656e206f776e6572206f7220617070726f76656420666f7220616c6c0000006064820152fd5b90508652600560205281862033875260205260ff828720541638610c91565b506020608492519162461bcd60e51b8352820152602160248201527f4552433732313a20617070726f76616c20746f2063757272656e74206f776e6560448201527f72000000000000000000000000000000000000000000000000000000000000006064820152fd5b5091346103b65760203660031901126103b657506001600160a01b036107cb602093356112b3565b50503461025757816003193601126102575780516103329161059482610806816110b4565b9250503461020557602036600319011261020557357fffffffff00000000000000000000000000000000000000000000000000000000811680910361020557602092507f80ac58cd000000000000000000000000000000000000000000000000000000008114908115610ec3575b8115610e99575b5015158152f35b7f01ffc9a70000000000000000000000000000000000000000000000000000000091501438610e92565b7f5b5e139f0000000000000000000000000000000000000000000000000000000081149150610e8b565b60005b838110610f005750506000910152565b8181015183820152602001610ef0565b90602091610f2981518092818552858086019101610eed565b601f01601f1916010190565b600435906001600160a01b0382168203610f4b57565b600080fd5b602435906001600160a01b0382168203610f4b57565b6060906003190112610f4b576001600160a01b03906004358281168103610f4b57916024359081168103610f4b579060443590565b90601f8019910116810190811067ffffffffffffffff821117610fbd57604052565b634e487b7160e01b600052604160045260246000fd5b67ffffffffffffffff8111610fbd57601f01601f191660200190565b929192610ffb82610fd3565b916110096040519384610f9b565b829481845281830111610f4b578281602093846000960137010152565b906040600319830112610f4b576004356001600160a01b0381168103610f4b57916024359067ffffffffffffffff8211610f4b5780602383011215610f4b5781602461107793600401359101610fef565b90565b90600182811c921680156110aa575b602083101461109457565b634e487b7160e01b600052602260045260246000fd5b91607f1691611089565b90600091600054906110c58261107a565b8082529160019081811690811561113b57506001146110e357505050565b91929350600080527f290decd9548b62a8d60345a988386fc84ba6bc95484008f6362f93160ef3e563916000925b84841061112357505060209250010190565b80546020858501810191909152909301928101611111565b915050602093945060ff929192191683830152151560051b010190565b90600092918054916111698361107a565b9182825260019384811690816000146111cb575060011461118b575b50505050565b90919394506000526020928360002092846000945b8386106111b7575050505001019038808080611185565b8054858701830152940193859082016111a0565b9294505050602093945060ff191683830152151560051b01019038808080611185565b6001600160a01b0360075416330361120257565b606460405162461bcd60e51b815260206004820152602060248201527f4f776e61626c653a2063616c6c6572206973206e6f7420746865206f776e65726044820152fd5b1561124d57565b606460405162461bcd60e51b815260206004820152601860248201527f4552433732313a20696e76616c696420746f6b656e20494400000000000000006044820152fd5b60005260026020526001600160a01b0360406000205416611077811515611246565b6112db6112d68260005260026020526001600160a01b0360406000205416151590565b611246565b60005260046020526001600160a01b036040600020541690565b156112fc57565b608460405162461bcd60e51b815260206004820152602d60248201527f4552433732313a2063616c6c6572206973206e6f7420746f6b656e206f776e6560448201527f72206f7220617070726f766564000000000000000000000000000000000000006064820152fd5b9061138a93929161137a610be184336113fc565b6113858383836114db565b611602565b1561139157565b60405162461bcd60e51b815260206004820152603260248201527f4552433732313a207472616e7366657220746f206e6f6e20455243373231526560448201527f63656976657220696d706c656d656e74657200000000000000000000000000006064820152608490fd5b906001600160a01b03808061141084611291565b16931691838314938415611443575b50831561142d575b50505090565b611439919293506112b3565b1614388080611427565b909350600052600560205260406000208260005260205260ff60406000205416923861141f565b1561147157565b608460405162461bcd60e51b815260206004820152602560248201527f4552433732313a207472616e736665722066726f6d20696e636f72726563742060448201527f6f776e65720000000000000000000000000000000000000000000000000000006064820152fd5b90611503916114e984611291565b916001600160a01b0393849384809416948591161461146a565b1691821561159957816115209161151986611291565b161461146a565b7fddf252ad1be2c89b69c2b068fc378daa952ba7f163c4a11628f55a4df523b3ef60008481526004602052604081206001600160a01b03199081815416905583825260036020526040822060001981540190558482526040822060018154019055858252600260205284604083209182541617905580a4565b608460405162461bcd60e51b8152602060048201526024808201527f4552433732313a207472616e7366657220746f20746865207a65726f2061646460448201527f72657373000000000000000000000000000000000000000000000000000000006064820152fd5b9293600093909291803b156117b45794849161167696604051809481937f150b7a0200000000000000000000000000000000000000000000000000000000978884523360048501526001600160a01b0380921660248501526044840152608060648401528260209b8c976084830190610f10565b0393165af184918161175c575b50611733575050503d60001461172b573d61169d81610fd3565b906116ab6040519283610f9b565b81528091833d92013e5b805191826117285760405162461bcd60e51b815260206004820152603260248201527f4552433732313a207472616e7366657220746f206e6f6e20455243373231526560448201527f63656976657220696d706c656d656e74657200000000000000000000000000006064820152608490fd5b01fd5b5060606116b5565b7fffffffff00000000000000000000000000000000000000000000000000000000161492509050565b9091508581813d83116117ad575b6117748183610f9b565b8101031261042857517fffffffff0000000000000000000000000000000000000000000000000000000081168103610428579038611683565b503d61176a565b505050915050600190565b156117c657565b606460405162461bcd60e51b815260206004820152601c60248201527f4552433732313a20746f6b656e20616c7265616479206d696e746564000000006044820152fdfea264697066735822122002265d2e5306c322ab404adcf1900cb54a22cfc4de7d13433b2c58ed38c9a2ca64736f6c63430008130033",
  "devdoc": {
    "events": {
      "Approval(address,address,uint256)": {
        "details": "Emitted when `owner` enables `approved` to manage the `tokenId` token."
      },
      "ApprovalForAll(address,address,bool)": {
        "details": "Emitted when `owner` enables or disables (`approved`) `operator` to manage all of its assets."
      },
      "Transfer(address,address,uint256)": {
        "details": "Emitted when `tokenId` token is transferred from `from` to `to`."
      }
    },
    "kind": "dev",
    "methods": {
      "approve(address,uint256)": {
        "details": "See {IERC721-approve}."
      },
      "balanceOf(address)": {
        "details": "See {IERC721-balanceOf}."
      },
      "getApproved(uint256)": {
        "details": "See {IERC721-getApproved}."
      },
      "isApprovedForAll(address,address)": {
        "details": "See {IERC721-isApprovedForAll}."
      },
      "name()": {
        "details": "See {IERC721Metadata-name}."
      },
      "owner()": {
        "details": "Returns the address of the current owner."
      },
      "ownerOf(uint256)": {
        "details": "See {IERC721-ownerOf}."
      },
      "renounceOwnership()": {
        "details": "Leaves the contract without owner. It will not be possible to call `onlyOwner` functions anymore. Can only be called by the current owner. NOTE: Renouncing ownership will leave the contract without an owner, thereby removing any functionality that is only available to the owner."
      },
      "safeTransferFrom(address,address,uint256)": {
        "details": "See {IERC721-safeTransferFrom}."
      },
      "safeTransferFrom(address,address,uint256,bytes)": {
        "details": "See {IERC721-safeTransferFrom}."
      },
      "setApprovalForAll(address,bool)": {
        "details": "See {IERC721-setApprovalForAll}."
      },
      "supportsInterface(bytes4)": {
        "details": "See {IERC165-supportsInterface}."
      },
      "symbol()": {
        "details": "See {IERC721Metadata-symbol}."
      },
      "transferFrom(address,address,uint256)": {
        "details": "See {IERC721-transferFrom}."
      },
      "transferOwnership(address)": {
        "details": "Transfers ownership of the contract to a new account (`newOwner`). Can only be called by the current owner."
      }
    },
    "version": 1
  },
  "userdoc": {
    "kind": "user",
    "methods": {},
    "version": 1
  },
  "storageLayout": {
    "storage": [
      {
        "astId": 958,
        "contract": "contracts/dynamic-nft/DynamicNFT.sol:DynamicNFT",
        "label": "_name",
        "offset": 0,
        "slot": "0",
        "type": "t_string_storage"
      },
      {
        "astId": 960,
        "contract": "contracts/dynamic-nft/DynamicNFT.sol:DynamicNFT",
        "label": "_symbol",
        "offset": 0,
        "slot": "1",
        "type": "t_string_storage"
      },
      {
        "astId": 964,
        "contract": "contracts/dynamic-nft/DynamicNFT.sol:DynamicNFT",
        "label": "_owners",
        "offset": 0,
        "slot": "2",
        "type": "t_mapping(t_uint256,t_address)"
      },
      {
        "astId": 968,
        "contract": "contracts/dynamic-nft/DynamicNFT.sol:DynamicNFT",
        "label": "_balances",
        "offset": 0,
        "slot": "3",
        "type": "t_mapping(t_address,t_uint256)"
      },
      {
        "astId": 972,
        "contract": "contracts/dynamic-nft/DynamicNFT.sol:DynamicNFT",
        "label": "_tokenApprovals",
        "offset": 0,
        "slot": "4",
        "type": "t_mapping(t_uint256,t_address)"
      },
      {
        "astId": 978,
        "contract": "contracts/dynamic-nft/DynamicNFT.sol:DynamicNFT",
        "label": "_operatorApprovals",
        "offset": 0,
        "slot": "5",
        "type": "t_mapping(t_address,t_mapping(t_address,t_bool))"
      },
      {
        "astId": 2035,
        "contract": "contracts/dynamic-nft/DynamicNFT.sol:DynamicNFT",
        "label": "_tokenURIs",
        "offset": 0,
        "slot": "6",
        "type": "t_mapping(t_uint256,t_string_storage)"
      },
      {
        "astId": 827,
        "contract": "contracts/dynamic-nft/DynamicNFT.sol:DynamicNFT",
        "label": "_owner",
        "offset": 0,
        "slot": "7",
        "type": "t_address"
      },
      {
        "astId": 4819,
        "contract": "contracts/dynamic-nft/DynamicNFT.sol:DynamicNFT",
        "label": "tokenId",
        "offset": 0,
        "slot": "8",
        "type": "t_uint256"
      },
      {
        "astId": 4822,
        "contract": "contracts/dynamic-nft/DynamicNFT.sol:DynamicNFT",
        "label": "nftRenderer",
        "offset": 0,
        "slot": "9",
        "type": "t_contract(NFTRenderer)5143"
      },
      {
        "astId": 4826,
        "contract": "contracts/dynamic-nft/DynamicNFT.sol:DynamicNFT",
        "label": "nftMetadata",
        "offset": 0,
        "slot": "10",
        "type": "t_mapping(t_uint256,t_string_storage)"
      },
      {
        "astId": 4832,
        "contract": "contracts/dynamic-nft/DynamicNFT.sol:DynamicNFT",
        "label": "nftToOwner",
        "offset": 0,
        "slot": "11",
        "type": "t_mapping(t_address,t_mapping(t_string_memory_ptr,t_uint256))"
      },
      {
        "astId": 4834,
        "contract": "contracts/dynamic-nft/DynamicNFT.sol:DynamicNFT",
        "label": "_owner",
        "offset": 0,
        "slot": "12",
        "type": "t_address"
      }
    ],
    "types": {
      "t_address": {
        "encoding": "inplace",
        "label": "address",
        "numberOfBytes": "20"
      },
      "t_bool": {
        "encoding": "inplace",
        "label": "bool",
        "numberOfBytes": "1"
      },
      "t_contract(NFTRenderer)5143": {
        "encoding": "inplace",
        "label": "contract NFTRenderer",
        "numberOfBytes": "20"
      },
      "t_mapping(t_address,t_bool)": {
        "encoding": "mapping",
        "key": "t_address",
        "label": "mapping(address => bool)",
        "numberOfBytes": "32",
        "value": "t_bool"
      },
      "t_mapping(t_address,t_mapping(t_address,t_bool))": {
        "encoding": "mapping",
        "key": "t_address",
        "label": "mapping(address => mapping(address => bool))",
        "numberOfBytes": "32",
        "value": "t_mapping(t_address,t_bool)"
      },
      "t_mapping(t_address,t_mapping(t_string_memory_ptr,t_uint256))": {
        "encoding": "mapping",
        "key": "t_address",
        "label": "mapping(address => mapping(string => uint256))",
        "numberOfBytes": "32",
        "value": "t_mapping(t_string_memory_ptr,t_uint256)"
      },
      "t_mapping(t_address,t_uint256)": {
        "encoding": "mapping",
        "key": "t_address",
        "label": "mapping(address => uint256)",
        "numberOfBytes": "32",
        "value": "t_uint256"
      },
      "t_mapping(t_string_memory_ptr,t_uint256)": {
        "encoding": "mapping",
        "key": "t_string_memory_ptr",
        "label": "mapping(string => uint256)",
        "numberOfBytes": "32",
        "value": "t_uint256"
      },
      "t_mapping(t_uint256,t_address)": {
        "encoding": "mapping",
        "key": "t_uint256",
        "label": "mapping(uint256 => address)",
        "numberOfBytes": "32",
        "value": "t_address"
      },
      "t_mapping(t_uint256,t_string_storage)": {
        "encoding": "mapping",
        "key": "t_uint256",
        "label": "mapping(uint256 => string)",
        "numberOfBytes": "32",
        "value": "t_string_storage"
      },
      "t_string_memory_ptr": {
        "encoding": "bytes",
        "label": "string",
        "numberOfBytes": "32"
      },
      "t_string_storage": {
        "encoding": "bytes",
        "label": "string",
        "numberOfBytes": "32"
      },
      "t_uint256": {
        "encoding": "inplace",
        "label": "uint256",
        "numberOfBytes": "32"
      }
    }
  }
}