{
  "address": "0x6455E470f9Ecee5755930c9979b559768BF53170",
  "abi": [
    {
      "inputs": [
        {
          "internalType": "contract IEAS",
          "name": "eas",
          "type": "address"
        }
      ],
      "stateMutability": "nonpayable",
      "type": "constructor"
    },
    {
      "inputs": [],
      "name": "AccessDenied",
      "type": "error"
    },
    {
      "inputs": [],
      "name": "InsufficientValue",
      "type": "error"
    },
    {
      "inputs": [],
      "name": "InvalidEAS",
      "type": "error"
    },
    {
      "inputs": [],
      "name": "NotPayable",
      "type": "error"
    },
    {
      "inputs": [
        {
          "internalType": "address",
          "name": "",
          "type": "address"
        }
      ],
      "name": "addressToHandle",
      "outputs": [
        {
          "internalType": "string",
          "name": "",
          "type": "string"
        }
      ],
      "stateMutability": "view",
      "type": "function"
    },
    {
      "inputs": [
        {
          "components": [
            {
              "internalType": "bytes32",
              "name": "uid",
              "type": "bytes32"
            },
            {
              "internalType": "bytes32",
              "name": "schema",
              "type": "bytes32"
            },
            {
              "internalType": "uint64",
              "name": "time",
              "type": "uint64"
            },
            {
              "internalType": "uint64",
              "name": "expirationTime",
              "type": "uint64"
            },
            {
              "internalType": "uint64",
              "name": "revocationTime",
              "type": "uint64"
            },
            {
              "internalType": "bytes32",
              "name": "refUID",
              "type": "bytes32"
            },
            {
              "internalType": "address",
              "name": "recipient",
              "type": "address"
            },
            {
              "internalType": "address",
              "name": "attester",
              "type": "address"
            },
            {
              "internalType": "bool",
              "name": "revocable",
              "type": "bool"
            },
            {
              "internalType": "bytes",
              "name": "data",
              "type": "bytes"
            }
          ],
          "internalType": "struct Attestation",
          "name": "attestation",
          "type": "tuple"
        }
      ],
      "name": "attest",
      "outputs": [
        {
          "internalType": "bool",
          "name": "",
          "type": "bool"
        }
      ],
      "stateMutability": "payable",
      "type": "function"
    },
    {
      "inputs": [
        {
          "internalType": "bytes",
          "name": "data",
          "type": "bytes"
        }
      ],
      "name": "decode",
      "outputs": [
        {
          "internalType": "string",
          "name": "githubHandle",
          "type": "string"
        }
      ],
      "stateMutability": "pure",
      "type": "function"
    },
    {
      "inputs": [
        {
          "internalType": "string",
          "name": "githubHandle",
          "type": "string"
        }
      ],
      "name": "getAddressOfGithubHandle",
      "outputs": [
        {
          "internalType": "address",
          "name": "",
          "type": "address"
        }
      ],
      "stateMutability": "view",
      "type": "function"
    },
    {
      "inputs": [
        {
          "internalType": "address",
          "name": "publicAddress",
          "type": "address"
        }
      ],
      "name": "getUsernameOfAddress",
      "outputs": [
        {
          "internalType": "string",
          "name": "",
          "type": "string"
        }
      ],
      "stateMutability": "view",
      "type": "function"
    },
    {
      "inputs": [
        {
          "internalType": "string",
          "name": "",
          "type": "string"
        }
      ],
      "name": "handleToAddress",
      "outputs": [
        {
          "internalType": "address",
          "name": "",
          "type": "address"
        }
      ],
      "stateMutability": "view",
      "type": "function"
    },
    {
      "inputs": [],
      "name": "isPayable",
      "outputs": [
        {
          "internalType": "bool",
          "name": "",
          "type": "bool"
        }
      ],
      "stateMutability": "pure",
      "type": "function"
    },
    {
      "inputs": [
        {
          "components": [
            {
              "internalType": "bytes32",
              "name": "uid",
              "type": "bytes32"
            },
            {
              "internalType": "bytes32",
              "name": "schema",
              "type": "bytes32"
            },
            {
              "internalType": "uint64",
              "name": "time",
              "type": "uint64"
            },
            {
              "internalType": "uint64",
              "name": "expirationTime",
              "type": "uint64"
            },
            {
              "internalType": "uint64",
              "name": "revocationTime",
              "type": "uint64"
            },
            {
              "internalType": "bytes32",
              "name": "refUID",
              "type": "bytes32"
            },
            {
              "internalType": "address",
              "name": "recipient",
              "type": "address"
            },
            {
              "internalType": "address",
              "name": "attester",
              "type": "address"
            },
            {
              "internalType": "bool",
              "name": "revocable",
              "type": "bool"
            },
            {
              "internalType": "bytes",
              "name": "data",
              "type": "bytes"
            }
          ],
          "internalType": "struct Attestation[]",
          "name": "attestations",
          "type": "tuple[]"
        },
        {
          "internalType": "uint256[]",
          "name": "values",
          "type": "uint256[]"
        }
      ],
      "name": "multiAttest",
      "outputs": [
        {
          "internalType": "bool",
          "name": "",
          "type": "bool"
        }
      ],
      "stateMutability": "payable",
      "type": "function"
    },
    {
      "inputs": [
        {
          "components": [
            {
              "internalType": "bytes32",
              "name": "uid",
              "type": "bytes32"
            },
            {
              "internalType": "bytes32",
              "name": "schema",
              "type": "bytes32"
            },
            {
              "internalType": "uint64",
              "name": "time",
              "type": "uint64"
            },
            {
              "internalType": "uint64",
              "name": "expirationTime",
              "type": "uint64"
            },
            {
              "internalType": "uint64",
              "name": "revocationTime",
              "type": "uint64"
            },
            {
              "internalType": "bytes32",
              "name": "refUID",
              "type": "bytes32"
            },
            {
              "internalType": "address",
              "name": "recipient",
              "type": "address"
            },
            {
              "internalType": "address",
              "name": "attester",
              "type": "address"
            },
            {
              "internalType": "bool",
              "name": "revocable",
              "type": "bool"
            },
            {
              "internalType": "bytes",
              "name": "data",
              "type": "bytes"
            }
          ],
          "internalType": "struct Attestation[]",
          "name": "attestations",
          "type": "tuple[]"
        },
        {
          "internalType": "uint256[]",
          "name": "values",
          "type": "uint256[]"
        }
      ],
      "name": "multiRevoke",
      "outputs": [
        {
          "internalType": "bool",
          "name": "",
          "type": "bool"
        }
      ],
      "stateMutability": "payable",
      "type": "function"
    },
    {
      "inputs": [],
      "name": "owner",
      "outputs": [
        {
          "internalType": "address",
          "name": "",
          "type": "address"
        }
      ],
      "stateMutability": "view",
      "type": "function"
    },
    {
      "inputs": [
        {
          "components": [
            {
              "internalType": "bytes32",
              "name": "uid",
              "type": "bytes32"
            },
            {
              "internalType": "bytes32",
              "name": "schema",
              "type": "bytes32"
            },
            {
              "internalType": "uint64",
              "name": "time",
              "type": "uint64"
            },
            {
              "internalType": "uint64",
              "name": "expirationTime",
              "type": "uint64"
            },
            {
              "internalType": "uint64",
              "name": "revocationTime",
              "type": "uint64"
            },
            {
              "internalType": "bytes32",
              "name": "refUID",
              "type": "bytes32"
            },
            {
              "internalType": "address",
              "name": "recipient",
              "type": "address"
            },
            {
              "internalType": "address",
              "name": "attester",
              "type": "address"
            },
            {
              "internalType": "bool",
              "name": "revocable",
              "type": "bool"
            },
            {
              "internalType": "bytes",
              "name": "data",
              "type": "bytes"
            }
          ],
          "internalType": "struct Attestation",
          "name": "attestation",
          "type": "tuple"
        }
      ],
      "name": "revoke",
      "outputs": [
        {
          "internalType": "bool",
          "name": "",
          "type": "bool"
        }
      ],
      "stateMutability": "payable",
      "type": "function"
    },
    {
      "inputs": [],
      "name": "version",
      "outputs": [
        {
          "internalType": "string",
          "name": "",
          "type": "string"
        }
      ],
      "stateMutability": "view",
      "type": "function"
    },
    {
      "stateMutability": "payable",
      "type": "receive"
    }
  ],
  "transactionHash": "0x893686b3e25e8e479a29bc61b2853fff9efcda8c4e63296e008583262202ef5d",
  "args": [
    "0x4200000000000000000000000000000000000021"
  ],
  "solcInputHash": "844570a6f7ff10ead53c08f59bc87001",
  "bytecode": "0x610100346100bf57601f610d7a38819003918201601f19168301916001600160401b038311848410176100c4578084926020946040528339810103126100bf57516001600160a01b0381168082036100bf576001608052600060a052600060c052156100ad5760e052600280546001600160a01b03191633179055604051610c9f90816100db823960805181610291015260a051816102c0015260c051816102ea015260e051816107710152f35b6040516341bc07ff60e11b8152600490fd5b600080fd5b634e487b7160e01b600052604160045260246000fdfe60406080815260049081361015610042575b361561001c57600080fd5b517f1574f9f3000000000000000000000000000000000000000000000000000000008152fd5b6000803560e01c908163181876b01461018e5781632f199d5a1461023857816354fd4d501461027757816367e31b551461023857816388e5b2d9146102185781638da5cb5b146101f157816391db0b7e146101d15781639eff61ec1461018e578163ce46e04614610170578163e49617e114610154578163e5c5e9a3146100f3575063e60c350503610011576020906100ea6100dd36610612565b6100e5610767565b610a04565b90519015158152f35b9050346101515760203660031901126101515782359067ffffffffffffffff82116101515736602383011215610151575061013d61014d93826024610142943693013591016103ec565b610938565b90519182918261056a565b0390f35b80fd5b6020836100ea61016336610612565b61016b610767565b610ba0565b823461018a578160031936011261018a5751908152602090f35b5080fd5b823461018a576001600160a01b036101bf602080946101ac36610428565b9082865194838680955193849201610467565b82019081520301902054169051908152f35b6020836100ea6101e0366105c7565b926101ec929192610767565b61068e565b823461018a578160031936011261018a576020906001600160a01b03600254169051908152f35b6020836100ea610227366105c7565b92610233929192610767565b610715565b82843461027357602036600319011261027357356001600160a01b0381168091036102735781836101429261014d95526001602052206104c4565b8280fd5b823461018a578160031936011261018a5761014d906102b57f00000000000000000000000000000000000000000000000000000000000000006107c3565b9061038e60226102e47f00000000000000000000000000000000000000000000000000000000000000006107c3565b9361030e7f00000000000000000000000000000000000000000000000000000000000000006107c3565b84519582610326889451809260208088019101610467565b8301907f2e0000000000000000000000000000000000000000000000000000000000000091826020820152610365825180936020602185019101610467565b0190602182015261037f8251809360208785019101610467565b01036002810185520183610398565b519182918261056a565b90601f8019910116810190811067ffffffffffffffff8211176103ba57604052565b634e487b7160e01b600052604160045260246000fd5b67ffffffffffffffff81116103ba57601f01601f191660200190565b9291926103f8826103d0565b916104066040519384610398565b829481845281830111610423578281602093846000960137010152565b600080fd5b6020600319820112610423576004359067ffffffffffffffff8211610423578060238301121561042357816024610464936004013591016103ec565b90565b60005b83811061047a5750506000910152565b818101518382015260200161046a565b90600182811c921680156104ba575b60208310146104a457565b634e487b7160e01b600052602260045260246000fd5b91607f1691610499565b90604051918260008254926104d88461048a565b9081845260019485811690816000146105475750600114610504575b505061050292500383610398565b565b9093915060005260209081600020936000915b81831061052f575050610502935082010138806104f4565b85548884018501529485019487945091830191610517565b91505061050294506020925060ff191682840152151560051b82010138806104f4565b6040916020825261058a8151809281602086015260208686019101610467565b601f01601f1916010190565b9181601f840112156104235782359167ffffffffffffffff8311610423576020808501948460051b01011161042357565b60406003198201126104235767ffffffffffffffff9160043583811161042357826105f491600401610596565b939093926024359182116104235761060e91600401610596565b9091565b60031990602081830112610423576004359167ffffffffffffffff83116104235782610140920301126104235760040190565b91908110156106555760051b0190565b634e487b7160e01b600052603260045260246000fd5b91908110156106555760051b8101359061013e1981360301821215610423570190565b909192349160009182935b8585106106ac5750505050505050600190565b6106b7858389610645565b35908082116106eb576106ce6100e587898761066b565b156106e0579060019103940193610699565b505050509250505090565b60046040517f11011294000000000000000000000000000000000000000000000000000000008152fd5b909192349160009182935b8585106107335750505050505050600190565b61073e858389610645565b35908082116106eb5761075561016b87898761066b565b156106e0579060019103940193610720565b6001600160a01b037f000000000000000000000000000000000000000000000000000000000000000016330361079957565b60046040517f4ca88867000000000000000000000000000000000000000000000000000000008152fd5b806000917a184f03e93ff9f4daa797ed6e38ed64bf6a1f0100000000000000008082101561092a575b506d04ee2d6d415b85acef81000000008083101561091b575b50662386f26fc100008083101561090c575b506305f5e100808310156108fd575b50612710808310156108ee575b5060648210156108de575b600a809210156108d4575b6001908160218186019561085c876103d0565b9661086a6040519889610398565b808852610879601f19916103d0565b01366020890137860101905b610891575b5050505090565b600019019083907f30313233343536373839616263646566000000000000000000000000000000008282061a8353049182156108cf57919082610885565b61088a565b9160010191610849565b919060646002910491019161083e565b60049193920491019138610833565b60089193920491019138610826565b60109193920491019138610817565b60209193920491019138610805565b6040935081049150386107ec565b80518101906020818184019303126104235760208101519067ffffffffffffffff8211610423570181603f82011215610423576020810151610979816103d0565b926109876040519485610398565b8184526040828401011161042357610464916040602085019101610467565b903590601e1981360301821215610423570180359067ffffffffffffffff82116104235760200191813603831361042357565b356001600160a01b03811681036104235790565b8181106109f8575050565b600081556001016109ed565b9060c0610a2261013d610a1b6101208601866109a6565b36916103ec565b920191610a2e836109d9565b60405190610a83835195602096610a4881868a8901610467565b8401938781600096878152030190206001600160a01b0380941673ffffffffffffffffffffffffffffffffffffffff198254161790556109d9565b168152600191828552604082209181519167ffffffffffffffff8311610b8c57610aad845461048a565b601f8111610b53575b508691601f8411600114610af15783949596975092610ae6575b5050600019600383901b1c191690831b17905590565b015190503880610ad0565b9190601f1984169785845280842093905b898210610b3c5750508386979896959610610b23575b505050811b01905590565b015160001960f88460031b161c19169055388080610b18565b808885968294968601518155019501930190610b02565b610b7c90858452888420601f860160051c8101918a8710610b82575b601f0160051c01906109ed565b38610ab6565b9091508190610b6f565b602482634e487b7160e01b81526041600452fd5b6001600160a01b03610c0860c0610bc161013d610a1b6101208701876109a6565b936020610bd76040519687815193849201610467565b8501946020816000978881520301902073ffffffffffffffffffffffffffffffffffffffff198154169055016109d9565b168152600160205260408120610c1e815461048a565b80610c2c575b505050600190565b82601f8211600114610c44575050555b388080610c24565b9091808252610c62601f60208420940160051c8401600185016109ed565b5555610c3c56fea264697066735822122020e3c7a1a154daa9d977b0fb95373d442be112a617fd72fc9f0ec35d84703ca364736f6c63430008130033",
  "devdoc": {
    "kind": "dev",
    "methods": {
      "attest((bytes32,bytes32,uint64,uint64,uint64,bytes32,address,address,bool,bytes))": {
        "details": "Processes an attestation and verifies whether it's valid.",
        "params": {
          "attestation": "The new attestation."
        },
        "returns": {
          "_0": "Whether the attestation is valid."
        }
      },
      "isPayable()": {
        "details": "Returns whether the resolver supports ETH transfers."
      },
      "multiAttest((bytes32,bytes32,uint64,uint64,uint64,bytes32,address,address,bool,bytes)[],uint256[])": {
        "details": "Processes multiple attestations and verifies whether they are valid.",
        "params": {
          "attestations": "The new attestations.",
          "values": "Explicit ETH amounts which were sent with each attestation."
        },
        "returns": {
          "_0": "Whether all the attestations are valid."
        }
      },
      "multiRevoke((bytes32,bytes32,uint64,uint64,uint64,bytes32,address,address,bool,bytes)[],uint256[])": {
        "details": "Processes revocation of multiple attestation and verifies they can be revoked.",
        "params": {
          "attestations": "The existing attestations to be revoked.",
          "values": "Explicit ETH amounts which were sent with each revocation."
        },
        "returns": {
          "_0": "Whether the attestations can be revoked."
        }
      },
      "revoke((bytes32,bytes32,uint64,uint64,uint64,bytes32,address,address,bool,bytes))": {
        "details": "Processes an attestation revocation and verifies if it can be revoked.",
        "params": {
          "attestation": "The existing attestation to be revoked."
        },
        "returns": {
          "_0": "Whether the attestation can be revoked."
        }
      },
      "version()": {
        "returns": {
          "_0": "Semver contract version as a string."
        }
      }
    },
    "version": 1
  },
  "userdoc": {
    "kind": "user",
    "methods": {
      "decode(bytes)": {
        "notice": "Decodes the schema"
      },
      "version()": {
        "notice": "Returns the full semver contract version."
      }
    },
    "version": 1
  },
  "storageLayout": {
    "storage": [
      {
        "astId": 7162,
        "contract": "contracts/dynamic-nft/GithubLinkResolver.sol:GithubLinkResolver",
        "label": "handleToAddress",
        "offset": 0,
        "slot": "0",
        "type": "t_mapping(t_string_memory_ptr,t_address)"
      },
      {
        "astId": 7166,
        "contract": "contracts/dynamic-nft/GithubLinkResolver.sol:GithubLinkResolver",
        "label": "addressToHandle",
        "offset": 0,
        "slot": "1",
        "type": "t_mapping(t_address,t_string_storage)"
      },
      {
        "astId": 7168,
        "contract": "contracts/dynamic-nft/GithubLinkResolver.sol:GithubLinkResolver",
        "label": "owner",
        "offset": 0,
        "slot": "2",
        "type": "t_address"
      }
    ],
    "types": {
      "t_address": {
        "encoding": "inplace",
        "label": "address",
        "numberOfBytes": "20"
      },
      "t_mapping(t_address,t_string_storage)": {
        "encoding": "mapping",
        "key": "t_address",
        "label": "mapping(address => string)",
        "numberOfBytes": "32",
        "value": "t_string_storage"
      },
      "t_mapping(t_string_memory_ptr,t_address)": {
        "encoding": "mapping",
        "key": "t_string_memory_ptr",
        "label": "mapping(string => address)",
        "numberOfBytes": "32",
        "value": "t_address"
      },
      "t_string_memory_ptr": {
        "encoding": "bytes",
        "label": "string",
        "numberOfBytes": "32"
      },
      "t_string_storage": {
        "encoding": "bytes",
        "label": "string",
        "numberOfBytes": "32"
      }
    }
  }
}