{
  "address": "0xD23f7c18C4cDeC0eC3f09a808aac15F4fAF3a309",
  "abi": [
    {
      "inputs": [
        {
          "internalType": "string",
          "name": "_name",
          "type": "string"
        },
        {
          "internalType": "string",
          "name": "_symbol",
          "type": "string"
        }
      ],
      "stateMutability": "nonpayable",
      "type": "constructor"
    },
    {
      "anonymous": false,
      "inputs": [
        {
          "indexed": true,
          "internalType": "address",
          "name": "owner",
          "type": "address"
        },
        {
          "indexed": true,
          "internalType": "address",
          "name": "approved",
          "type": "address"
        },
        {
          "indexed": true,
          "internalType": "uint256",
          "name": "tokenId",
          "type": "uint256"
        }
      ],
      "name": "Approval",
      "type": "event"
    },
    {
      "anonymous": false,
      "inputs": [
        {
          "indexed": true,
          "internalType": "address",
          "name": "owner",
          "type": "address"
        },
        {
          "indexed": true,
          "internalType": "address",
          "name": "operator",
          "type": "address"
        },
        {
          "indexed": false,
          "internalType": "bool",
          "name": "approved",
          "type": "bool"
        }
      ],
      "name": "ApprovalForAll",
      "type": "event"
    },
    {
      "anonymous": false,
      "inputs": [
        {
          "indexed": false,
          "internalType": "uint256",
          "name": "_fromTokenId",
          "type": "uint256"
        },
        {
          "indexed": false,
          "internalType": "uint256",
          "name": "_toTokenId",
          "type": "uint256"
        }
      ],
      "name": "BatchMetadataUpdate",
      "type": "event"
    },
    {
      "anonymous": false,
      "inputs": [
        {
          "indexed": false,
          "internalType": "uint256",
          "name": "_tokenId",
          "type": "uint256"
        }
      ],
      "name": "MetadataUpdate",
      "type": "event"
    },
    {
      "anonymous": false,
      "inputs": [
        {
          "indexed": true,
          "internalType": "address",
          "name": "previousOwner",
          "type": "address"
        },
        {
          "indexed": true,
          "internalType": "address",
          "name": "newOwner",
          "type": "address"
        }
      ],
      "name": "OwnershipTransferred",
      "type": "event"
    },
    {
      "anonymous": false,
      "inputs": [
        {
          "indexed": true,
          "internalType": "address",
          "name": "from",
          "type": "address"
        },
        {
          "indexed": true,
          "internalType": "address",
          "name": "to",
          "type": "address"
        },
        {
          "indexed": true,
          "internalType": "uint256",
          "name": "tokenId",
          "type": "uint256"
        }
      ],
      "name": "Transfer",
      "type": "event"
    },
    {
      "inputs": [
        {
          "internalType": "address",
          "name": "to",
          "type": "address"
        },
        {
          "internalType": "uint256",
          "name": "tokenId",
          "type": "uint256"
        }
      ],
      "name": "approve",
      "outputs": [],
      "stateMutability": "nonpayable",
      "type": "function"
    },
    {
      "inputs": [
        {
          "internalType": "address",
          "name": "owner",
          "type": "address"
        }
      ],
      "name": "balanceOf",
      "outputs": [
        {
          "internalType": "uint256",
          "name": "",
          "type": "uint256"
        }
      ],
      "stateMutability": "view",
      "type": "function"
    },
    {
      "inputs": [
        {
          "internalType": "address[]",
          "name": "receivers",
          "type": "address[]"
        },
        {
          "internalType": "string[]",
          "name": "tokenURIs",
          "type": "string[]"
        }
      ],
      "name": "batchMint",
      "outputs": [],
      "stateMutability": "nonpayable",
      "type": "function"
    },
    {
      "inputs": [
        {
          "internalType": "uint256",
          "name": "tokenId",
          "type": "uint256"
        }
      ],
      "name": "burn",
      "outputs": [],
      "stateMutability": "nonpayable",
      "type": "function"
    },
    {
      "inputs": [
        {
          "internalType": "uint256",
          "name": "tokenId",
          "type": "uint256"
        }
      ],
      "name": "getApproved",
      "outputs": [
        {
          "internalType": "address",
          "name": "",
          "type": "address"
        }
      ],
      "stateMutability": "view",
      "type": "function"
    },
    {
      "inputs": [
        {
          "internalType": "address",
          "name": "owner",
          "type": "address"
        },
        {
          "internalType": "address",
          "name": "operator",
          "type": "address"
        }
      ],
      "name": "isApprovedForAll",
      "outputs": [
        {
          "internalType": "bool",
          "name": "",
          "type": "bool"
        }
      ],
      "stateMutability": "view",
      "type": "function"
    },
    {
      "inputs": [
        {
          "internalType": "address",
          "name": "receiver",
          "type": "address"
        },
        {
          "internalType": "string",
          "name": "tokenURI",
          "type": "string"
        }
      ],
      "name": "mintToken",
      "outputs": [
        {
          "internalType": "uint256",
          "name": "",
          "type": "uint256"
        }
      ],
      "stateMutability": "nonpayable",
      "type": "function"
    },
    {
      "inputs": [],
      "name": "name",
      "outputs": [
        {
          "internalType": "string",
          "name": "",
          "type": "string"
        }
      ],
      "stateMutability": "view",
      "type": "function"
    },
    {
      "inputs": [],
      "name": "owner",
      "outputs": [
        {
          "internalType": "address",
          "name": "",
          "type": "address"
        }
      ],
      "stateMutability": "view",
      "type": "function"
    },
    {
      "inputs": [
        {
          "internalType": "uint256",
          "name": "tokenId",
          "type": "uint256"
        }
      ],
      "name": "ownerOf",
      "outputs": [
        {
          "internalType": "address",
          "name": "",
          "type": "address"
        }
      ],
      "stateMutability": "view",
      "type": "function"
    },
    {
      "inputs": [],
      "name": "renounceOwnership",
      "outputs": [],
      "stateMutability": "nonpayable",
      "type": "function"
    },
    {
      "inputs": [
        {
          "internalType": "address",
          "name": "from",
          "type": "address"
        },
        {
          "internalType": "address",
          "name": "to",
          "type": "address"
        },
        {
          "internalType": "uint256",
          "name": "tokenId",
          "type": "uint256"
        }
      ],
      "name": "safeTransferFrom",
      "outputs": [],
      "stateMutability": "nonpayable",
      "type": "function"
    },
    {
      "inputs": [
        {
          "internalType": "address",
          "name": "from",
          "type": "address"
        },
        {
          "internalType": "address",
          "name": "to",
          "type": "address"
        },
        {
          "internalType": "uint256",
          "name": "tokenId",
          "type": "uint256"
        },
        {
          "internalType": "bytes",
          "name": "data",
          "type": "bytes"
        }
      ],
      "name": "safeTransferFrom",
      "outputs": [],
      "stateMutability": "nonpayable",
      "type": "function"
    },
    {
      "inputs": [
        {
          "internalType": "address",
          "name": "operator",
          "type": "address"
        },
        {
          "internalType": "bool",
          "name": "approved",
          "type": "bool"
        }
      ],
      "name": "setApprovalForAll",
      "outputs": [],
      "stateMutability": "nonpayable",
      "type": "function"
    },
    {
      "inputs": [
        {
          "internalType": "bytes4",
          "name": "interfaceId",
          "type": "bytes4"
        }
      ],
      "name": "supportsInterface",
      "outputs": [
        {
          "internalType": "bool",
          "name": "",
          "type": "bool"
        }
      ],
      "stateMutability": "view",
      "type": "function"
    },
    {
      "inputs": [],
      "name": "symbol",
      "outputs": [
        {
          "internalType": "string",
          "name": "",
          "type": "string"
        }
      ],
      "stateMutability": "view",
      "type": "function"
    },
    {
      "inputs": [
        {
          "internalType": "uint256",
          "name": "tokenId",
          "type": "uint256"
        }
      ],
      "name": "tokenURI",
      "outputs": [
        {
          "internalType": "string",
          "name": "",
          "type": "string"
        }
      ],
      "stateMutability": "view",
      "type": "function"
    },
    {
      "inputs": [
        {
          "internalType": "address",
          "name": "from",
          "type": "address"
        },
        {
          "internalType": "address",
          "name": "to",
          "type": "address"
        },
        {
          "internalType": "uint256",
          "name": "tokenId",
          "type": "uint256"
        }
      ],
      "name": "transferFrom",
      "outputs": [],
      "stateMutability": "nonpayable",
      "type": "function"
    },
    {
      "inputs": [
        {
          "internalType": "address",
          "name": "newOwner",
          "type": "address"
        }
      ],
      "name": "transferOwnership",
      "outputs": [],
      "stateMutability": "nonpayable",
      "type": "function"
    }
  ],
  "transactionHash": "0xa43a44d8170dc21afa5681634cacaa4376ad8f4d42798daf13bb37370dff4e01",
  "args": [
    "Karma",
    "KRM"
  ],
  "solcInputHash": "b8372c3cab51095b3887b02e7df1fff3",
  "bytecode": "0x608060405234620003635762001f72803803806200001d8162000368565b9283398101604082820312620003635781516001600160401b0392908381116200036357826200004f9183016200038e565b906020928382015185811162000363576200006b92016200038e565b9281518181116200034d576000938454916001948584811c9416801562000342575b838510146200032e578190601f94858111620002db575b508390858311600114620002775788926200026b575b5050600019600383901b1c191690851b1785555b8551928311620002575783548481811c911680156200024c575b828210146200023857828111620001f0575b50809183116001146200018a57508394829394926200017e575b5050600019600383901b1c191690821b1790555b60078054336001600160a01b031982168117909255604051926001600160a01b03909116907f8be0079c531659141344cd1fd0a4f28419497f9722a3daafe3b4186f6b6457e09080a3611b719081620004018239f35b01519050388062000114565b90601f198316958486528286209286905b888210620001d85750508385969710620001be575b505050811b01905562000128565b015160001960f88460031b161c19169055388080620001b0565b8087859682949686015181550195019301906200019b565b8486528186208380860160051c8201928487106200022e575b0160051c019085905b82811062000222575050620000fa565b87815501859062000212565b9250819262000209565b634e487b7160e01b86526022600452602486fd5b90607f1690620000e8565b634e487b7160e01b85526041600452602485fd5b015190503880620000ba565b8880528489208894509190601f1984168a5b87828210620002c45750508411620002aa575b505050811b018555620000ce565b015160001960f88460031b161c191690553880806200029c565b8385015186558b9790950194938401930162000289565b9091508780528388208580850160051c82019286861062000324575b918991869594930160051c01915b82811062000315575050620000a4565b8a815585945089910162000305565b92508192620002f7565b634e487b7160e01b87526022600452602487fd5b93607f16936200008d565b634e487b7160e01b600052604160045260246000fd5b600080fd5b6040519190601f01601f191682016001600160401b038111838210176200034d57604052565b919080601f84011215620003635782516001600160401b0381116200034d57602090620003c4601f8201601f1916830162000368565b92818452828287010111620003635760005b818110620003ec57508260009394955001015290565b8581018301518482018401528201620003d656fe6080604081815260048036101561001557600080fd5b600092833560e01c90816301ffc9a714610b965750806306fdde0314610aee578063081812fc14610ac6578063095ea7b31461093f57806323b872dd146109155780633d02d0c9146108c757806342842e0e146108785783816342966c6814610757575080636352211e1461072757806364ba144e146105a457806370a08231146104fa578063715018a61461049f5780638da5cb5b1461047757806395d89b4114610394578063a22cb465146102c9578063b88d4fde14610261578063c87b56dd14610226578063e985e9c5146101d45763f2fde38b146100f657600080fd5b346101d05760203660031901126101d05761010f610ce1565b90610118610e24565b6001600160a01b03809216928315610167575050600754826001600160a01b0319821617600755167f8be0079c531659141344cd1fd0a4f28419497f9722a3daafe3b4186f6b6457e08380a380f35b906020608492519162461bcd60e51b8352820152602660248201527f4f776e61626c653a206e6577206f776e657220697320746865207a65726f206160448201527f64647265737300000000000000000000000000000000000000000000000000006064820152fd5b8280fd5b50503461022257806003193601126102225760ff816020936101f4610ce1565b6101fc610cfc565b6001600160a01b0391821683526005875283832091168252855220549151911615158152f35b5080fd5b50913461025e57602036600319011261025e575061024761025a923561142f565b9051918291602083526020830190610cbc565b0390f35b80fd5b8382346102225760803660031901126102225761027c610ce1565b610284610cfc565b9060643567ffffffffffffffff81116102c557366023820112156102c5576102c2938160246102b893369301359101610db7565b9160443591610fd6565b80f35b8480fd5b5090346101d057806003193601126101d0576102e3610ce1565b90602435918215158093036102c5576001600160a01b0316928333146103525750338452600560205280842083855260205280842060ff1981541660ff8416179055519081527f17307eab39ab6107e8899845ad3d59bd9653f200f220920489ca2b5937696c3160203392a380f35b6020606492519162461bcd60e51b8352820152601960248201527f4552433732313a20617070726f766520746f2063616c6c6572000000000000006044820152fd5b5050346102225781600319360112610222578051908260018054916103b883610ee9565b8086529282811690811561044f57506001146103f3575b5050506103e18261025a940383610d79565b51918291602083526020830190610cbc565b94508085527fb10e2d527612073b26eecdfd717e6a320cf44b4afac2b0732d9fcbe2b7fa0cf65b828610610437575050506103e182602061025a95820101946103cf565b8054602087870181019190915290950194810161041a565b61025a9750869350602092506103e194915060ff191682840152151560051b820101946103cf565b5050346102225781600319360112610222576020906001600160a01b03600754169051908152f35b833461025e578060031936011261025e576104b8610e24565b806001600160a01b036007546001600160a01b03198116600755167f8be0079c531659141344cd1fd0a4f28419497f9722a3daafe3b4186f6b6457e08280a380f35b50829034610222576020366003190112610222576001600160a01b0361051e610ce1565b1690811561053b5760208480858581526003845220549051908152f35b608490602085519162461bcd60e51b8352820152602960248201527f4552433732313a2061646472657373207a65726f206973206e6f74206120766160448201527f6c6964206f776e657200000000000000000000000000000000000000000000006064820152fd5b50913461025e578160031936011261025e5782359267ffffffffffffffff928385116101d057366023860112156101d05784820135946105e386610e0c565b946105f083519687610d79565b8686526020918287016024809960051b830101913683116106fc578901905b828210610704575050508635818111610700573660238201121561070057808501359061064761063e83610e0c565b95519586610d79565b818552888486019260051b820101923684116106fc57898201925b8484106106d257505050505050610677610e24565b825b81518110156106ce576106aa6001600160a01b0361069783886117ae565b51166106a383856117ae565b51906117d8565b5060001981146106bc57600101610679565b8584601185634e487b7160e01b835252fd5b8380f35b83358281116106f85786916106ed83928e3691880101610dee565b815201930192610662565b8980fd5b8780fd5b8580fd5b81356001600160a01b038116810361072357815290840190840161060f565b8880fd5b50913461025e57602036600319011261025e57506001600160a01b0361074f60209335610ec7565b915191168152f35b92905034610874576020918260031936011261086f578035906001600160a01b038061078284610ec7565b163303610700578291869161079684610ec7565b506107a084610ec7565b918484528752858320916001600160a01b0319928381541690551690818352600387528583206000198154019055838352600287528583209081541690557fddf252ad1be2c89b69c2b068fc378daa952ba7f163c4a11628f55a4df523b3ef8280a46006835261081282852054610ee9565b61081b57505050f35b83526006825282209061082e8254610ee9565b908161083957505050f35b8390601f831160011461084d575050505580f35b838252812092909161086a90601f0160051c840160018501611b24565b555580f35b505050fd5b5050fd5b509190346102225761088936610d12565b91835193602085019085821067ffffffffffffffff8311176108b4576102c296975052858452610fd6565b60248760418a634e487b7160e01b835252fd5b50346101d057816003193601126101d0576108e0610ce1565b926024359067ffffffffffffffff821161025e57509261090861090e92602095369101610dee565b906117d8565b9051908152f35b833461025e576102c261092736610d12565b9161093a610935843361106c565b610f65565b61114b565b50346101d057816003193601126101d057610958610ce1565b90602435926001600160a01b0391828061097187610ec7565b16941693808514610a5d57803314908115610a3e575b50156109d6578486526020528420826001600160a01b03198254161790556109ae83610ec7565b167f8c5be1e5ebec7d5bd14f71427d1e84f3dd0314c0f7b2291e5b200ac8c7c3b9258480a480f35b6020608492519162461bcd60e51b8352820152603d60248201527f4552433732313a20617070726f76652063616c6c6572206973206e6f7420746f60448201527f6b656e206f776e6572206f7220617070726f76656420666f7220616c6c0000006064820152fd5b90508652600560205281862033875260205260ff828720541638610987565b506020608492519162461bcd60e51b8352820152602160248201527f4552433732313a20617070726f76616c20746f2063757272656e74206f776e6560448201527f72000000000000000000000000000000000000000000000000000000000000006064820152fd5b50913461025e57602036600319011261025e57506001600160a01b0361074f60209335610f23565b505034610222578160031936011261022257805190828054610b0f81610ee9565b8085529160019180831690811561044f5750600114610b3a575050506103e18261025a940383610d79565b80809650527f290decd9548b62a8d60345a988386fc84ba6bc95484008f6362f93160ef3e5635b828610610b7e575050506103e182602061025a95820101946103cf565b80546020878701810191909152909501948101610b61565b925050346101d05760203660031901126101d057357fffffffff0000000000000000000000000000000000000000000000000000000081168091036101d057602092507f49064906000000000000000000000000000000000000000000000000000000008114908115610c0b575b5015158152f35b7f80ac58cd00000000000000000000000000000000000000000000000000000000811491508115610c6f575b8115610c45575b5038610c04565b7f01ffc9a70000000000000000000000000000000000000000000000000000000091501438610c3e565b7f5b5e139f0000000000000000000000000000000000000000000000000000000081149150610c37565b60005b838110610cac5750506000910152565b8181015183820152602001610c9c565b90602091610cd581518092818552858086019101610c99565b601f01601f1916010190565b600435906001600160a01b0382168203610cf757565b600080fd5b602435906001600160a01b0382168203610cf757565b6060906003190112610cf7576001600160a01b03906004358281168103610cf757916024359081168103610cf7579060443590565b6060810190811067ffffffffffffffff821117610d6357604052565b634e487b7160e01b600052604160045260246000fd5b90601f8019910116810190811067ffffffffffffffff821117610d6357604052565b67ffffffffffffffff8111610d6357601f01601f191660200190565b929192610dc382610d9b565b91610dd16040519384610d79565b829481845281830111610cf7578281602093846000960137010152565b9080601f83011215610cf757816020610e0993359101610db7565b90565b67ffffffffffffffff8111610d635760051b60200190565b6001600160a01b03600754163303610e3857565b606460405162461bcd60e51b815260206004820152602060248201527f4f776e61626c653a2063616c6c6572206973206e6f7420746865206f776e65726044820152fd5b15610e8357565b606460405162461bcd60e51b815260206004820152601860248201527f4552433732313a20696e76616c696420746f6b656e20494400000000000000006044820152fd5b60005260026020526001600160a01b0360406000205416610e09811515610e7c565b90600182811c92168015610f19575b6020831014610f0357565b634e487b7160e01b600052602260045260246000fd5b91607f1691610ef8565b610f4b610f468260005260026020526001600160a01b0360406000205416151590565b610e7c565b60005260046020526001600160a01b036040600020541690565b15610f6c57565b608460405162461bcd60e51b815260206004820152602d60248201527f4552433732313a2063616c6c6572206973206e6f7420746f6b656e206f776e6560448201527f72206f7220617070726f766564000000000000000000000000000000000000006064820152fd5b90610ffa939291610fea610935843361106c565b610ff583838361114b565b611272565b1561100157565b60405162461bcd60e51b815260206004820152603260248201527f4552433732313a207472616e7366657220746f206e6f6e20455243373231526560448201527f63656976657220696d706c656d656e74657200000000000000000000000000006064820152608490fd5b906001600160a01b03808061108084610ec7565b169316918383149384156110b3575b50831561109d575b50505090565b6110a991929350610f23565b1614388080611097565b909350600052600560205260406000208260005260205260ff60406000205416923861108f565b156110e157565b608460405162461bcd60e51b815260206004820152602560248201527f4552433732313a207472616e736665722066726f6d20696e636f72726563742060448201527f6f776e65720000000000000000000000000000000000000000000000000000006064820152fd5b906111739161115984610ec7565b916001600160a01b039384938480941694859116146110da565b1691821561120957816111909161118986610ec7565b16146110da565b7fddf252ad1be2c89b69c2b068fc378daa952ba7f163c4a11628f55a4df523b3ef60008481526004602052604081206001600160a01b03199081815416905583825260036020526040822060001981540190558482526040822060018154019055858252600260205284604083209182541617905580a4565b608460405162461bcd60e51b8152602060048201526024808201527f4552433732313a207472616e7366657220746f20746865207a65726f2061646460448201527f72657373000000000000000000000000000000000000000000000000000000006064820152fd5b9293600093909291803b15611424579484916112e696604051809481937f150b7a0200000000000000000000000000000000000000000000000000000000978884523360048501526001600160a01b0380921660248501526044840152608060648401528260209b8c976084830190610cbc565b0393165af18491816113cc575b506113a3575050503d60001461139b573d61130d81610d9b565b9061131b6040519283610d79565b81528091833d92013e5b805191826113985760405162461bcd60e51b815260206004820152603260248201527f4552433732313a207472616e7366657220746f206e6f6e20455243373231526560448201527f63656976657220696d706c656d656e74657200000000000000000000000000006064820152608490fd5b01fd5b506060611325565b7fffffffff00000000000000000000000000000000000000000000000000000000161492509050565b9091508581813d831161141d575b6113e48183610d79565b810103126102c557517fffffffff00000000000000000000000000000000000000000000000000000000811681036102c55790386112f3565b503d6113da565b505050915050600190565b611452610f468260005260026020526001600160a01b0360406000205416151590565b6000908082526020906006825260409283812091845192828154908561147783610ee9565b91828252888201946001948a8682169182600014611790575050600114611752575b506114a692500386610d79565b8651946114b286610d47565b6022958681527f68747470733a2f2f676174657761792e70696e6174612e636c6f75642f6970669384898301527f732f00000000000000000000000000000000000000000000000000000000000092838b84015280516116f757505050611532610f468560005260026020526001600160a01b0360406000205416151590565b87519561153e87610d47565b86528686019283528786015282839185947a184f03e93ff9f4daa797ed6e38ed64bf6a1f01000000000000000090818110156116ea575b5050876d04ee2d6d415b85acef8100000000808510156116dc575b5050662386f26fc10000808410156116cd575b506305f5e100808410156116be575b50612710808410156116af575b50606483101561169f575b600a80931015611696575b90816021866115fe838d99016115f66115ed82610d9b565b9a519a8b610d79565b808a52610d9b565b888c019990601f1901368b3750870101905b611653575b5050505090611647610e0995949392611638975197889551809288880190610c99565b84019151809386840190610c99565b01038084520182610d79565b600019019083907f30313233343536373839616263646566000000000000000000000000000000008282061a83530491821561169157919082611610565b611615565b809401936115d5565b93916064600291049201936115ca565b600491959304920193386115bf565b600891959304920193386115b2565b601091959304920193386115a3565b950194909204918738611590565b8a96500492503880611575565b9450945095969791505051958694845b87811061173c575050509161172d8492610e099694604280970193845251928391610c99565b81010390810184520182610d79565b8181018301518982018401528896508201611707565b915050855285878087208488915b8583106117775750506114a6935082010138611499565b80919294505483858c0101520191018890848993611760565b60ff191688526114a695151560051b85010192503891506114999050565b80518210156117c25760209160051b010190565b634e487b7160e01b600052603260045260246000fd5b9190916117e3610e24565b6001926001600160a01b038460085401928360085516908115611a95576118296118238460005260026020526001600160a01b0360406000205416151590565b15611ad9565b61184c6118238460005260026020526001600160a01b0360406000205416151590565b6000908282528360209360038552604084208881540190558184526002855260408420816001600160a01b0319825416179055837fddf252ad1be2c89b69c2b068fc378daa952ba7f163c4a11628f55a4df523b3ef8180a46118c48460005260026020526001600160a01b0360406000205416151590565b15611a2b5783825260068352604082209181519167ffffffffffffffff8311611a17576118f18454610ee9565b601f81116119de575b508491601f841160011461195e5797839283927ff8e1a15aba9398e019f0b49df1a4fde98ee17ae345cb5f6b5e2c27f5033e8ce798999a94611953575b50501b916000199060031b1c19161790555b604051838152a190565b015192503880611937565b90979291601f19831698858352868320925b8a81106119c95750837ff8e1a15aba9398e019f0b49df1a4fde98ee17ae345cb5f6b5e2c27f5033e8ce798999a106119b0575b505050811b019055611949565b015160001960f88460031b161c191690553880806119a3565b81830151845592850192918701918701611970565b611a0790858452868420601f860160051c810191888710611a0d575b601f0160051c0190611b24565b386118fa565b90915081906119fa565b602482634e487b7160e01b81526041600452fd5b6084836040519062461bcd60e51b82526004820152602e60248201527f45524337323155524953746f726167653a2055524920736574206f66206e6f6e60448201527f6578697374656e7420746f6b656e0000000000000000000000000000000000006064820152fd5b606460405162461bcd60e51b815260206004820152602060248201527f4552433732313a206d696e7420746f20746865207a65726f20616464726573736044820152fd5b15611ae057565b606460405162461bcd60e51b815260206004820152601c60248201527f4552433732313a20746f6b656e20616c7265616479206d696e746564000000006044820152fd5b818110611b2f575050565b60008155600101611b2456fea2646970667358221220a90d10a89bb8d019b793ba397606278a091dc1953356ea7356144af60dd58f2364736f6c63430008130033",
  "devdoc": {
    "events": {
      "Approval(address,address,uint256)": {
        "details": "Emitted when `owner` enables `approved` to manage the `tokenId` token."
      },
      "ApprovalForAll(address,address,bool)": {
        "details": "Emitted when `owner` enables or disables (`approved`) `operator` to manage all of its assets."
      },
      "BatchMetadataUpdate(uint256,uint256)": {
        "details": "This event emits when the metadata of a range of tokens is changed. So that the third-party platforms such as NFT market could timely update the images and related attributes of the NFTs."
      },
      "MetadataUpdate(uint256)": {
        "details": "This event emits when the metadata of a token is changed. So that the third-party platforms such as NFT market could timely update the images and related attributes of the NFT."
      },
      "Transfer(address,address,uint256)": {
        "details": "Emitted when `tokenId` token is transferred from `from` to `to`."
      }
    },
    "kind": "dev",
    "methods": {
      "approve(address,uint256)": {
        "details": "See {IERC721-approve}."
      },
      "balanceOf(address)": {
        "details": "See {IERC721-balanceOf}."
      },
      "getApproved(uint256)": {
        "details": "See {IERC721-getApproved}."
      },
      "isApprovedForAll(address,address)": {
        "details": "See {IERC721-isApprovedForAll}."
      },
      "name()": {
        "details": "See {IERC721Metadata-name}."
      },
      "owner()": {
        "details": "Returns the address of the current owner."
      },
      "ownerOf(uint256)": {
        "details": "See {IERC721-ownerOf}."
      },
      "renounceOwnership()": {
        "details": "Leaves the contract without owner. It will not be possible to call `onlyOwner` functions. Can only be called by the current owner. NOTE: Renouncing ownership will leave the contract without an owner, thereby disabling any functionality that is only available to the owner."
      },
      "safeTransferFrom(address,address,uint256)": {
        "details": "See {IERC721-safeTransferFrom}."
      },
      "safeTransferFrom(address,address,uint256,bytes)": {
        "details": "See {IERC721-safeTransferFrom}."
      },
      "setApprovalForAll(address,bool)": {
        "details": "See {IERC721-setApprovalForAll}."
      },
      "supportsInterface(bytes4)": {
        "details": "See {IERC165-supportsInterface}"
      },
      "symbol()": {
        "details": "See {IERC721Metadata-symbol}."
      },
      "tokenURI(uint256)": {
        "details": "See {IERC721Metadata-tokenURI}."
      },
      "transferFrom(address,address,uint256)": {
        "details": "See {IERC721-transferFrom}."
      },
      "transferOwnership(address)": {
        "details": "Transfers ownership of the contract to a new account (`newOwner`). Can only be called by the current owner."
      }
    },
    "version": 1
  },
  "userdoc": {
    "kind": "user",
    "methods": {},
    "version": 1
  },
  "storageLayout": {
    "storage": [
      {
        "astId": 1706,
        "contract": "contracts/NFTMinter.sol:NFTMinter",
        "label": "_name",
        "offset": 0,
        "slot": "0",
        "type": "t_string_storage"
      },
      {
        "astId": 1708,
        "contract": "contracts/NFTMinter.sol:NFTMinter",
        "label": "_symbol",
        "offset": 0,
        "slot": "1",
        "type": "t_string_storage"
      },
      {
        "astId": 1712,
        "contract": "contracts/NFTMinter.sol:NFTMinter",
        "label": "_owners",
        "offset": 0,
        "slot": "2",
        "type": "t_mapping(t_uint256,t_address)"
      },
      {
        "astId": 1716,
        "contract": "contracts/NFTMinter.sol:NFTMinter",
        "label": "_balances",
        "offset": 0,
        "slot": "3",
        "type": "t_mapping(t_address,t_uint256)"
      },
      {
        "astId": 1720,
        "contract": "contracts/NFTMinter.sol:NFTMinter",
        "label": "_tokenApprovals",
        "offset": 0,
        "slot": "4",
        "type": "t_mapping(t_uint256,t_address)"
      },
      {
        "astId": 1726,
        "contract": "contracts/NFTMinter.sol:NFTMinter",
        "label": "_operatorApprovals",
        "offset": 0,
        "slot": "5",
        "type": "t_mapping(t_address,t_mapping(t_address,t_bool))"
      },
      {
        "astId": 2787,
        "contract": "contracts/NFTMinter.sol:NFTMinter",
        "label": "_tokenURIs",
        "offset": 0,
        "slot": "6",
        "type": "t_mapping(t_uint256,t_string_storage)"
      },
      {
        "astId": 1469,
        "contract": "contracts/NFTMinter.sol:NFTMinter",
        "label": "_owner",
        "offset": 0,
        "slot": "7",
        "type": "t_address"
      },
      {
        "astId": 5593,
        "contract": "contracts/NFTMinter.sol:NFTMinter",
        "label": "_tokenIds",
        "offset": 0,
        "slot": "8",
        "type": "t_struct(Counter)3312_storage"
      }
    ],
    "types": {
      "t_address": {
        "encoding": "inplace",
        "label": "address",
        "numberOfBytes": "20"
      },
      "t_bool": {
        "encoding": "inplace",
        "label": "bool",
        "numberOfBytes": "1"
      },
      "t_mapping(t_address,t_bool)": {
        "encoding": "mapping",
        "key": "t_address",
        "label": "mapping(address => bool)",
        "numberOfBytes": "32",
        "value": "t_bool"
      },
      "t_mapping(t_address,t_mapping(t_address,t_bool))": {
        "encoding": "mapping",
        "key": "t_address",
        "label": "mapping(address => mapping(address => bool))",
        "numberOfBytes": "32",
        "value": "t_mapping(t_address,t_bool)"
      },
      "t_mapping(t_address,t_uint256)": {
        "encoding": "mapping",
        "key": "t_address",
        "label": "mapping(address => uint256)",
        "numberOfBytes": "32",
        "value": "t_uint256"
      },
      "t_mapping(t_uint256,t_address)": {
        "encoding": "mapping",
        "key": "t_uint256",
        "label": "mapping(uint256 => address)",
        "numberOfBytes": "32",
        "value": "t_address"
      },
      "t_mapping(t_uint256,t_string_storage)": {
        "encoding": "mapping",
        "key": "t_uint256",
        "label": "mapping(uint256 => string)",
        "numberOfBytes": "32",
        "value": "t_string_storage"
      },
      "t_string_storage": {
        "encoding": "bytes",
        "label": "string",
        "numberOfBytes": "32"
      },
      "t_struct(Counter)3312_storage": {
        "encoding": "inplace",
        "label": "struct Counters.Counter",
        "members": [
          {
            "astId": 3311,
            "contract": "contracts/NFTMinter.sol:NFTMinter",
            "label": "_value",
            "offset": 0,
            "slot": "0",
            "type": "t_uint256"
          }
        ],
        "numberOfBytes": "32"
      },
      "t_uint256": {
        "encoding": "inplace",
        "label": "uint256",
        "numberOfBytes": "32"
      }
    }
  }
}